:020000040800F2
:1000000000500020B51900088F1700089717000846
:100010009F170008A7170008AF170008000000008E
:10002000000000000000000000000000B7170008FA
:10003000C317000800000000CF170008DB170008F6
:10004000FD190008FD190008FD190008FD19000838
:10005000FD190008FD190008FD190008FD19000828
:10006000FD190008FD190008FD190008FD19000818
:10007000FD190008FD190008FD190008FD19000808
:10008000FD190008FD190008FD190008FD190008F8
:10009000FD190008FD190008FD190008FD190008E8
:1000A000FD190008FD190008FD190008FD190008D8
:1000B000FD190008F5170008FD190008FD190008D2
:1000C000FD190008FD190008FD190008FD190008B8
:1000D000FD1900080D180008FD190008FD19000899
:1000E000FD190008FD190008FD19000800000000B6
:1000F0000000000000000000000000000000000000
:0C01000000000000000000005FF808F1A3
:1001100010B5054C237833B9044B13B10448AFF341
:1001200000800123237010BDD801002000000000D2
:100130004C5F000808B5034B1BB103490348AFF3FC
:10014000008008BD00000000DC0100204C5F0008BA
:10015000034613F8012B002AFBD1181A0138704707
:1001600081F0004102E000BF83F0004330B54FEA68
:1001700041044FEA430594EA050F08BF90EA020FD5
:100180001FBF54EA000C55EA020C7FEA645C7FEA68
:10019000655C00F0E2804FEA5454D4EB5555B8BF8B
:1001A0006D420CDD2C4480EA020281EA030382EAFC
:1001B000000083EA010180EA020281EA0303362D8E
:1001C00088BF30BD11F0004F4FEA01314FF4801C61
:1001D0004CEA113102D0404261EB410113F0004F73
:1001E0004FEA03334CEA133302D0524263EB43032A
:1001F00094EA050F00F0A780A4F10104D5F1200EC8
:100200000DDB02FA0EFC22FA05F2801841F1000122
:1002100003FA0EF2801843FA05F359410EE0A5F1F6
:1002200020050EF1200E012A03FA0EFC28BF4CF027
:10023000020C43FA05F3C01851EBE37101F00045DD
:1002400007D54FF0000EDCF1000C7EEB00006EEBEA
:100250000101B1F5801F1BD3B1F5001F0CD3490874
:100260005FEA30004FEA3C0C04F101044FEA4452CB
:1002700012F5800F80F09A80BCF1004F08BF5FEA52
:10028000500C50F1000041EB045141EA050130BD32
:100290005FEA4C0C404141EB0101013C28BFB1F544
:1002A000801FE9D291F0000F04BF01460020B1FA8F
:1002B00081F308BF2033A3F10B03B3F120020CDA62
:1002C0000C3208DD02F1140CC2F10C0201FA0CF040
:1002D00021FA02F10CE002F11402D8BFC2F1200CA5
:1002E00001FA02F120FA0CFCDCBF41EA0C0190405B
:1002F000E41AA2BF01EB0451294330BD6FEA0404A4
:100300001F3C1CDA0C340EDC04F11404C4F120028E
:1003100020FA04F001FA02F340EA030021FA04F3A0
:1003200045EA030130BDC4F10C04C4F1200220FAF7
:1003300002F001FA04F340EA0300294630BD21FA35
:1003400004F0294630BD94F0000F83F4801306BFFB
:1003500081F480110134013D4EE77FEA645C18BFEF
:100360007FEA655C29D094EA050F08BF90EA020F86
:1003700005D054EA000C04BF1946104630BD91EA7E
:10038000030F1EBF0021002030BD5FEA545C05D181
:100390004000494128BF41F0004130BD14F58004C0
:1003A0003CBF01F5801130BD01F0004545F0FE4134
:1003B00041F470014FF0000030BD7FEA645C1ABF69
:1003C000194610467FEA655C1CBF0B46024650EAA0
:1003D000013406BF52EA033591EA030F41F40021CC
:1003E00030BD00BF90F0000F04BF0021704730B552
:1003F0004FF4806404F132044FF000054FF0000127
:1004000050E700BF90F0000F04BF0021704730B5E7
:100410004FF4806404F1320410F0004548BF4042BC
:100420004FF000013EE700BF42004FEAE2014FEA11
:1004300031014FEA02701FBF12F07F4393F07F4FEC
:1004400081F06051704732F07F4208BF704793F0EF
:100450007F4F04BF41F40021704730B54FF4607402
:1004600001F0004521F000411CE700BF50EA010205
:1004700008BF704730B54FF000050AE050EA0102AE
:1004800008BF704730B511F0004502D5404261EB1E
:1004900041014FF4806404F132045FEA915C3FF45F
:1004A000D8AE4FF003025FEADC0C18BF03325FEAFC
:1004B000DC0C18BF033202EBDC02C2F1200300FAAD
:1004C00003FC20FA02F001FA03FE40EA0E0021FAD2
:1004D00002F11444BDE600BF70B54FF0FF0C4CF4C0
:1004E000E06C1CEA11541DBF1CEA135594EA0C0F72
:1004F00095EA0C0F00F0DEF82C4481EA030621EAAD
:100500004C5123EA4C5350EA013518BF52EA0335E7
:1005100041F4801143F4801338D0A0FB02CE4FF099
:100520000005E1FB02E506F00042E0FB03E54FF0C9
:100530000006E1FB03569CF0000F18BF4EF0010EC1
:10054000A4F1FF04B6F5007F64F5407404D25FEABD
:100550004E0E6D4146EB060642EAC62141EA555170
:100560004FEAC52040EA5E504FEACE2EB4F1FD0CB2
:1005700088BFBCF5E06F1ED8BEF1004F08BF5FEA30
:10058000500E50F1000041EB045170BD06F00046E2
:1005900046EA010140EA020081EA0301B4EB5C048F
:1005A000C2BFD4EB0C0541EA045170BD41F4801187
:1005B0004FF0000E013C00F3AB8014F1360FDEBFAC
:1005C000002001F0004170BDC4F10004203C35DA88
:1005D0000C341BDC04F11404C4F1200500FA05F30B
:1005E00020FA04F001FA05F240EA020001F00042AC
:1005F00021F0004110EBD37021FA04F642EB060122
:100600005EEA430E08BF20EAD37070BDC4F10C044B
:10061000C4F1200500FA04F320FA05F001FA04F20F
:1006200040EA020001F0004110EBD37041F10001FB
:100630005EEA430E08BF20EAD37070BDC4F1200506
:1006400000FA05F24EEA020E20FA04F301FA05F26E
:1006500043EA020321FA04F001F0004121FA04F216
:1006600020EA020000EBD3705EEA430E08BF20EAE6
:10067000D37070BD94F0000F0FD101F00046400020
:1006800041EB010111F4801F08BF013CF7D041EAA2
:10069000060195F0000F18BF704703F000465200A6
:1006A00043EB030313F4801F08BF013DF7D043EA77
:1006B0000603704794EA0C0F0CEA135518BF95EA2D
:1006C0000C0F0CD050EA410618BF52EA4306D1D1B4
:1006D00081EA030101F000414FF0000070BD50EAD3
:1006E000410606BF1046194652EA430619D094EA5D
:1006F0000C0F02D150EA013613D195EA0C0F05D147
:1007000052EA03361CBF104619460AD181EA03019A
:1007100001F0004141F0FE4141F470014FF0000052
:1007200070BD41F0FE4141F4780170BD70B54FF0ED
:10073000FF0C4CF4E06C1CEA11541DBF1CEA13556D
:1007400094EA0C0F95EA0C0F00F0A7F8A4EB05044F
:1007500081EA030E52EA03354FEA013100F0888046
:100760004FEA03334FF0805545EA131343EA12630F
:100770004FEA022245EA111545EA10654FEA0026C4
:100780000EF000419D4208BF964244F1FD0404F57D
:10079000407402D25B084FEA3202B61A65EB0305D9
:1007A0005B084FEA32024FF480104FF4002CB6EB96
:1007B000020E75EB030E22BFB61A754640EA0C0016
:1007C0005B084FEA3202B6EB020E75EB030E22BF56
:1007D000B61A754640EA5C005B084FEA3202B6EB97
:1007E000020E75EB030E22BFB61A754640EA9C0056
:1007F0005B084FEA3202B6EB020E75EB030E22BF26
:10080000B61A754640EADC0055EA060E18D04FEAE3
:10081000051545EA16754FEA06164FEAC30343EA83
:1008200052734FEAC2025FEA1C1CC0D111F4801F50
:100830000BD141EA00014FF000004FF0004CB6E749
:1008400011F4801F04BF01430020B4F1FD0C88BFE8
:10085000BCF5E06F3FF6AFAEB5EB030C04BFB6EBF3
:10086000020C5FEA500C50F1000041EB045170BDE6
:100870000EF0004E4EEA113114EB5C04C2BFD4EB13
:100880000C0541EA045170BD41F480114FF0000E97
:10089000013C90E645EA060E8DE60CEA135594EA13
:1008A0000C0F08BF95EA0C0F3FF43BAF94EA0C0F16
:1008B0000AD150EA01347FF434AF95EA0C0F7FF48B
:1008C00025AF104619462CE795EA0C0F06D152EADF
:1008D00003353FF4FDAE1046194622E750EA4106C3
:1008E00018BF52EA43067FF4C5AE50EA41047FF4D4
:1008F0000DAF52EA43057FF4EBAE12E74FF0FF3C39
:1009000006E000BF4FF0010C02E000BF4FF0010C09
:100910004DF804CD4FEA410C7FEA6C5C4FEA430C82
:1009200018BF7FEA6C5C1BD001B050EA410C0CBFD1
:1009300052EA430C91EA030F02BF90EA020F002033
:10094000704710F1000F91EA030F58BF994208BF9A
:1009500090422CBFD8176FEAE37040F00100704757
:100960004FEA410C7FEA6C5C02D150EA013C07D1AE
:100970004FEA430C7FEA6C5CD6D152EA033CD3D0F9
:100980005DF8040B704700BF8446104662468C46F3
:100990001946634600E000BF01B5FFF7B7FF002826
:1009A00048BF10F1000F01BD4DF808EDFFF7F4FF4F
:1009B0000CBF012000205DF808FB00BF4DF808EDDA
:1009C000FFF7EAFF34BF012000205DF808FB00BFFD
:1009D0004DF808EDFFF7E0FF94BF012000205DF81F
:1009E00008FB00BF4DF808EDFFF7CEFF94BF0120D4
:1009F00000205DF808FB00BF4DF808EDFFF7C4FFCD
:100A000034BF012000205DF808FB00BF4FEA410C15
:100A10007FEA6C5C02D150EA013C0AD14FEA430CF8
:100A20007FEA6C5C02D152EA033C02D14FF0000035
:100A300070474FF0010070474FEA410212F5001273
:100A400015D211D56FF47873B3EB625212D94FEA15
:100A5000C12343F0004343EA505311F0004F23FAFF
:100A600002F018BF404270474FF00000704750EA54
:100A7000013005D111F0004008BF6FF00040704711
:100A80004FF00000704700BF80F0004002E000BF60
:100A900081F0004142001FBF5FEA410392EA030F69
:100AA0007FEA226C7FEA236C6AD04FEA1262D2EBB3
:100AB0001363C1BFD218414048404140B8BF5B42B8
:100AC000192B88BF704710F0004F40F4000020F051
:100AD0007F4018BF404211F0004F41F4000121F067
:100AE0007F4118BF494292EA030F3FD0A2F10102B1
:100AF00041FA03FC10EB0C00C3F1200301FA03F1EF
:100B000000F0004302D5494260EB4000B0F5000F11
:100B100013D3B0F1807F06D340084FEA310102F1D0
:100B20000102FE2A51D2B1F1004F40EBC25008BF82
:100B300020F0010040EA03007047490040EB00004C
:100B4000013A28BFB0F5000FEDD2B0FA80FCACF14D
:100B5000080CB2EB0C0200FA0CF0AABF00EBC2507A
:100B600052421843BCBFD0401843704792F0000F68
:100B700081F4000106BF80F400000132013BB5E7BB
:100B80004FEA41037FEA226C18BF7FEA236C21D031
:100B900092EA030F04D092F0000F08BF0846704796
:100BA00090EA010F1CBF0020704712F07F4F04D164
:100BB000400028BF40F00040704712F100723CBF77
:100BC00000F50000704700F0004343F0FE4040F4A1
:100BD000000070477FEA226216BF08467FEA23635F
:100BE0000146420206BF5FEA412390EA010F40F44A
:100BF000800070474FF0000304E000BF10F0004396
:100C000048BF40425FEA000C08BF704743F096437C
:100C100001464FF000001CE050EA010208BF704797
:100C20004FF000030AE000BF50EA010208BF70471E
:100C300011F0004302D5404261EB41015FEA010C33
:100C400002BF84460146002043F0B64308BFA3F12B
:100C50008053A3F50003BCFA8CF2083AA3EBC2530D
:100C600010DB01FA02FC634400FA02FCC2F120022C
:100C7000BCF1004F20FA02F243EB020008BF20F063
:100C80000100704702F1200201FA02FCC2F12002C9
:100C900050EA4C0021FA02F243EB020008BF20EABE
:100CA000DC7070474FF0FF0C1CEAD0521EBF1CEAEC
:100CB000D15392EA0C0F93EA0C0F6FD01A4480EADA
:100CC000010C400218BF5FEA41211ED04FF00063C3
:100CD00043EA501043EA5111A0FB01310CF00040EF
:100CE000B1F5000F3EBF490041EAD3715B0040EA15
:100CF000010062F17F02FD2A1DD8B3F1004F40EBE5
:100D0000C25008BF20F00100704790F0000F0CF0B7
:100D1000004C08BF49024CEA502040EA51207F3A7B
:100D2000C2BFD2F1FF0340EAC250704740F4000056
:100D30004FF00003013A5DDC12F1190FDCBF00F047
:100D400000407047C2F10002410021FA02F1C2F1F5
:100D5000200200FA02FC5FEA310040F1000053EA91
:100D60004C0308BF20EADC70704792F0000F00F0DF
:100D7000004C02BF400010F4000F013AF9D040EAE5
:100D80000C0093F0000F01F0004C02BF490011F479
:100D9000000F013BF9D041EA0C018FE70CEAD15377
:100DA00092EA0C0F18BF93EA0C0F0AD030F0004CF7
:100DB00018BF31F0004CD8D180EA010000F00040AB
:100DC000704790F0000F17BF90F0004F084691F069
:100DD000000F91F0004F14D092EA0C0F01D14202A3
:100DE0000FD193EA0C0F03D14B0218BF084608D16C
:100DF00080EA010000F0004040F0FE4040F40000B6
:100E0000704740F0FE4040F4400070474FF0FF0C48
:100E10001CEAD0521EBF1CEAD15392EA0C0F93EA8F
:100E20000C0F69D0A2EB030280EA010C49024FEAE1
:100E3000402037D04FF0805343EA111143EA10139A
:100E40000CF000408B4238BF5B0042F17D024FF452
:100E5000000C8B4224BF5B1A40EA0C00B3EB510F2D
:100E600024BFA3EB510340EA5C00B3EB910F24BF16
:100E7000A3EB910340EA9C00B3EBD10F24BFA3EB9B
:100E8000D10340EADC001B0118BF5FEA1C1CE0D163
:100E9000FD2A3FF650AF8B4240EBC25008BF20F016
:100EA000010070470CF0004C4CEA50207F32C2BF6A
:100EB000D2F1FF0340EAC250704740F400004FF007
:100EC0000003013A37E792F0000F00F0004C02BF38
:100ED000400010F4000F013AF9D040EA0C0093F002
:100EE000000F01F0004C02BF490011F4000F013B5C
:100EF000F9D041EA0C0195E70CEAD15392EA0C0FC4
:100F000008D142027FF47DAF93EA0C0F7FF470AFFB
:100F1000084676E793EA0C0F04D14B023FF44CAF3E
:100F200008466EE730F0004C18BF31F0004CCAD1D3
:100F300030F000427FF45CAF31F000437FF43CAF0F
:100F40005FE700BF80B400AF064B1B88002B05D0C5
:100F5000044B1B88013B9AB2024B1A8000BFBD466E
:100F600080BC7047F401002080B400AF044B1B68C4
:100F7000034A43F00303136000BFBD4680BC7047C3
:100F800010E000E080B483B000AF78607B681B683D
:100F900003F00203022B0CBF01230023DBB218462F
:100FA0000C37BD4680BC704780B483B000AF78601A
:100FB0007B681B6803F00403042B0CBF0123002390
:100FC000DBB218460C37BD4680BC704780B483B096
:100FD00000AF78607B681B6803F00803082B0CBF28
:100FE00001230023DBB218460C37BD4680BC704796
:100FF00080B483B000AF78607B681B6803F0200387
:10100000202B0CBF01230023DBB218460C37BD4652
:1010100080BC704780B483B000AF78607B681B6889
:1010200003F08003802B0CBF01230023DBB21846A2
:101030000C37BD4680BC704780B485B000AF786087
:101040007B681B68FB60FB687B685B68FB60FB6818
:1010500000BF1437BD4680BC704780B485B000AF78
:1010600078607B681B68FB60FB687B685B68FB6083
:10107000FB6800BF1437BD4680BC704780B485B0A4
:1010800000AF78607B681B68FB60FB687B685B680F
:10109000FB60FB6800BF1437BD4680BC704780B45E
:1010A00089B000AF78607B680C33FB60FB6853E865
:1010B000003FBB60BB6823F08003FB617B680C339F
:1010C000FA69BA617B617969BA6941E800233B61D9
:1010D0003B69002BE7D100BF00BF2437BD4680BC71
:1010E000704780B483B000AF78607B68DB6803F042
:1010F0002003202B0CBF01230023DBB218460C3742
:10110000BD4680BC704780B483B000AF78607B6818
:10111000DB6803F08003802B0CBF01230023DBB2CC
:1011200018460C37BD4680BC704780B483B000AF12
:1011300078607B685B68DBB218460C37BD4680BCC4
:10114000704780B483B000AF78600B46FB70FA78CC
:101150007B685A6000BF0C37BD4680BC70470000FA
:1011600080B400AF064B1B68002B04D0044B1B68F7
:10117000013B034A136000BFBD4680BC704700BFFF
:101180008402002080B584B000AF78607B681B6A61
:101190001846FFF72DFF0346002B3DD07B681B6AE6
:1011A0001846FFF79EFF0346002B35D07B681B6A6D
:1011B0001846FFF7BAFF0346FB737B681B6A1846A5
:1011C000FFF704FF0346002B0FD17B681B6A18460C
:1011D000FFF7D8FE0346002B07D17B681B6A184631
:1011E000FFF7E2FE0346002B0FD07B681B6A184610
:1011F000FFF744FF7B681B6A1846FFF71DFF7B68FB
:101200001B6A1846FFF729FF33E07B68FA7B11461B
:10121000184602F00DF92CE07B681B6A1846FFF7B0
:10122000F9FE0346002B24D07B681B6A1846FFF7A3
:101230006AFF0346002B1CD07B681033184602F06F
:10124000D7F80346002B05D07B681B6A1846FFF7CA
:1012500026FF0DE07B681033184602F00FF90346B5
:10126000BB737B681B6ABA7B11461846FFF769FFA0
:1012700000BF1037BD4680BD80B400AF044B1B6873
:10128000034A43F00103136000BFBD4680BC7047B2
:101290000010024080B400AF064B1B6803F002034D
:1012A000022B0CBF01230023DBB21846BD4680BCD5
:1012B000704700BF0010024080B483B000AF786078
:1012C000064B1B6823F0F8027B68DB0003491343DD
:1012D0000B6000BF0C37BD4680BC70470010024059
:1012E00080B483B000AF7860064B5B6823F00302E4
:1012F00004497B6813434B6000BF0C37BD4680BC7C
:10130000704700BF0010024080B400AF034B5B6821
:1013100003F00C031846BD4680BC70470010024025
:1013200080B483B000AF7860064B5B6823F0F002B6
:1013300004497B6813434B6000BF0C37BD4680BC3B
:10134000704700BF0010024080B483B000AF7860E7
:10135000064B5B6823F4E06204497B6813434B60EF
:1013600000BF0C37BD4680BC704700BF0010024074
:1013700080B483B000AF7860064B5B6823F46052A2
:1013800004497B6813434B6000BF0C37BD4680BCEB
:10139000704700BF0010024080B400AF044B1B68D0
:1013A000034A43F08073136000BFBD4680BC7047A2
:1013B0000010024080B400AF064B1B6803F00073BE
:1013C000B3F1007F0CBF01230023DBB21846BD46FA
:1013D00080BC70470010024080B483B000AF7860DA
:1013E0003960084B5B6823F47C127B6803F440315E
:1013F0003B680B43034913434B6000BF0C37BD46AA
:1014000080BC70470010024080B485B000AF7860A7
:10141000084B9A6907497B6813438B61054B9A69AE
:101420007B681340FB60FB6800BF1437BD4680BC7F
:10143000704700BF0010024080B483B000AF7860F6
:10144000064B1B6823F0070204497B6813430B60BB
:1014500000BF0C37BD4680BC704700BF0020024073
:1014600080B400AF034B1B6803F007031846BD466A
:1014700080BC70470020024080B483B000AF786029
:1014800039603B681B0A9AB27B685A6100BF0C370F
:10149000BD4680BC7047000080B582B000AF786068
:1014A00006497868FFF7F4FA034605491846FFF73E
:1014B000ADFC034618460837BD4680BD00002040FD
:1014C000CDCCCC3D80B500AF00F038FB00F01EF86D
:1014D00000F090F800F060F8FFF746FD00F08FFA9A
:1014E0004FF40071002000F003FB0346054A13602F
:1014F000044B1B681846FFF7CFFF0346024A1360F0
:1015000000BFEDE7DC020020E002002080B500AF64
:101510000220FFF791FF00BFFFF7A2FF0346022B57
:10152000FAD11020FFF7C8FEFFF7A6FE00BFFFF7B5
:10153000B1FE0346012BFAD14FF450110020FFF702
:101540004BFFFFF729FF00BFFFF734FF0346012BD6
:10155000FAD10020FFF7E4FE4FF48060FFF7F4FEBD
:101560000020FFF705FF0220FFF7BAFE00BFFFF7DC
:10157000CBFE0346082BFAD1064801F019FF0F20D5
:1015800000F0F2FA0346002B01D000F075F800BF1E
:1015900080BD00BF0087930380B500AF124B134A94
:1015A0001A60114B124A5A600F4B00229A600E4B80
:1015B0000022DA600C4B4FF480421A610A4B002281
:1015C0005A61094B00229A61074B0022DA61064BEF
:1015D00000221A62044800F07BFD0346002B01D074
:1015E00000F04AF800BF80BD88020020005400408F
:1015F000A086010080B586B000AF3B1D00221A60B6
:101600005A609A60DA601A612020FFF7FDFE04201C
:10161000FFF7FAFE0820FFF7F7FE44F242211348D5
:10162000FFF72AFF12491348FFF726FF44F242232F
:101630007B600123BB600223FB6000233B613B1DF9
:1016400019460A4801F04EFE094B7B600123BB603E
:101650000223FB6000233B613B1D1946054801F056
:1016600041FE00BF1837BD4680BD00BF00080140E5
:1016700017071004000C014080B400AF72B600BF21
:1016800000BFFDE780B485B000AF154B9B69144ADD
:1016900043F001039361124B9B6903F00103BB60AC
:1016A000BB680F4BDB690E4A43F08053D3610C4B90
:1016B000DB6903F080537B607B680A4B5B68FB60EF
:1016C000FB6823F0E063FB60FB6843F00073FB60A2
:1016D000044AFB68536000BF1437BD4680BC7047A6
:1016E000001002400000014080B588B000AF786073
:1016F00007F1100300221A605A609A60DA607B6872
:101700001B68154A934223D1144B9B69134A43F03B
:1017100008039361114B9B6903F00803FB60FB68AE
:10172000C0233B6112237B610323FB6107F110039C
:1017300019460B4800F048FB084BDB69074A43F4A5
:101740000013D361054BDB6903F40013BB60BB6876
:1017500000BF2037BD4680BD00540040001002404D
:10176000000C014080B483B000AF78607B68DB6818
:1017700023F001027B68DA6000BF0C37BD4680BCF5
:10178000704780B500AFFFF7EBFC00BF80BD80B4B1
:1017900000AF00BFFDE780B400AF00BFFDE780B43D
:1017A00000AF00BFFDE780B400AF00BFFDE780B42D
:1017B00000AF00BFFDE780B400AF00BFBD4680BCF6
:1017C000704780B400AF00BFBD4680BC704780B496
:1017D00000AF00BFBD4680BC704780B500AFFFF7CB
:1017E000D0FFFFF7AFFB01F091FE00F0EDF900BF75
:1017F00080BD000080B500AF002001F063FE02480C
:10180000FFF7B0FF00BF80BD0004004080B500AF0F
:10181000034B1B681846FFF7B5FC00BF80BD00BF37
:101820000000002080B400AF01231846BD4680BCF4
:10183000704780B582B000AF7860396002F074FD07
:10184000034616221A604FF0FF3318460837BD468C
:1018500080BD80B582B000AF78604FF0FF3178680E
:10186000FFF7E7FF00BFFDE780B586B000AFF86087
:10187000B9607A6000237B610AE0AFF30080014623
:10188000BB685A1CBA60CAB21A707B6901337B61AB
:101890007A697B689A42F0DB7B6818461837BD4648
:1018A00080BD80B586B000AFF860B9607A60002373
:1018B0007B6109E0BB685A1CBA601B781846AFF31D
:1018C00000807B6901337B617A697B689A42F1DB36
:1018D0007B6818461837BD4680BD80B483B000AF22
:1018E00078604FF0FF3318460C37BD4680BC704718
:1018F00080B483B000AF786039603B684FF4005229
:101900005A60002318460C37BD4680BC704780B42F
:1019100083B000AF7860012318460C37BD4680BC09
:10192000704780B485B000AFF860B9607A6000237A
:1019300018461437BD4680BC7047000080B586B09D
:1019400000AF7860144A154BD31A7B617B693B6109
:10195000134B1B68002B02D1114B124A1A60104B1B
:101960001A687B6813443A699A4207D202F0DCFC99
:1019700003460C221A604FF0FF3309E0084B1B6846
:10198000FB60074B1A687B681344054A1360FB68C9
:1019900018461837BD4680BD0050002000040000E6
:1019A000E40200209804002080B400AF00BFBD46D0
:1019B00080BC7047FFF7F8FF0B480C490C4A002326
:1019C00002E0D458C4500433C4188C42F9D3094AF5
:1019D000094C002301E013600432A242FBD302F061
:1019E000A9FCFFF76FFD704700000020D801002020
:1019F000F0620008D801002098040020FEE780B4BF
:101A000000AF00BFBD4680BC7047000080B586B007
:101A100002AF03460A46FB711346BB8040F28313B4
:101A2000FB81FA89BB881343FB81FB79032B1FD809
:101A300001A252F823F000BF491A0008531A000807
:101A40005D1A0008671A0008FB8943F48043FB8194
:101A50000EE0FB8943F4A043FB8109E0FB8943F4DA
:101A6000C043FB8104E0FB8943F4E043FB8100BFFA
:101A7000FB896FEA43436FEA5343FB811A4B012210
:101A80001A70FB891B0A9BB2DAB2174B5A70FB899A
:101A9000DAB2154B9A700A2300930323124A90215D
:101AA000124800F059FC104B00221A700A230093D0
:101AB00001230D4A90210D4800F04EFC0A230093AB
:101AC0000223094A9021094800F044FD064B1B7887
:101AD0001B021AB2044B5B781BB213431BB29BB2BE
:101AE00018461037BD4680BDE8020020880200205D
:101AF00080B584B000AF03460A46FB711346BB8035
:101B0000BA88FB7911461846FFF780FF0346FB8130
:101B1000FB891846FFF772F8034607491846FFF796
:101B2000C1F803464FF08E411846FFF76FF90346A0
:101B300018461037BD4680BD6F12834080B500AF98
:101B4000084B1B68074A43F010031360032000F0A2
:101B500007F90F2000F008F8FFF794FD002318465E
:101B600080BD00BF0020024080B582B000AF786029
:101B7000124B1A68124B1B7819464FF47A73B3FB59
:101B8000F1F3B2FBF3F3184600F011F90346002B12
:101B900001D001230EE07B680F2B0AD80022796860
:101BA0004FF0FF3000F0E7F8064A7B68136000232F
:101BB00000E0012318460837BD4680BD0400002020
:101BC0000C0000200800002080B400AF054B1B78FB
:101BD0001A46054B1B681344034A136000BFBD46F9
:101BE00080BC70470C000020EC02002080B400AFE5
:101BF000024B1B681846BD4680BC7047EC020020B3
:101C000080B485B000AF78607B6803F00703FB60A9
:101C10000C4BDB68BB60BA684FF6FF031340BB6038
:101C2000FB681A02BB68134343F0BF6343F40033FD
:101C3000BB60044ABB68D36000BF1437BD4680BC9C
:101C4000704700BF00ED00E080B400AF044BDB68DC
:101C50001B0A03F007031846BD4680BC704700BF4F
:101C600000ED00E080B483B000AF03463960FB7143
:101C700097F90730002B0ADB3B68DAB20C4997F979
:101C800007301201D2B20B4483F800230AE03B680C
:101C9000DAB20849FB7903F00F03043B1201D2B218
:101CA0000B441A7600BF0C37BD4680BC704700BF9E
:101CB00000E100E000ED00E080B489B000AFF86022
:101CC000B9607A60FB6803F00703FB61FB69C3F14D
:101CD0000703042B28BF0423BB61FB690433062BD5
:101CE00002D9FB69033B00E000237B614FF0FF3228
:101CF000BB6902FA03F3DA43BB681A407B699A4076
:101D00004FF0FF317B6901FA03F3D9437B680B4045
:101D1000134318462437BD4680BC704780B582B057
:101D200000AF78607B68013BB3F1807F01D3012372
:101D30000FE00A4A7B68013B53600F214FF0FF30F0
:101D4000FFF790FF054B00229A60044B07221A60B0
:101D5000002318460837BD4680BD00BF10E000E0F4
:101D600080B582B000AF78607868FFF749FF00BFA8
:101D70000837BD4680BD80B586B000AF0346B96068
:101D80007A60FB7300237B61FFF75EFF78617A68FE
:101D9000B9687869FFF790FF024697F90F3011464E
:101DA0001846FFF75FFF00BF1837BD4680BD80B5FE
:101DB00082B000AF78607868FFF7B0FF034618463E
:101DC0000837BD4680BD000080B48BB000AF78609E
:101DD000396000237B6200233B6269E101227B6A58
:101DE00002FA03F3FB613B681B68FA691340BB61AD
:101DF000BA69FB699A4240F058813B685B689A4A2D
:101E000093425ED0984A934275D8984A934258D0EC
:101E1000964A93426FD8964A934252D0944A93423C
:101E200069D8944A93424CD0924A934263D8924ADA
:101E3000934246D0904A93425DD8122B2AD8122B57
:101E400059D801A252F823F0C31E00089D1E0008B5
:101E5000AF1E0008F11E0008F71E0008F71E00085C
:101E6000F71E0008F71E0008F71E0008F71E0008FE
:101E7000F71E0008F71E0008F71E0008F71E0008EE
:101E8000F71E0008F71E0008F71E0008A51E000830
:101E9000B91E0008794A934213D02CE03B68DB68F6
:101EA0003B6229E03B68DB6804333B6224E03B682B
:101EB000DB6808333B621FE03B68DB680C333B6246
:101EC0001AE03B689B68002B02D104233B6213E0BD
:101ED0003B689B68012B05D108233B627B68FA694C
:101EE0001A6109E008233B627B68FA695A6103E0E2
:101EF00000233B6200E000BFBB69FF2B01D87B6879
:101F000001E07B6804337B61BB69FF2B02D87B6AED
:101F10009B0002E07B6A083B9B003B617B691A687F
:101F20000F213B6901FA03F3DB431A40396A3B692D
:101F300001FA03F31A437B691A603B685B6803F09C
:101F40008053002B00F0B1804D4B9B694C4A43F00D
:101F5000010393614A4B9B6903F00103BB60BB68BB
:101F6000484A7B6A9B08023352F82330FB607B6A45
:101F700003F003039B000F2202FA03F3DB43FA682A
:101F80001340FB607B68404A934213D07B683F4A12
:101F900093420DD07B683E4A934207D07B683D4A0E
:101FA000934201D1032306E0042304E0022302E06C
:101FB000012300E000237A6A02F0030292009340BA
:101FC000FA681343FB602F497B6A9B080233FA6867
:101FD00041F823203B685B6803F48013002B06D094
:101FE0002D4B9A682C49BB6913438B6006E02A4B42
:101FF0009A68BB69DB43284913408B603B685B6888
:1020000003F40013002B06D0234BDA682249BB6986
:102010001343CB6006E0204BDA68BB69DB431E4903
:102020001340CB603B685B6803F40033002B06D0A1
:10203000194B5A681849BB6913434B6006E0164BAD
:102040005A68BB69DB43144913404B603B685B68CB
:1020500003F48033002B21D00F4B1A680E49BB6963
:1020600013430B6021E000BF00003210000031106C
:1020700000002210000021100000121000001110BA
:10208000001002400000014000080140000C014027
:102090000010014000140140000401400B4B1A687D
:1020A000BB69DB43094913400B607B6A01337B62E8
:1020B0003B681A687B6A22FA03F3002B7FF48EAE2A
:1020C00000BF00BF2C37BD4680BC704700040140F4
:1020D00080B584B000AF78607B68002B01D101230C
:1020E0002BE17B6893F83D30DBB2002B06D17B6897
:1020F000002283F83C207868FFF7F6FA7B682422F8
:1021000083F83D207B681B681A687B681B6822F097
:1021100001021A607B681B681A687B681B6842F4BE
:1021200000421A607B681B681A687B681B6822F48F
:1021300000421A6001F00AF8F8607B685B68814A27
:10214000934207D8FB68804A934294BF012300233F
:10215000DBB206E0FB687D4A934294BF0123002373
:10216000DBB2002B01D00123E7E0FB68784AA2FB39
:1021700003239B0CBB607B681B685B6823F03F01FB
:102180007B681B68BA680A435A607B681B681B6AD5
:1021900023F03F017B685B686A4A934202D8BB68C0
:1021A000013309E0BB684FF4967202FB03F3694AFE
:1021B000A2FB03239B0901337A6812680B43136265
:1021C0007B681B68DB6923F44F4222F0FF027B68C7
:1021D0005B685C498B4219D8FB68591E7B685B6859
:1021E0005B00B1FBF3F3591C40F6FC730B40002B72
:1021F0000AD0FB68591E7B685B685B00B1FBF3F398
:102200000133C3F30B0351E004234FE07B689B6869
:10221000002B11D1FB68581E7B6859680B465B0088
:102220000B44B0FBF3F30133C3F30B03002B0CBFE0
:1022300001230023DBB212E0FB68581E7B6859685B
:102240000B469B000B4499000B44B0FBF3F30133A6
:10225000C3F30B03002B0CBF01230023DBB2002BC5
:1022600001D0012322E07B689B68002B0ED1FB6824
:10227000581E7B6859680B465B000B44B0FBF3F3B8
:102280000133C3F30B0343F400430FE0FB68581E14
:102290007B6859680B469B000B4499000B44B0FBCC
:1022A000F3F30133C3F30B0343F440437968096844
:1022B0001343CB617B681B681B6823F0C0017B68FC
:1022C000DA697B681B6A1A437B681B680A431A60D9
:1022D0007B681B689B6823F4034323F0FF037A6841
:1022E00011697A68D26811437A6812680B43936067
:1022F0007B681B68DB6823F0FF017B685A697B6899
:102300009B691A437B681B680A43DA607B681B6819
:102310001A687B681B6842F001021A607B68002221
:102320001A647B68202283F83D207B6800221A63B0
:102330007B68002283F83E20002318461037BD46F4
:1023400080BD00BFA08601007F841E00FF083D0005
:1023500083DE1B43D34D621080B588B002AFF860B6
:102360007A601A460B467B8113463B81FFF73EFCA1
:102370007861FB6893F83D30DBB2202B40F0E080C1
:102380007B690093192301227049F86800F09EFCD4
:102390000346002B01D00223D3E0FB6893F83C30C6
:1023A000012B01D10223CCE0FB68012283F83C2001
:1023B000FB681B681B6803F00103012B07D0FB6857
:1023C0001B681A68FB681B6842F001021A60FB6810
:1023D0001B681A68FB681B6822F400621A60FB68BD
:1023E000212283F83D20FB68102283F83E20FB6801
:1023F00000221A64FB687A685A62FB683A895A8537
:10240000FB685B8D9AB2FB681A85FB68504ADA62FA
:1024100079897B693A6AF86800F008FB0346002B6B
:1024200001D001238DE000233B61FB681B685B69E1
:102430003B61FB681B689B693B613B6966E07A69AD
:10244000396AF86800F05CFD0346002B0DD0FB688C
:102450001B6C042B07D1FB681B681A68FB681B68A0
:1024600042F400721A6001236BE0FB685B6A1A7821
:10247000FB681B681A61FB685B6A5A1CFB685A623E
:10248000FB685B8D9BB2013B9AB2FB685A85FB6887
:102490001B8D013B9AB2FB681A85FB681B685B6960
:1024A00003F00403042B1BD1FB681B8D002B17D0FA
:1024B000FB685B6A1A78FB681B681A61FB685B6AD9
:1024C0005A1CFB685A62FB685B8D9BB2013B9AB257
:1024D000FB685A85FB681B8D013B9AB2FB681A8525
:1024E0007A69396AF86800F053FD0346002B0DD075
:1024F000FB681B6C042B07D1FB681B681A68FB6820
:102500001B6842F400721A6001231AE0FB681B8DFD
:10251000002B94D1FB681B681A68FB681B6842F4A7
:1025200000721A60FB68202283F83D20FB680022BD
:1025300083F83E20FB68002283F83C20002300E063
:10254000022318461837BD4680BD00BF02001000A8
:102550000000FFFF80B58CB002AFF8607A601A46C9
:102560000B467B8113463B8100233B62FFF73EFB1A
:102570007862FB6893F83D30DBB2202B40F04B8251
:102580007B6A0093192301227F49F86800F09EFBC3
:102590000346002B01D002233EE2FB6893F83C3057
:1025A000012B01D1022337E2FB68012283F83C2092
:1025B000FB681B681B6803F00103012B07D0FB6855
:1025C0001B681A68FB681B6842F001021A60FB680E
:1025D0001B681A68FB681B6822F400621A60FB68BB
:1025E000222283F83D20FB68102283F83E20FB68FE
:1025F00000221A64FB687A685A62FB683A895A8535
:10260000FB685B8D9AB2FB681A85FB685F4ADA62E9
:1026100079897B6A3A6BF86800F08AFA0346002BE6
:1026200001D00123F8E1FB681B8D002B13D100239F
:10263000FB61FB681B685B69FB61FB681B689B694E
:10264000FB61FB69FB681B681A68FB681B6842F446
:1026500000721A60CCE1FB681B8D012B1ED1FB6858
:102660001B681A68FB681B6822F480621A6072B6E5
:1026700000BF0023BB61FB681B685B69BB61FB6833
:102680001B689B69BB61BB69FB681B681A68FB68B8
:102690001B6842F400721A6062B635E0FB681B8D5D
:1026A000022B1ED1FB681B681A68FB681B6842F48A
:1026B00000621A6072B600BF00237B61FB681B6872
:1026C0005B697B61FB681B689B697B617B69FB685D
:1026D0001B681A68FB681B6822F480621A6062B685
:1026E00012E0FB681B681A68FB681B6842F4806292
:1026F0001A6000233B61FB681B685B693B61FB68F8
:102700001B689B693B613B6972E1FB681B8D032B76
:1027100000F21F81FB681B8D012B23D17A6A396B74
:10272000F86800F07DFC0346002B01D0012373E123
:10273000FB681B681A69FB685B6AD2B21A70FB6897
:102740005B6A5A1CFB685A62FB681B8D013B9AB29C
:10275000FB681A85FB685B8D9BB2013B9AB2FB68F4
:102760005A8545E1FB681B8D022B52D17B6A009391
:102770003B6B00220649F86800F0A8FA0346002BDC
:1027800008D0012348E100BF020010000000FFFF55
:102790000400010072B600BFFB681B681A68FB6882
:1027A0001B6842F400721A60FB681B681A69FB68B8
:1027B0005B6AD2B21A70FB685B6A5A1CFB685A6289
:1027C000FB681B8D013B9AB2FB681A85FB685B8D29
:1027D0009BB2013B9AB2FB685A8562B600BFFB68A8
:1027E0001B681A69FB685B6AD2B21A70FB685B6A85
:1027F0005A1CFB685A62FB681B8D013B9AB2FB684E
:102800001A85FB685B8D9BB2013B9AB2FB685A85C7
:10281000EEE07B6A00933B6B00228149F86800F090
:1028200055FA0346002B01D00123F5E0FB681B6835
:102830001A68FB681B6822F480621A6072B600BFD7
:10284000FB681B681A69FB685B6AD2B21A70FB6886
:102850005B6A5A1CFB685A62FB681B8D013B9AB28B
:10286000FB681A85FB685B8D9BB2013B9AB2FB68E3
:102870005A856C4B1B68DB086B4AA2FB03231A0AC0
:1028800013469B001344DA00D31A3B623B6A013BB8
:102890003B623B6A002B18D1FB6800221A63FB687D
:1028A000202283F83D20FB68002283F83E20FB684D
:1028B0001B6C43F02002FB681A6462B600BFFB6821
:1028C000002283F83C200123A6E0FB681B685B69BB
:1028D00003F00403042BD9D1FB681B681A68FB685A
:1028E0001B6842F400721A60FB681B681A69FB6877
:1028F0005B6AD2B21A70FB685B6A5A1CFB685A6248
:10290000FB681B8D013B9AB2FB681A85FB685B8DE7
:102910009BB2013B9AB2FB685A8562B600BFFB6866
:102920001B681A69FB685B6AD2B21A70FB685B6A43
:102930005A1CFB685A62FB681B8D013B9AB2FB680C
:102940001A85FB685B8D9BB2013B9AB2FB685A8586
:102950004EE07A6A396BF86800F062FB0346002BA0
:1029600001D0012358E0FB681B681A69FB685B6AA9
:10297000D2B21A70FB685B6A5A1CFB685A62FB6829
:102980001B8D013B9AB2FB681A85FB685B8D9BB27D
:10299000013B9AB2FB685A85FB681B685B6903F0D0
:1029A0000403042B24D1FB681B8D032B07D1FB6888
:1029B0001B681A68FB681B6822F480621A60FB6857
:1029C0001B681A69FB685B6AD2B21A70FB685B6AA3
:1029D0005A1CFB685A62FB681B8D013B9AB2FB686C
:1029E0001A85FB685B8D9BB2013B9AB2FB685A85E6
:1029F000FB681B8D002B7FF488AEFB68202283F8D8
:102A00003D20FB68002283F83E20FB68002283F80B
:102A10003C20002300E0022318462837BD4680BD35
:102A2000040001000400002089B5F81480B588B0C6
:102A300002AFF8607A603B600B467B81FB68DB6A23
:102A40007B617B69082B06D07B69012B03D07B69F6
:102A500013F5803F08D1FB681B681A68FB681B6888
:102A600042F480721A600BE0FB681B6B122B07D1DB
:102A7000FB681B681A68FB681B6842F480721A6066
:102A80003B6800937B6800224FF00111F86800F06A
:102A90001DF90346002B0DD0FB681B681B6803F46F
:102AA0008073B3F5807F03D1FB684FF400721A6422
:102AB000032335E0FB681B69B3F5804F08D17B89A0
:102AC000DBB21A46FB681B6802F0FE021A611BE0CB
:102AD0007B89DB11DBB203F00603DBB263F00F038B
:102AE000DAB2FB681B681A613B687A680E49F868BD
:102AF00000F066F90346002B01D0012310E07B892A
:102B0000DAB2FB681B681A613B687A680749F868A3
:102B100000F056F90346002B01D0012300E000230A
:102B200018461837BD4680BD0800010002000100AC
:102B300080B588B002AFF8607A603B600B467B815D
:102B4000FB68DB6A7B61FB681B681A68FB681B68B3
:102B500042F480621A607B69082B06D07B69012BE6
:102B600003D07B6913F5803F08D1FB681B681A68A6
:102B7000FB681B6842F480721A600BE0FB681B6BF9
:102B8000112B07D1FB681B681A68FB681B6842F4AD
:102B900080721A603B6800937B6800224FF001113D
:102BA000F86800F093F80346002B0DD0FB681B6813
:102BB0001B6803F48073B3F5807F03D1FB684FF487
:102BC00000721A64032379E0FB681B69B3F5804F38
:102BD00008D17B89DBB243F00103DAB2FB681B68E2
:102BE0001A615FE07B89DB11DBB203F00603DBB225
:102BF00063F00F03DAB2FB681B681A613B687A68FE
:102C00003049F86800F0DCF80346002B01D00123BE
:102C100054E07B89DAB2FB681B681A613B687A680A
:102C20002949F86800F0CCF80346002B01D00123B5
:102C300044E000233B61FB681B685B693B61FB6808
:102C40001B689B693B613B69FB681B681A68FB68F2
:102C50001B6842F480721A603B6800937B68002214
:102C60004FF00111F86800F031F80346002B0DD049
:102C7000FB681B681B6803F48073B3F5807F03D186
:102C8000FB684FF400721A64032317E07B89DB11A1
:102C9000DBB203F00603DBB263F00E03DAB2FB68CB
:102CA0001B681A613B687A680749F86800F088F881
:102CB0000346002B01D0012300E0002318461837FB
:102CC000BD4680BD080001000200010080B584B04F
:102CD00000AFF860B9603B601346FB7148E03B68A9
:102CE000B3F1FF3F44D0FEF781FF0246BB69D31A20
:102CF0003A689A4202D33B68002B39D1BB681B0C5F
:102D0000DBB2012B0DD1FB681B685B69DA43BB6842
:102D100013409BB2002B0CBF01230023DBB21A46E9
:102D20000CE0FB681B689B69DA43BB6813409BB2ED
:102D3000002B0CBF01230023DBB21A46FB799A4219
:102D400016D1FB6800221A63FB68202283F83D201D
:102D5000FB68002283F83E20FB681B6C43F02002D6
:102D6000FB681A64FB68002283F83C20012323E0FF
:102D7000BB681B0CDBB2012B0DD1FB681B685B69C8
:102D8000DA43BB6813409BB2002B0CBF0123002326
:102D9000DBB21A460CE0FB681B689B69DA43BB6830
:102DA00013409BB2002B0CBF01230023DBB21A4659
:102DB000FB799A4293D0002318461037BD4680BD58
:102DC00080B584B000AFF860B9607A603B6071E0B4
:102DD000FB681B685B6903F48063B3F5806F23D1E4
:102DE000FB681B681A68FB681B6842F400721A6073
:102DF000FB681B686FF480625A61FB6800221A63EB
:102E0000FB68202283F83D20FB68002283F83E20E7
:102E1000FB681B6C43F00402FB681A64FB68002229
:102E200083F83C20012367E07B68B3F1FF3F41D08A
:102E3000FEF7DCFE02463B68D31A7A689A4202D358
:102E40007B68002B36D1BB681B0CDBB2012B0CD18D
:102E5000FB681B685B69DA43BB6813409BB2002BBD
:102E600014BF01230023DBB20BE0FB681B689B69E6
:102E7000DA43BB6813409BB2002B14BF012300232D
:102E8000DBB2002B16D0FB6800221A63FB682022FD
:102E900083F83D20FB68002283F83E20FB681B6C12
:102EA00043F02002FB681A64FB68002283F83C2090
:102EB000012321E0BB681B0CDBB2012B0CD1FB68AA
:102EC0001B685B69DA43BB6813409BB2002B14BFDD
:102ED00001230023DBB20BE0FB681B689B69DA432C
:102EE000BB6813409BB2002B14BF01230023DBB24D
:102EF000002B7FF46DAF002318461037BD4680BD10
:102F000080B584B000AFF860B9607A6034E0F868EA
:102F100000F0E3F80346002B01D0012334E0BB6846
:102F2000B3F1FF3F28D0FEF761FE02467B68D31A5B
:102F3000BA689A4202D3BB68002B1DD1FB681B689C
:102F40005B6903F08003802B16D0FB6800221A63B4
:102F5000FB68202283F83D20FB68002283F83E2096
:102F6000FB681B6C43F02002FB681A64FB680022BC
:102F700083F83C20012307E0FB681B685B6903F0D2
:102F80008003802BC3D1002318461037BD4680BD77
:102F900080B584B000AFF860B9607A6034E0F8685A
:102FA00000F09BF80346002B01D0012334E0BB68FE
:102FB000B3F1FF3F28D0FEF719FE02467B68D31A13
:102FC000BA689A4202D3BB68002B1DD1FB681B680C
:102FD0005B6903F00403042B16D0FB6800221A631C
:102FE000FB68202283F83D20FB68002283F83E2006
:102FF000FB681B6C43F02002FB681A64FB6800222C
:1030000083F83C20012307E0FB681B685B6903F041
:103010000403042BC3D1002318461037BD4680BDDE
:1030200080B584B000AFF860B9607A6049E0FB68B1
:103030001B685B6903F01003102B19D1FB681B6838
:103040006FF010025A61FB6800221A63FB682022AD
:1030500083F83D20FB68002283F83E20FB681A6C51
:10306000FB681A64FB68002283F83C20012330E0EF
:10307000FEF7BCFD02467B68D31ABA689A4202D3B7
:10308000BB68002B1DD1FB681B685B6903F0400324
:10309000402B16D0FB6800221A63FB68202283F8BD
:1030A0003D20FB68002283F83E20FB681B6C43F048
:1030B0002002FB681A64FB68002283F83C2001238D
:1030C00007E0FB681B685B6903F04003402BAED14F
:1030D000002318461037BD4680BD80B483B000AFD2
:1030E00078607B681B685B6903F48063B3F5806F6D
:1030F0001BD17B681B686FF480625A617B68002279
:103100001A637B68202283F83D207B68002283F8C5
:103110003E207B681B6C43F004027B681A647B686A
:10312000002283F83C20012300E0002318460C37DE
:10313000BD4680BC7047000080B400AF024B1B68E6
:103140001846BD4680BC70470400002080B500AF23
:10315000FFF7F2FF0246054B5B681B0A03F007030B
:103160000349CB5C22FA03F3184680BD00100240ED
:10317000685F000890B488B000AFF860B9607A600A
:10318000FB681A46BB681B0E13441C462268BB68CA
:103190007B617B6993FAA3F33B613B69B3FA83F3E9
:1031A000DBB29B000F2101FA03F3DB431A40BB683B
:1031B000FB61FB6993FAA3F3BB61BB69B3FA83F3C9
:1031C000DBB29B00796801FA03F31343236000BF6D
:1031D0002037BD4690BC704790B488B000AFF8600F
:1031E000B9607A60FB681A46BB681B0E13441C4624
:1031F0002268BB687B617B6993FAA3F33B613B69FF
:10320000B3FA83F3DBB29B00032101FA03F3DB4340
:103210001A40BB68FB61FB6993FAA3F3BB61BB690E
:10322000B3FA83F3DBB29B00796801FA03F313432B
:10323000236000BF2037BD4690BC704790B488B073
:1032400000AFF860B9607A60FB681A46BB681B0E75
:1032500013441C462268BB687B617B6993FAA3F325
:103260003B613B69B3FA83F3DBB29B00042101FAB3
:1032700003F3DB431A40BB68FB61FB6993FAA3F3DA
:10328000BB61BB69B3FA83F3DBB29B00796801FAD7
:1032900003F31343236000BF2037BD4690BC704743
:1032A00080B487B000AFF860B9607A60FB68DA6814
:1032B000BB681B0ADB431A40BB681B0A7B617B6946
:1032C00093FAA3F33B613B69B3FA83F3DBB219468C
:1032D0007B688B401A43FB68DA6000BF1C37BD4631
:1032E00080BC704780B588B000AF786039603B68BB
:1032F0001B681B021B0C7B617B693B613B6993FA7A
:10330000A3F3FB60FB68B3FA83F3DBB2FB6144E039
:103310000122FB699A407B691340002B3AD0FB697C
:10332000072B06D840F20112FB6902FA03F3BB61D6
:1033300008E0FB69083B4FF0011202FA03F343F087
:103340008063BB613B685B68082B06D13B681B69E7
:103350001A46B9697868FFF7A3FF3B685B681A46AD
:10336000B9697868FFF706FF3B685B68012B03D0FB
:103370003B685B68092B0DD13B689B681A46B969AD
:103380007868FFF729FF3B68DB681A46B9697868F7
:10339000FFF754FFFB690133FB617A69FB6922FA8D
:1033A00003F3002BB4D1002318462037BD4680BD5F
:1033B00080B483B000AF7860034A7B68136000BFBD
:1033C0000C37BD4680BC70470400002080B483B039
:1033D00000AF78607B6800225A607B6800229A60A8
:1033E0007B680022DA6000BF0C37BD4680BC7047A6
:1033F00080B483B000AF78607B68DB68002B0CBFC3
:1034000001230023DBB218460C37BD4680BC704751
:1034100080B483B000AF78607B68DB68802B0CBF22
:1034200001230023DBB218460C37BD4680BC704731
:1034300080B582B000AF78600B46FB707868FFF70C
:10344000E7FF0346002B02D07868FFF7BFFF7B68D9
:103450001A687B685B681344FA781A707B685B684B
:10346000013303F07F027B685A607B68DB685A1C7B
:103470007B68DA6000BF0837BD4680BD90B583B079
:1034800000AF78607868FFF7B3FF0346002B01D0E8
:10349000FF2313E07B681A687B689B6813441B78E2
:1034A000DCB27B689B68013303F07F027B689A6023
:1034B0007B68DB685A1E7B68DA60234618460C3747
:1034C000BD4690BD80B485B000AF0346FB710123BB
:1034D000FB730C4B1B78FA799A420CD2FA7913469B
:1034E0005B0013449B00084A1344BB60BB68012285
:1034F0005A800023FB73FB7B18461437BD4680BC03
:10350000704700BF20030020F002002080B485B087
:1035100000AF424B1B680133404A13600023FB732A
:1035200025E0FA7B13465B0013449B003C4A13449E
:103530007B607B689B681B78012B15D17B681B78AF
:10354000012B11D17B685B685A1C7B685A607B68D1
:103550005B687A6892685288934205D37B68002240
:103560005A607B6801225A80FB7B0133FB732D4B31
:103570001B78FA7B9A42D4D30023BB732BE0BA7B2F
:1035800013465B0013449B00274A1344BB60BB688F
:103590001B78012B1CD1BB685B685A1CBB685A6046
:1035A000BB685B68BA6892685288934210D3BB6864
:1035B00001225A80BB6800225A60BB689B681B7856
:1035C000022B0CBF01230023DBB21A46BB681A7022
:1035D000BB7B0133BB73154B1B78BA7B9A42CED3AE
:1035E0000023BB7310E0BB7B114A52F82330002B41
:1035F00007D0BB7B0E4A52F82320013A0C4941F810
:103600002320BB7B0133BB73BB7B012BEBD900BFFA
:1036100000BF1437BD4680BC704700BF4003002088
:10362000F002002020030020240300203C0300209F
:1036300044030020024B0146186800F025B800BF83
:103640008801002070B50F4E0C463168054611B94F
:1036500000F048FE30602146284600F043FE431C3F
:1036600003D14FF0FF34204670BDC41C24F0030486
:10367000A042F8D0211A284600F034FE0130F2D1E1
:10368000EFE700BF4C0300202DE9F843CD1C25F0E7
:10369000030508350C2D38BF0C25002D064601DB2F
:1036A000A94204D90C2333600020BDE8F883DFF879
:1036B000D48000F069F8D8F800301C4644BB294695
:1036C0003046FFF7BFFF431C044658D1D8F80040EE
:1036D0002746002F43D1002C4BD023683946304673
:1036E00004EB030900F0FEFD814542D1216830461C
:1036F0006D1A2946FFF7A6FF01303AD023682B4404
:103700002360D8F800305A6862BBC8F800700FE038
:103710002268521B20D40B2A17D96119A3422560B5
:1037200018BF5960636808BFC8F8001062514B6049
:10373000304600F02FF804F10B00231D20F00700A5
:10374000C21A1CBF1B1AA350AFE76268A3420CBF8A
:10375000C8F800205A60EBE723466468AEE73C46B1
:103760007F68B6E71A465B68A342FBD1002353602B
:10377000DEE70C233046336000F00CF894E7056078
:10378000D6E700BF50030020014800F0F8BD00BF9D
:1037900094040020014800F0F3BD00BF9404002011
:1037A000002B2DE9F0471D46BBBF03F100431D462A
:1037B00000232D2388B01446B8BF1446129A109ED9
:1037C0001370149BDDF84CA023F02008B8F1460FCD
:1037D00005D0B8F1450F00D10136022300E00323E4
:1037E00007AA049206AACDE902A2CDE90036224634
:1037F0002B4600F06DFEB8F1470F074619D1119B1B
:10380000DB070ED500EB06090022002320462946DF
:10381000FDF7CAF808B1CDF81C903022079B4B4544
:103820001ED33846079B159ADB1B136008B0BDE812
:10383000F087B8F1460F00EB0609E5D10378302B8D
:103840000AD10022002320462946FDF7ADF818B919
:10385000C6F10106CAF80060DAF800309944D3E7EF
:10386000591C07911A70D9E7F7B50029B6BF2D2367
:103870002B23494209290270437029DD0DF107030A
:103880001D460A27B1FBF7F61A4607FB161430341B
:1038900002F8014C0C46632C314603F1FF33F1DC96
:1038A0003031941E03F8011C2346411CAB420AD35D
:1038B0000DF109039B1AAC4288BF00230233034475
:1038C000181A03B0F0BD13F8016B01F8016FEDE7B2
:1038D000302330318370C170031DF1E72DE9F04FC3
:1038E00091B00C46DDF8688016461F46054600F08C
:1038F000C1FC036818460893FCF72AFC00230E93CA
:10390000D8F800300990073323F0070303F10802C9
:1039100094F818A0D4F800B0C8F80020D3E90089C2
:1039200029F000430B93CDF828804FF0FF32DDE9FA
:103930000A01C4E912899C4BFDF768F870BBDDE908
:103940000A014FF0FF32984BFDF742F830BB0022DE
:10395000002340464946FDF731F810B12D2384F885
:103960004330924A924BBAF1470F94BF9046984623
:1039700003234FF0000923612BF004032360334637
:103980002146284600970FAA00F0D4F9013040F0F4
:1039900090804FF0FF3011B0BDE8F08F42464B46AB
:1039A00040464946FDF732F848B14B46002BB8BFB8
:1039B0002D23804AB8BF84F843307F4BD3E7636838
:1039C0000AF0DF015A1C3FD10623636000224BF44A
:1039D0008063236006920EAACDE904A20DAA039289
:1039E0000DF13302CDE90132636842460093284667
:1039F0004B460A91FFF7D4FE0A99804647290D9954
:103A000028D1C81C02DB6368994240DDAAF1020A92
:103A10005FFA8AFA5246013904F150000D91FFF71E
:103A200023FF0E9A81461318012A236102DC2268C3
:103A3000D20701D5013323619DF83330002B9ED08E
:103A40002D2384F843309AE74729BFD1002BBDD1FD
:103A50000123BAE7BAF1650FDCD9BAF1660F18D1C4
:103A6000002963680BDD216113B92268D00702D5F4
:103A700001330B4423614FF00009A165DCE713B962
:103A80002268D20701D50233F4E70123F2E74FF0B1
:103A9000670A0E9B994205DB23682161D807EAD5A6
:103AA0004B1CE7E70029CCBF0122C1F102021344FD
:103AB000E0E723685A0507D4236942463146284681
:103AC000B84701302BD164E7BAF1650F40F2DC80D2
:103AD000D4E9120100220023FCF766FF002833D04E
:103AE000012331462846354AB84701303FF451AFEB
:103AF000DDE90D38434502DB2368D8070FD5DDE942
:103B0000082331462846B84701303FF442AF4FF012
:103B1000000908F1FF3804F11A0AC84509DC2368D6
:103B20009B0700F10281E0680F9B9842B8BF1846DE
:103B300031E70123524631462846B84701303FF469
:103B400028AF09F10109E8E70D9B002B38DC0123C0
:103B500031462846194AB84701303FF41AAFDDE92B
:103B60000D3959EA030302D12368D907D7D5DDE916
:103B7000082331462846B84701303FF40AAF4FF0DA
:103B8000000A04F11A0B0D9B5B42534501DC4B46C6
:103B900093E701235A4631462846B84701303FF49F
:103BA000F8AE0AF1010AEEE7FFFFEF7F705F000851
:103BB000745F0008785F00087C5F0008805F000881
:103BC000A36DDDF838A05345A8BF5346002B994696
:103BD00036DC4FF0000B29EAE97904F11A02A36DF3
:103BE0000A93A3EB09035B4531DC0D9B9A453ADC54
:103BF0002368DA0737D40D9BAAEB03090A9BAAEBCB
:103C000003039945A8BF9946B9F1000F33DC4FF083
:103C1000000829EAE97904F11A0B0D9BAAEB0303CA
:103C2000A3EB090343457FF77AAF01235A46314698
:103C30002846B84701303FF4ACAE08F10108ECE784
:103C4000424631462846B8470130C2D1A1E6012399
:103C5000314628460A92B84701303FF49AAE0A9A94
:103C60000BF1010BBBE73146DDE908232846B847D5
:103C70000130C0D18DE60A9A4B463146284642446F
:103C8000B8470130C3D184E6DDF838A0BAF1010F9E
:103C900001DCDB0736D50123424631462846B847CA
:103CA00001303FF476AEDDE9082331462846B847B7
:103CB00001303FF46EAED4E91201002200230AF174
:103CC000FF3AFCF771FEC0B9534608F101023146D4
:103CD0002846B84701300CD15BE601235A463146ED
:103CE0002846B84701303FF454AE08F10108D045EA
:103CF000F3DB4B4604F15002E0E64FF0000804F11C
:103D00001A0BF4E701234246E1E701234A46314614
:103D10002846B84701303FF43CAE08F10108E3689B
:103D20000F995B1A4345F0DCFDE64FF0000804F103
:103D30001909F4E72DE9F047164698468A680B6999
:103D400007469342B8BF1346336091F843200C46B0
:103D5000DDF820900AB1013333602368990642BF31
:103D6000336802333360256815F0060506D104F187
:103D7000190AE36832689B1AAB422BDC94F8433093
:103D80002268003B18BF0123920630D441463846D2
:103D900004F14302C847013023D02368226903F0AD
:103DA0000603042B14BF002533684FF0000608BF3C
:103DB000E56804F11A0408BFED1A54F8123C08BF74
:103DC00025EAE5759342C4BF9B1AED18B5421AD196
:103DD000002008E00123524641463846C8470130DA
:103DE00003D14FF0FF30BDE8F0870135C1E7302047
:103DF000E11881F843005A1C94F84510224402331C
:103E000082F84310C2E70123224641463846C8479C
:103E10000130E6D00136D9E72DE9FF470F7E914604
:103E2000782F80460C469A460C9E01F1430207D833
:103E3000622F0AD8002F00F0D380582F00F0BA80EC
:103E400004F1420684F842703AE0A7F16303152BAF
:103E5000F6D801A151F823F0B13E0008C53E000894
:103E6000413E0008413E0008413E0008413E000836
:103E7000C53E0008413E0008413E0008413E0008A2
:103E8000413E0008C73F0008EF3E0008813F0008A0
:103E9000413E0008413E0008E93F0008413E00085D
:103EA000EF3E0008413E0008413E0008893F0008FF
:103EB00033681A1D1B68326004F1420684F84230F0
:103EC00001239EE033682068191D3160060601D584
:103ED0001D6803E04506FBD5B3F90050002D03DA59
:103EE0002D236D4284F843300A23594811E021689C
:103EF0003368080653F8045B02D4490648BFADB2E4
:103F00006F2F336014BF0A2308235148002184F81F
:103F100043106668002EA8BF2168A660A4BF21F0E8
:103F2000040121600DB9002E4BD01646B5FBF3F10C
:103F300003FB1157C75D06F8017D2F46BB420D46B6
:103F4000F4D9082B0BD12368DF0708D523696168F2
:103F50009942DEBF302306F8013C06F1FF36921B82
:103F600022614B4621464046CDF800A003AAFFF748
:103F7000E1FE01304AD14FF0FF3004B0BDE8F087D8
:103F8000236843F0200323607827324884F8457083
:103F9000236831681F0651F8045B02D45F0648BFEE
:103FA000ADB23160D90744BF43F0200323601DB197
:103FB0001023ABE72648E9E7236823F020032360BA
:103FC000F6E71646BDE733682568181D616930605D
:103FD0002E061B6801D5196002E06806FBD5198022
:103FE000002316462361BCE7336800211A1D3260A6
:103FF0001E686268304600F0C4F908B1801B60603A
:1040000063682361002384F84330AAE732464946B7
:1040100040462369D0470130ADD023689B0713D4B5
:10402000E068039B9842B8BF1846A6E701233246D2
:1040300049464046D04701309DD00135E368039999
:104040005B1AAB42F2DCEBE7002504F11906F5E759
:10405000825F0008935F0008002310B50446C0E9A2
:104060000033C0E90433836081814366C281836188
:10407000194608225C3000F0F4F80D4B24626362AC
:104080000C4BA3620C4BE3620C4B23630C4B9C4226
:1040900006D003F16802944202D0D0339C4205D18D
:1040A00004F15800BDE8104000F068B910BD00BF31
:1040B000DD410008FF410008374200085B4200086C
:1040C00054030020024A0349034800F069B800BFC6
:1040D00010000020315900088C01002041680C4B71
:1040E00010B59942044601D001F022FCA168094BA9
:1040F000994202D0204601F01BFCE168064B994230
:1041000004D02046BDE8104001F012BC10BD00BF35
:1041100054030020BC0300202404002010B50B4BE6
:104120000B4C0C4A20461A6004210022FFF794FF32
:1041300004F1680001220921FFF78EFF04F1D0008D
:104140000222BDE810401221FFF786BF8C04002038
:1041500054030020C5400008014800F010B900BF1A
:1041600095040020014800F00BB900BF9504002021
:1041700010B50446FFF7F0FF236A1BB1BDE81040FD
:10418000FFF7F0BF044B2362044B1B68002BF5D1F3
:10419000FFF7C4FFF2E700BFDD4000088C040020F9
:1041A0002DE9F8430746884614460026D4E90195D0
:1041B000B9F1010905D52468002CF7D13046BDE8D6
:1041C000F883AB89012B07D9B5F90E30013303D041
:1041D00029463846C04706436835E9E710B50C461E
:1041E000B1F90E1000F06CF80028ABBF636DA38925
:1041F0001B1823F48053ACBF6365A38110BD2DE968
:10420000F0411F468B890546DB050C46164605D551
:1042100002230022B1F90E1000F040F8A3893246C3
:1042200023F48053A38128463B46B4F90E10BDE821
:10423000F04100F067B810B50C46B1F90E1000F06F
:104240002DF8431CA38915BF606523F4805343F404
:104250008053A38118BFA38110BDB1F90E1000F0E7
:104260000DB803460244934200D1704703F8011B86
:10427000F9E70000004870470C01002038B5002322
:10428000054D044608462B60FDF727FB431C02D171
:104290002B6803B1236038BD9004002038B5044674
:1042A000084611460022054D2A601A46FDF739FBE3
:1042B000431C02D12B6803B1236038BD9004002059
:1042C00038B50446084611460022054D2A601A46B4
:1042D000FDF7CAFA431C02D12B6803B1236038BD35
:1042E0009004002038B50023054D044608462B6095
:1042F000FDF724FB431C02D12B6803B1236038BDBA
:104300009004002038B50446084611460022054DA9
:104310002A601A46FDF7C5FA431C02D12B6803B187
:10432000236038BD90040020014B1868704700BF1F
:104330008801002070B500260C4D0D4C641BA410A4
:10434000A64209D101F002FE00260A4D0A4C641B68
:10435000A410A64205D170BD55F8043B984701361C
:10436000EEE755F8043B98470136F2E7E8620008AB
:10437000E8620008E8620008EC62000870477047D5
:104380007047034610B5C9B202449342184601D1A2
:10439000002003E0047801338C42F6D110BD0A44BA
:1043A000914200F1FF3300D1704710B511F8014B75
:1043B000914203F8014FF9D110BD2DE9F74F036980
:1043C0000C690746A3427EDB013CA30000F1140503
:1043D00001F11408009305EB8403019358F824308D
:1043E00055F8242001339A42B2FBF3F608EB840916
:1043F0002ED34FF0000AC446AE46D3465CF8043BC9
:1044000098B206FB00A01B0C020C06FB0323DEF88F
:10441000002080B292B2121A5A44DEF800004FEA2D
:10442000134A9BB2C3EB224303EB104392B242EA1E
:104430000342E1454FEA234B4EF8042BDED2009BAA
:10444000EB582BB9019B043B9D421A462FD33C618C
:10445000384601F0D7F8002825DB2946002058F817
:10446000042BD1F800C01FFA82FE1FFA8CF3A3EBD5
:104470000E030344120CC2EB234202EB1C429BB21C
:1044800043EA0243C1454FEA224041F8043BE6D2E9
:1044900055F8242005EB840322B9043B9D421A46BB
:1044A0000BD33C610136304603B0BDE8F08F126893
:1044B000043B002ACBD1013CC6E71268043B002A2A
:1044C000EFD1013CEAE70020EEE700000000000029
:1044D0002DE9F04F14461D46C76997B08346CDE9D4
:1044E0000245239E7FB91020FFF7A4F80246CBF8BF
:1044F0001C0020B9EF21A84BA84801F041FAC0E9FF
:1045000001770760C760DBF81C30196859B15A6839
:10451000012393404A608B60584600F03BFE002226
:10452000DBF81C301A602B1EAFBF0023012223F0E2
:1045300000430393A8BF3360DDF80C80984BB8BFED
:10454000326033EA080312D142F20F73229A1360E9
:10455000C8F31303234300F05085249BDFF844A2E3
:10456000002B00F052850AF1030300F04CBDDDE999
:104570000223CDE90C23DDE90C0100220023FCF726
:1045800013FA074658B10123229A1360249B13B1F2
:10459000854B249A1360DFF814A200F036BD14ABEB
:1045A000019315AB00935846DDE90C2301F0DAF8CE
:1045B000C8F30A568146002E77D0DDE90C010D9B29
:1045C000A6F2FF36C3F3130343F07F5343F44013C3
:1045D000129719460022764BFBF7C6FD68A3D3E974
:1045E0000023FBF779FF68A3D3E90023FBF7BEFDA7
:1045F000044630460D46FBF705FF65A3D3E90023CB
:10460000FBF76AFF02460B4620462946FBF7AEFD44
:1046100004460D46FCF710FA002207460023204608
:104620002946FCF7CBF940B13846FBF7EBFE2246B2
:104630002B46FCF7B9F900B9013F162F53D8DDE935
:104640000C015C4B03EBC703D3E90023FCF7B6F97D
:1046500000284AD00023013F0F93149B9B1B5A1E36
:1046600046BFC3F1010800234FF00008099248BF7C
:104670000993002F3BDB099B0E973B4409930023D2
:104680000A93209B092B66D8052BC4BF043B2093BB
:10469000209BC8BF0024A3F10203D8BF0124032B31
:1046A00064D8DFE803F02B383656DDE914631E4486
:1046B00006F23243202BC1BFC3F1400308FA03F8CE
:1046C00006F2124324FA03F3D6BFC3F1200348EAEB
:1046D000030004FA03F0FBF785FE0122A1F1F87351
:1046E000013E129275E70123B6E70F90B5E77B42D2
:1046F0000A930023A8EB07080E93C2E700230B934D
:10470000219B002B35DC01231A46CDE9073321928A
:104710000BE00123F3E700230B93219BFB18089385
:104720000133012B0793B8BF012300210422DBF8DA
:104730001C0002F114059D421FD94160584600F04B
:10474000E9FC8246002839D1024640F2AF111A4BEB
:10475000D2E60123E0E7012400230B9420934FF0DD
:10476000FF330022CDE907331223D0E701230B9357
:10477000F5E7219BCDE90733D7E701315200D8E7B0
:1047800061436F63A787D23FB3C8608B288AC63F57
:10479000FB799F501344D33FBB5F0008D25F0008F2
:1047A0000000F07FB75F0008815F0008805F0008AD
:1047B0000000F83FC86000082A600008DBF81C30E1
:1047C0001860079B0E2B00F2A480002C00F0A18043
:1047D000002F33DD864B07F00F0203EBC203F80511
:1047E000D3E90034CDE904344FEA271416D5DDE9C6
:1047F0000C01804B0326D3E90823FBF797FFCDE993
:10480000020104F00F047B4D54B9DDE90423DDE916
:104810000201FBF78BFFCDE9020128E00226F2E757
:10482000E10708D5DDE90401D5E90023FBF754FED3
:10483000CDE90401013664100835E5E700F0D280C7
:10484000DDE90C017C426A4B04F00F0203EBC2036A
:10485000D3E90023FBF740FE02260023CDE9020145
:10486000644D2411002C40F0B280002BD3D1DDE93F
:1048700002450F9B002B00F0B780002220462946FE
:104880005D4BFCF79BF8002800F0AE80079B002BE7
:1048900000F0AA80089B002B37DD7B1E2046049386
:1048A00000222946554BFBF717FECDE90201089C73
:1048B00001363046FBF7A6FDDDE90223FBF70CFECF
:1048C00000224F4BFBF752FC0546A1F15076002C1D
:1048D00040F09A80DDE9020100224A4BFBF744FCDC
:1048E00002460B46CDE902232A463346FCF784F8FC
:1048F000002840F08E82DDE902012A4606F10043DD
:10490000FCF75CF8002840F02781DDE90C34CDE9A4
:104910000234159B002BC0F263810E2F00F36081DF
:10492000334B03EBC703D3E90034CDE90434219BB7
:10493000002B03DA079B002B40F30081DDE90245E1
:104940005646DDE9042320462946FBF7EFFEFCF737
:1049500073F88046FBF756FDDDE90423FBF7BCFD49
:1049600002460B4620462946FBF7FEFB08F13004C1
:10497000079D06F8014BA6EB0A04A54202460B462A
:1049800040F01681FBF7F2FBDDE9042304460D46F7
:10499000FCF732F8002840F0F880DDE904232046D7
:1049A0002946FCF701F818B118F0010F40F0ED802E
:1049B0004946584600F0EEFB00233370229B013736
:1049C0001F60249B002B00F020831E601DE3E20784
:1049D00005D5D5E90023FBF77FFD012301366410DF
:1049E00008353FE7022642E7079C049761E700BFCE
:1049F000C8600008A06000080000F03F00002440EC
:104A000000001C4000001440704B0B9903EBC403E2
:104A100053E902235444002945D000206C49FBF798
:104A200085FE33462A46FBF79FFB5646CDE910012B
:104A3000DDE90201FCF700F80546FBF7E3FC02465E
:104A40000B46DDE90201FBF78FFB02460B463035D2
:104A5000CDE90223DDE9102306F8015BFBF7AEFF89
:104A6000002863D1DDE9022300205A49FBF77CFBD3
:104A7000DDE91023FBF7A2FF002840F08780A64263
:104A80003FF443AFDDE910010022534BFBF724FD57
:104A90000022CDE91001DDE902014F4BFBF71CFDBF
:104AA000CDE90201C4E731462846FBF715FD56461D
:104AB000CDE910011394DDE90201FBF7BDFF0546C6
:104AC000FBF7A0FC02460B46DDE90201FBF74CFBBD
:104AD00002460B46303506F8015BA642CDE90223BB
:104AE0004FF0000224D1DDE91001394BFBF73EFB0A
:104AF00002460B46DDE90201FBF77EFF002845D1A7
:104B0000DDE9102300203249FBF72EFB02460B465D
:104B1000DDE90201FBF752FF00283FF4F6AE139ED9
:104B2000731E139316F8013C302BF8D0049F3FE717
:104B3000294BFBF7D1FCCDE90201BCE70CD1DDE943
:104B400004010022254BFBF7C7FCDDE90223FBF73C
:104B500049FF002800F05B8100242546219B564632
:104B6000DB43049300272146584600F013FB002D39
:104B7000DCD02FB1AF4203D03946584600F00AFBD3
:104B80002946584600F006FBD0E7049733461E46F8
:104B900013F8012D392A07D19A45F8D1049A013228
:104BA000049230228AF800201A7801321A70BDE788
:104BB0000022094BFBF790FC0022002304460D461F
:104BC000FBF7F2FE00283FF4BCAEF1E6C860000837
:104BD0000000E03F0000F03F0000244000001440CF
:104BE0000B9A002A00F0DB80209A012A00F3BF8094
:104BF000129A002A00F0B78003F2334346460A9C1B
:104C0000099A01211A4458469844099200F076FB0B
:104C100005465EB1099B002B08DDB342A8BF3346B1
:104C2000099AA8EB0308F61AD31A09930A9BF3B161
:104C30000B9B002B00F0B7808CB1294622465846CA
:104C400000F01AFC4A4601460546584600F06CFB47
:104C500049460490584600F09DFA049B99460A9BE9
:104C60001A1B04D04946584600F006FC8146012133
:104C7000584600F043FB0E9B0446002B00F0C98110
:104C80001A460146584600F0F7FB209B0446012BCC
:104C900000F38F80029B002B40F08780039BC3F3BF
:104CA0001303002B40F08380039B23F000431B0D74
:104CB0001B052BB1099B08F101080133099301235E
:104CC0000A930E9B002B00F0AA81236904EB830357
:104CD000186900F0C7FAC0F12000099B184410F0D1
:104CE0001F0071D0C0F12003042B65DD099BC0F1CA
:104CF0001C000344804406440993B8F1000F05DD0D
:104D000049464246584600F011FC8146099B002B5B
:104D100005DD21461A46584600F008FC04460F9B64
:104D2000002B53D02146484600F06CFC00284DDA99
:104D30007B1E494604930A220023584600F04CFA91
:104D40000B9B8146002B00F06C81002329460A2230
:104D5000584600F041FA089B0546002B61DC209B79
:104D6000022B3BDC5DE0149BC3F1360346E7079B57
:104D70005C1E0A9BA342BFBF0A9B0E9AE31AD2187D
:104D8000A8BF1C1B079BBEBF0A940E920024002BD9
:104D9000B5BFA8EB030646460023079B30E746460F
:104DA0000A9C0B9D35E70A9A5CE7002388E7029B83
:104DB00086E700230A9388E79FD0099A1C331A4498
:104DC00098441E44099298E70346F6E7079B049728
:104DD000002B20DC0893209B022B1EDD089B002B60
:104DE0007FF4BCAE21460522584600F0F5F9014695
:104DF0000446484600F006FC00287FF7AFAE31239A
:104E0000564606F8013B049B01330493AAE6079C2F
:104E100004972546F3E7079B08930B9B002B00F0B4
:104E20000481002E05DD29463246584600F07EFBFF
:104E300005460A9B002B5AD05846696800F06AF96B
:104E4000064628B9024640F2EF21834BFFF754BBD8
:104E50002A6905F10C01023292000C30FFF79FFA2B
:104E600001223146584600F061FB2F4605460AF103
:104E700001030793089B53440B93029B03F0010328
:104E80000A93079B2146013B48460293FFF795FA98
:104E90003946089000F13008484600F0B3FB2A4636
:104EA00009902146584600F0C9FBC268064602BB7D
:104EB0000146484600F0A6FB0246314658460C9291
:104EC00000F068F9209B0C9A079E43EA02010A9BB6
:104ED000194310D1B8F1390F29D0099B002B02DDFD
:104EE000089B03F13108029B83F800803BE62846CB
:104EF000BBE70122E1E7099B002B04DB20990B4370
:104F00000A990B4320D1002AEDDD4946012258467B
:104F100000F00CFB2146814600F074FB002803DC06
:104F2000E1D118F0010FDED0B8F1390FD8D1392313
:104F3000029A137033461E4616F8012C013B392A9B
:104F400052D001321A700EE6002A07DDB8F1390F8F
:104F5000EDD0029A08F10103137004E6079B079A4B
:104F600003F8018C0B9B934228D0494600230A2268
:104F7000584600F031F9AF4281464FF000034FF040
:104F80000A023946584607D100F026F90746054679
:104F9000079B0133079374E700F01EF92946074683
:104FA00000230A22584600F017F90546F0E7089B4F
:104FB0000027002BCCBF1E4601265644494601223D
:104FC000584600F0B3FA2146814600F01BFB00284A
:104FD000B0DC02D118F0010FACD133461E4613F8F5
:104FE000012D302AFAD0BEE59A45A4D1049B0133A5
:104FF000049331238AF80030B5E5249BDFF85CA0E8
:105000001BB10AF10803249A1360504617B0BDE89B
:10501000F08F209B012B7FF73DAE0E9B0A93012062
:105020005BE6089B002B7FF7D6AE564621464846E6
:10503000FFF7C3F900F13008089B06F8018BA6EBD7
:105040000A029342B3DD494600230A22584600F083
:10505000C3F88146EAE700BF2A600008AE5F000897
:1050600038B50546002940D051F8043C0C1F002BF0
:10507000B8BFE418FEF788FB1C4A136833B96360B5
:1050800014602846BDE83840FEF784BBA34208D927
:10509000206821188B4201BF19685B6809182160DC
:1050A000EDE71A465B680BB1A342FAD911685018B4
:1050B000A0420BD120680144501883421160E0D116
:1050C00018685B68084410605360DAE702D90C2363
:1050D0002B60D6E7206821188B4201BF19685B68F6
:1050E0000918216063605460CBE738BD500300208D
:1050F00082B001B901A942B14BB113780B601278AB
:10510000101E18BF012002B070471046FBE76FF079
:105110000100F8E770B5C66904460D4676B910205F
:10512000FEF788FA0246E06120B96B21174B184858
:1051300000F026FCC0E901660660C660E669F36817
:1051400083B1E369DB6853F82500B8B9012101FA9E
:1051500005F6721D2046920000F030FC60B1C0E9F7
:1051600001560EE021220421204600F027FCE369CD
:10517000F060DB68002BE4D1002070BD026843F8CA
:1051800025200023C0E90333F7E700BFBB5F000819
:105190003B60000870B5C66905460C4676B910201C
:1051A000FEF748FA0246E86120B98F21084B09480A
:1051B00000F0E6FBC0E901660660C6603CB1EB6941
:1051C0006268DB6853F82210216043F8224070BD0A
:1051D000BB5F00083B6000082DE9F04107460C4624
:1051E0001E4600200D6901F1140CDCF8003001307E
:1051F00099B202FB01611E0C0B0C02FB063389B253
:1052000001EB034185424FEA13464CF8041BECDCEA
:105210000EB3A368AB4219DC616838460131FFF771
:1052200079FF804628B90246BA210C4B0C4800F0A1
:10523000A7FB226904F10C01023292000C30FFF747
:10524000AEF821463846FFF7A5FF444604EB850338
:1052500001355E6125612046BDE8F0812A600008C5
:105260003B6000080346B0F5803F3ABF03041020BE
:105270000020B3F1807F3CBF1B020830B3F1805F98
:105280003CBF1B010430B3F1804F3CBF9B00023098
:10529000002B05DB13F0804F00F1010008BF202038
:1052A00070470368024613F007000BD0D90721D4DA
:1052B000980749BF5B089B08012013605CBF022070
:1052C0001360704799B209B910201B0CD9B209B903
:1052D00008301B0A190704BF1B090430990704BFD3
:1052E0009B080230D90703D45B0800F1010003D00A
:1052F00013607047002070472020704710B50C469F
:105300000121FFF707FF024628B940F24511044B7F
:10531000044800F035FB01234461036110BD00BF68
:105320002A6000083B6000082DE9F04F14460A6926
:1053300023690F469A42A2BF23460C461F46D4F863
:1053400010A0D7F81090A36861680AEB0906B34271
:1053500085B0B8BF0131FFF7DDFE30B902464FF42A
:10536000B171434B434800F00BFB00F114052B4691
:10537000002205EB8608434521D307F1140104F10F
:10538000140202EB8A0201EB89030293131B153B03
:1053900023F00303043304F11507BA4238BF042392
:1053A0000193029B03918B420CD8002E03DD58F829
:1053B000043D002B5AD0066105B0BDE8F08F43F8DC
:1053C000042BD8E7B1F800A0BAF1000F23D0A9460A
:1053D0004FF0000C04F1140E5EF8047BD9F8003095
:1053E0001FFA87FB9BB20AFB0B336344D9F800C05A
:1053F0003F0C4FEA1C4C0AFB07C707EB13479BB255
:1054000043EA074372454FEA174C49F8043BE3D897
:10541000019B45F803C0039B0431B3F80290B9F136
:10542000000F21D0AE464FF0000A2B6804F1140C97
:10543000BCF800B0BEF802709BB209FB0B77574472
:1054400043EA07434EF8043B5CF8043B4FEA134A37
:10545000BEF80030624509FB0A3303EB17434FEAFD
:10546000134AE5D8019FEB5104359AE7013E9CE7CA
:105470002A6000083B6000082DE9F843154612F049
:10548000030207460E4607D0254C013A002354F884
:105490002220FFF7A1FE0646AD103DD0FC697CB985
:1054A0001020FEF7C7F80246F86128B940F2B311A0
:1054B0001C4B1D4800F064FAC0E901440460C4605C
:1054C000D7F81C80D8F808404CB940F27121384612
:1054D000FFF714FF00230446C8F8080003604FF0EC
:1054E0000009EB070AD5314622463846FFF71CFF74
:1054F000804631463846FFF74DFE46466D100BD0CC
:10550000206838B9224621463846FFF70DFF206053
:10551000C0F800900446E4E73046BDE8F88300BFD9
:1055200094600008BB5F00083B6000082DE9F0476D
:105530000C46074691462369496803EB6218A36845
:105540004FEA621A08F10106B3420BDB3846FFF757
:10555000E1FD054648B902464FF4EF71274B284854
:1055600000F00EFA01315B00EEE7002300F11401B8
:1055700000F110021846534533DB20692AEAEA7A23
:1055800004F1140319F01F0901EB8A0103EB800CED
:105590002BD08A460022C9F1200E186800FA09F0C3
:1055A00010434AF8040B53F8042B9C4522FA0EF2E0
:1055B000F3D8ACEB0403153B23F00303043304F1ED
:1055C0001500844538BF0423CA500AB108F1020609
:1055D000013E384621462E61FFF7DCFD2846BDE836
:1055E000F08742F8040F0133C5E7043953F8042B60
:1055F0009C4541F8042FF9D8EAE700BF2A6000086B
:105600003B60000803460A69006930B5801A0ED174
:105610001433143103EB820401EB820154F8045D6E
:1056200051F8042D954203D005D24FF0FF3030BD24
:10563000A342F3D3FBE70120F9E700002DE9F74F80
:1056400089460646114648461446FFF7DBFF051E0D
:1056500012D129463046FFF75DFD024628B940F2D7
:1056600037213E4B3E4800F08BF90123C0E9043559
:10567000104603B0BDE8F08FBCBF4B46A146304694
:10568000D9F80410BABF1C4601250025FFF742FDDA
:10569000024618B940F24521304BE3E700F1140B04
:1056A000D9F8107009F11003C5604FF0000C09F132
:1056B0001405D946266904F1140E05EB87080EEB94
:1056C00086060193019B5EF8040B53F804AF81B288
:1056D00001931FFA8AF35B1A000C6344C0EB1A4073
:1056E00000EB23409BB243EA004376454FEA204C4F
:1056F00049F8043BE6D8331B153B23F0030315346C
:105700000433A64238BF04231D445B441E462C4686
:1057100044450ED308F10301491B21F00301033D69
:10572000A84538BF00210B4453F8041D99B11761F7
:105730009EE7E64654F8041B1FFA81FCF444080C6B
:10574000714400EB2C4089B241EA00414FEA204C01
:1057500046F8041BDCE7013FE6E700BF2A600008CB
:105760003B6000082DE97343012190469946089E4D
:10577000FFF7D0FC044630B9024640F20F31234B0C
:10578000234800F0FDF8C9F30A55C9F313030DB11E
:1057900043F480130193B8F1000324D068460093CA
:1057A000FFF77FFDDDE90012D8B1C0F1200302FA56
:1057B00003F30B43C24063610192019B002B0CBFBA
:1057C00001220222A3612261ADB1A5F23345054455
:1057D0003560C0F13500099B1860204602B0BDE875
:1057E00070836161E9E701A8FFF75BFD019B01227E
:1057F00063612030E7E7A0F2324004EB82033060BF
:105800001869FFF72FFDC0EB4210E4E72A6000089B
:105810003B6000080346084641B1FF2A04D98A22AA
:105820004FF0FF301A60704701200A707047000087
:10583000B1F90C20F8B5160705460C4654D44B6850
:10584000002B02DC0B6C002B48DDE66A002E45D0F5
:10585000002312F480522F68216A2B6030D0626DD1
:10586000A389590705D56368D21A636B0BB1236C02
:10587000D21A00232846E66A216AB047431CA3894E
:1058800006D129681D292BD8284A0A41D60727D4D2
:10589000002262602269D904226004D5421C01D131
:1058A0002B6803B96065616B2F60B9B104F14403E3
:1058B000994202D02846FFF7D3FB002363630DE033
:1058C00001232846B0470246501CC9D12B68002B43
:1058D000C6D01D2B01D0162B1DD12F60002021E03A
:1058E00043F040031BB21AE00F69002FF6D0930774
:1058F00018BF00230E6808BF4B69F61B0F608B6052
:10590000002EEBDD33463A462846216AD4F828C0FB
:10591000E047002807DCB4F90C3043F040034FF0B7
:10592000FF30A381F8BD0744361AE9E7FEFFBFDF69
:1059300038B50B6905460C4613B90025284638BD15
:1059400018B1036A0BB9FEF713FCB4F90C30002B45
:10595000F3D0626ED00704D4990502D4A06DFEF78F
:105960000EFD28462146FFF763FF636E0546DA0702
:10597000E4D4A3899B05E1D4A06DFEF701FDDDE72A
:105980001FB514461A46094B05461B68D86854B91A
:10599000074B1C46CDE9013400912B46054900F028
:1059A00021F800F031F8044BF4E700BF8801002033
:1059B000CC6200089E6200089162000870B5A1FBED
:1059C00002543CB92946FDF75FFE064628B9002679
:1059D000304670BD0C220260F9E72A462146FEF7E8
:1059E00040FCF5E70EB403B5014603AB054853F898
:1059F000042B0068019300F035F802B05DF804EB69
:105A000003B0704788010020062008B500F0FEF9B9
:105A10000120FBF71EFF936810B4013B002B93603D
:105A200007DA9469A34201DB0A2902D110BC00F015
:105A300031B91368581C10601970084610BC7047C3
:105A4000F8B506460F461446D518AC4201D10020E1
:105A500007E03A46304614F8011BFFF7DCFF431C11
:105A6000F3D1F8BD2DE9F04F0D4614469846064691
:105A70009DB018B1036A0BB9FEF77AFB6B6ED907BC
:105A800005D4AB899A0502D4A86DFEF778FCAB89E2
:105A90001B0701D52B699BB92946304600F038F920
:105AA00070B16B6EDC0704D54FF0FF301DB0BDE860
:105AB000F08FAB899805F7D4A86DFEF761FCF3E78A
:105AC0000023099320238DF8293030234FF001095A
:105AD000CDF80C80DFF8A8818DF82A3023469A464D
