:020000040800F2
:1000000000500020313D00080D3B0008153B000862
:100010001D3B0008253B00082D3B000800000000A8
:10002000000000000000000000000000353B000858
:10003000413B0008000000004D3B0008593B000810
:10004000793D0008793D0008793D0008793D0008B8
:10005000793D0008793D0008793D0008793D0008A8
:10006000793D0008793D0008793D0008793D000898
:10007000793D0008793D0008793D0008793D000888
:10008000793D0008793D0008793D0008793D000878
:10009000793D0008793D0008793D0008793D000868
:1000A000793D0008793D0008793D0008793D000858
:1000B000793D00086D3B0008793D0008793D000856
:1000C000793D0008793D0008793D0008793D000838
:1000D000793D00087D3B0008953B0008793D00080C
:1000E000793D0008793D0008793D000800000000D6
:1000F0000000000000000000000000000000000000
:0C01000000000000000000005FF808F1A3
:1001100010B5054C237833B9044B13B10448AFF341
:1001200000800123237010BDB402002000000000F5
:100130004099000808B5034B1BB103490348AFF3CE
:10014000008008BD00000000B802002040990008AF
:1001500010F8012B11F8013B012A28BF9A42F7D071
:10016000D01A7047034613F8012B002AFBD1181A46
:100170000138704781F0004102E000BF83F0004386
:1001800030B54FEA41044FEA430594EA050F08BF32
:1001900090EA020F1FBF54EA000C55EA020C7FEAF6
:1001A000645C7FEA655C00F0E2804FEA5454D4EB73
:1001B0005555B8BF6D420CDD2C4480EA020281EA3D
:1001C000030382EA000083EA010180EA020281EA75
:1001D0000303362D88BF30BD11F0004F4FEA0131C7
:1001E0004FF4801C4CEA113102D0404261EB4101D6
:1001F00013F0004F4FEA03334CEA133302D052425C
:1002000063EB430394EA050F00F0A780A4F1010417
:10021000D5F1200E0DDB02FA0EFC22FA05F2801851
:1002200041F1000103FA0EF2801843FA05F3594137
:100230000EE0A5F120050EF1200E012A03FA0EFCB6
:1002400028BF4CF0020C43FA05F3C01851EBE371E0
:1002500001F0004507D54FF0000EDCF1000C7EEBFD
:1002600000006EEB0101B1F5801F1BD3B1F5001F3B
:100270000CD349085FEA30004FEA3C0C04F101045A
:100280004FEA445212F5800F80F09A80BCF1004F83
:1002900008BF5FEA500C50F1000041EB045141EA05
:1002A000050130BD5FEA4C0C404141EB0101013CCE
:1002B00028BFB1F5801FE9D291F0000F04BF0146BD
:1002C0000020B1FA81F308BF2033A3F10B03B3F18F
:1002D00020020CDA0C3208DD02F1140CC2F10C021F
:1002E00001FA0CF021FA02F10CE002F11402D8BF7D
:1002F000C2F1200C01FA02F120FA0CFCDCBF41EA49
:100300000C019040E41AA2BF01EB0451294330BD17
:100310006FEA04041F3C1CDA0C340EDC04F11404F4
:10032000C4F1200220FA04F001FA02F340EA0300CB
:1003300021FA04F345EA030130BDC4F10C04C4F111
:10034000200220FA02F001FA04F340EA03002946F1
:1003500030BD21FA04F0294630BD94F0000F83F43B
:10036000801306BF81F480110134013D4EE77FEA1E
:10037000645C18BF7FEA655C29D094EA050F08BF6A
:1003800090EA020F05D054EA000C04BF194610464B
:1003900030BD91EA030F1EBF0021002030BD5FEA8F
:1003A000545C05D14000494128BF41F0004130BDB7
:1003B00014F580043CBF01F5801130BD01F000450B
:1003C00045F0FE4141F470014FF0000030BD7FEA7E
:1003D000645C1ABF194610467FEA655C1CBF0B4679
:1003E000024650EA013406BF52EA033591EA030F90
:1003F00041F4002130BD00BF90F0000F04BF002188
:10040000704730B54FF4806404F132044FF00005BA
:100410004FF0000150E700BF90F0000F04BF002133
:10042000704730B54FF4806404F1320410F0004599
:1004300048BF40424FF000013EE700BF42004FEA94
:10044000E2014FEA31014FEA02701FBF12F07F4311
:1004500093F07F4F81F06051704732F07F4208BFC8
:10046000704793F07F4F04BF41F40021704730B5CF
:100470004FF4607401F0004521F000411CE700BF1B
:1004800050EA010208BF704730B54FF000050AE09E
:1004900050EA010208BF704730B511F0004502D59F
:1004A000404261EB41014FF4806404F132045FEAA1
:1004B000915C3FF4D8AE4FF003025FEADC0C18BF4A
:1004C00003325FEADC0C18BF033202EBDC02C2F13C
:1004D000200300FA03FC20FA02F001FA03FE40EACE
:1004E0000E0021FA02F11444BDE600BF70B54FF0D2
:1004F000FF0C4CF4E06C1CEA11541DBF1CEA1355B0
:1005000094EA0C0F95EA0C0F00F0DEF82C4481EA17
:10051000030621EA4C5123EA4C5350EA013518BF37
:1005200052EA033541F4801143F4801338D0A0FB24
:1005300002CE4FF00005E1FB02E506F00042E0FBD1
:1005400003E54FF00006E1FB03569CF0000F18BFD7
:100550004EF0010EA4F1FF04B6F5007F64F540747F
:1005600004D25FEA4E0E6D4146EB060642EAC62112
:1005700041EA55514FEAC52040EA5E504FEACE2E7F
:10058000B4F1FD0C88BFBCF5E06F1ED8BEF1004F82
:1005900008BF5FEA500E50F1000041EB045170BDFE
:1005A00006F0004646EA010140EA020081EA030142
:1005B000B4EB5C04C2BFD4EB0C0541EA045170BD3E
:1005C00041F480114FF0000E013C00F3AB8014F1B8
:1005D000360FDEBF002001F0004170BDC4F1000401
:1005E000203C35DA0C341BDC04F11404C4F1200582
:1005F00000FA05F320FA04F001FA05F240EA0200DD
:1006000001F0004221F0004110EBD37021FA04F612
:1006100042EB06015EEA430E08BF20EAD37070BDCC
:10062000C4F10C04C4F1200500FA04F320FA05F02B
:1006300001FA04F240EA020001F0004110EBD3702D
:1006400041F100015EEA430E08BF20EAD37070BD9D
:10065000C4F1200500FA05F24EEA020E20FA04F376
:1006600001FA05F243EA020321FA04F001F0004125
:1006700021FA04F220EA020000EBD3705EEA430E96
:1006800008BF20EAD37070BD94F0000F0FD101F0C5
:100690000046400041EB010111F4801F08BF013CFE
:1006A000F7D041EA060195F0000F18BF704703F03C
:1006B0000046520043EB030313F4801F08BF013DC3
:1006C000F7D043EA0603704794EA0C0F0CEA13557F
:1006D00018BF95EA0C0F0CD050EA410618BF52EA39
:1006E0004306D1D181EA030101F000414FF000003F
:1006F00070BD50EA410606BF1046194652EA43064D
:1007000019D094EA0C0F02D150EA013613D195EAC0
:100710000C0F05D152EA03361CBF104619460AD108
:1007200081EA030101F0004141F0FE4141F4700112
:100730004FF0000070BD41F0FE4141F4780170BD02
:1007400070B54FF0FF0C4CF4E06C1CEA11541DBF67
:100750001CEA135594EA0C0F95EA0C0F00F0A7F869
:10076000A4EB050481EA030E52EA03354FEA013196
:1007700000F088804FEA03334FF0805545EA1313A9
:1007800043EA12634FEA022245EA111545EA106571
:100790004FEA00260EF000419D4208BF964244F108
:1007A000FD0404F5407402D25B084FEA3202B61A27
:1007B00065EB03055B084FEA32024FF480104FF4FB
:1007C000002CB6EB020E75EB030E22BFB61A75466F
:1007D00040EA0C005B084FEA3202B6EB020E75EB02
:1007E000030E22BFB61A754640EA5C005B084FEA6A
:1007F0003202B6EB020E75EB030E22BFB61A754637
:1008000040EA9C005B084FEA3202B6EB020E75EB41
:10081000030E22BFB61A754640EADC0055EA060E02
:1008200018D04FEA051545EA16754FEA06164FEA45
:10083000C30343EA52734FEAC2025FEA1C1CC0D1F1
:1008400011F4801F0BD141EA00014FF000004FF07E
:10085000004CB6E711F4801F04BF01430020B4F13F
:10086000FD0C88BFBCF5E06F3FF6AFAEB5EB030CF7
:1008700004BFB6EB020C5FEA500C50F1000041EBF4
:10088000045170BD0EF0004E4EEA113114EB5C04C1
:10089000C2BFD4EB0C0541EA045170BD41F4801194
:1008A0004FF0000E013C90E645EA060E8DE60CEA9C
:1008B000135594EA0C0F08BF95EA0C0F3FF43BAFB9
:1008C00094EA0C0F0AD150EA01347FF434AF95EA70
:1008D0000C0F7FF425AF104619462CE795EA0C0F54
:1008E00006D152EA03353FF4FDAE1046194622E721
:1008F00050EA410618BF52EA43067FF4C5AE50EAFB
:1009000041047FF40DAF52EA43057FF4EBAE12E7EA
:100910004FF0FF3C06E000BF4FF0010C02E000BFCB
:100920004FF0010C4DF804CD4FEA410C7FEA6C5CAE
:100930004FEA430C18BF7FEA6C5C1BD001B050EA51
:10094000410C0CBF52EA430C91EA030F02BF90EA3C
:10095000020F0020704710F1000F91EA030F58BFFB
:10096000994208BF90422CBFD8176FEAE37040F05D
:10097000010070474FEA410C7FEA6C5C02D150EAFB
:10098000013C07D14FEA430C7FEA6C5CD6D152EAB6
:10099000033CD3D05DF8040B704700BF844610467B
:1009A00062468C461946634600E000BF01B5FFF77A
:1009B000B7FF002848BF10F1000F01BD4DF808ED4A
:1009C000FFF7F4FF0CBF012000205DF808FB00BF1B
:1009D0004DF808EDFFF7EAFF34BF012000205DF875
:1009E00008FB00BF4DF808EDFFF7E0FF94BF0120C2
:1009F00000205DF808FB00BF4DF808EDFFF7CEFFC3
:100A000094BF012000205DF808FB00BF4DF808ED01
:100A1000FFF7C4FF34BF012000205DF808FB00BFD2
:100A20004FEA410C7FEA6C5C02D150EA013C0AD1EA
:100A30004FEA430C7FEA6C5C02D152EA033C02D1DC
:100A40004FF0000070474FF0010070474FEA41023D
:100A500012F5001215D211D56FF47873B3EB625210
:100A600012D94FEAC12343F0004343EA505311F037
:100A7000004F23FA02F018BF404270474FF00000C9
:100A8000704750EA013005D111F0004008BF6FF007
:100A9000004070474FF00000704700BF4A0011D27D
:100AA00012F5001211D20DD56FF47873B3EB6252C8
:100AB0000ED44FEAC12343F0004343EA505323FAD4
:100AC00002F070474FF00000704750EA013002D149
:100AD0004FF0FF3070474FF0000070474FEA41027F
:100AE000B2F1E04324BFB3F5001CDCF1FE5C0DD98C
:100AF00001F0004C4FEAC0024CEA5070B2F1004FD6
:100B000040EB830008BF20F00100704711F0804FD8
:100B100021D113F13872BCBF01F00040704741F49D
:100B200080114FEA5252C2F11802C2F1200C10FAA1
:100B30000CF320FA02F018BF40F001004FEAC12385
:100B40004FEAD32303FA0CFC40EA0C0023FA02F329
:100B50004FEA4303CCE77FEA625307D150EA0133FF
:100B60001EBF4FF0FE4040F44000704701F00040CF
:100B700040F0FE4040F40000704700BF80F00040AD
:100B800002E000BF81F0004142001FBF5FEA410365
:100B900092EA030F7FEA226C7FEA236C6AD04FEA65
:100BA0001262D2EB1363C1BFD218414048404140AA
:100BB000B8BF5B42192B88BF704710F0004F40F45C
:100BC000000020F07F4018BF404211F0004F41F478
:100BD000000121F07F4118BF494292EA030F3FD044
:100BE000A2F1010241FA03FC10EB0C00C3F1200357
:100BF00001FA03F100F0004302D5494260EB4000E6
:100C0000B0F5000F13D3B0F1807F06D340084FEA50
:100C1000310102F10102FE2A51D2B1F1004F40EB45
:100C2000C25008BF20F0010040EA030070474900AD
:100C300040EB0000013A28BFB0F5000FEDD2B0FA4A
:100C400080FCACF1080CB2EB0C0200FA0CF0AABF6D
:100C500000EBC25052421843BCBFD040184370470B
:100C600092F0000F81F4000106BF80F40000013211
:100C7000013BB5E74FEA41037FEA226C18BF7FEAE8
:100C8000236C21D092EA030F04D092F0000F08BF2A
:100C90000846704790EA010F1CBF0020704712F011
:100CA0007F4F04D1400028BF40F00040704712F150
:100CB00000723CBF00F50000704700F0004343F0B5
:100CC000FE4040F4000070477FEA226216BF0846EB
:100CD0007FEA23630146420206BF5FEA412390EAAE
:100CE000010F40F4800070474FF0000304E000BFA4
:100CF00010F0004348BF40425FEA000C08BF704755
:100D000043F0964301464FF000001CE050EA010218
:100D100008BF70474FF000030AE000BF50EA01022D
:100D200008BF704711F0004302D5404261EB41011A
:100D30005FEA010C02BF84460146002043F0B6433F
:100D400008BFA3F18053A3F50003BCFA8CF2083A64
:100D5000A3EBC25310DB01FA02FC634400FA02FC6D
:100D6000C2F12002BCF1004F20FA02F243EB020074
:100D700008BF20F00100704702F1200201FA02FCD6
:100D8000C2F1200250EA4C0021FA02F243EB0200C9
:100D900008BF20EADC7070474FF0FF0C1CEAD0520D
:100DA0001EBF1CEAD15392EA0C0F93EA0C0F6FD0CE
:100DB0001A4480EA010C400218BF5FEA41211ED0AC
:100DC0004FF0006343EA501043EA5111A0FB013198
:100DD0000CF00040B1F5000F3EBF490041EAD3716D
:100DE0005B0040EA010062F17F02FD2A1DD8B3F1E9
:100DF000004F40EBC25008BF20F00100704790F058
:100E0000000F0CF0004C08BF49024CEA502040EAA9
:100E100051207F3AC2BFD2F1FF0340EAC25070476F
:100E200040F400004FF00003013A5DDC12F1190FAD
:100E3000DCBF00F000407047C2F10002410021FA1F
:100E400002F1C2F1200200FA02FC5FEA310040F137
:100E5000000053EA4C0308BF20EADC70704792F0B0
:100E6000000F00F0004C02BF400010F4000F013AE8
:100E7000F9D040EA0C0093F0000F01F0004C02BFE3
:100E8000490011F4000F013BF9D041EA0C018FE752
:100E90000CEAD15392EA0C0F18BF93EA0C0F0AD058
:100EA00030F0004C18BF31F0004CD8D180EA01007E
:100EB00000F00040704790F0000F17BF90F0004F17
:100EC000084691F0000F91F0004F14D092EA0C0FF9
:100ED00001D142020FD193EA0C0F03D14B0218BF8C
:100EE000084608D180EA010000F0004040F0FE40D2
:100EF00040F40000704740F0FE4040F4400070476E
:100F00004FF0FF0C1CEAD0521EBF1CEAD15392EAEC
:100F10000C0F93EA0C0F69D0A2EB030280EA010CDC
:100F200049024FEA402037D04FF0805343EA111175
:100F300043EA10130CF000408B4238BF5B0042F1D3
:100F40007D024FF4000C8B4224BF5B1A40EA0C0078
:100F5000B3EB510F24BFA3EB510340EA5C00B3EBAA
:100F6000910F24BFA3EB910340EA9C00B3EBD10F98
:100F700024BFA3EBD10340EADC001B0118BF5FEAEA
:100F80001C1CE0D1FD2A3FF650AF8B4240EBC25013
:100F900008BF20F0010070470CF0004C4CEA5020D4
:100FA0007F32C2BFD2F1FF0340EAC250704740F423
:100FB00000004FF00003013A37E792F0000F00F015
:100FC000004C02BF400010F4000F013AF9D040EA93
:100FD0000C0093F0000F01F0004C02BF490011F427
:100FE000000F013BF9D041EA0C0195E70CEAD1531F
:100FF00092EA0C0F08D142027FF47DAF93EA0C0F06
:101000007FF470AF084676E793EA0C0F04D14B02E9
:101010003FF44CAF08466EE730F0004C18BF31F09B
:10102000004CCAD130F000427FF45CAF31F0004395
:101030007FF43CAF5FE700BF4FF0FF3C06E000BF2E
:101040004FF0010C02E000BF4FF0010C4DF804CD51
:101050004FEA40024FEA41037FEA226C18BF7FEA61
:10106000236C11D001B052EA530C18BF90EA010F63
:1010700058BFB2EB030088BFC81738BF6FEAE170F2
:1010800018BF40F0010070477FEA226C02D15FEA8E
:10109000402C05D17FEA236CE4D15FEA412CE1D0FA
:1010A0005DF8040B704700BF844608466146FFE7C1
:1010B0000FB5FFF7C9FF002848BF10F1000F0FBDA3
:1010C0004DF808EDFFF7F4FF0CBF012000205DF89C
:1010D00008FB00BF4DF808EDFFF7EAFF34BF012021
:1010E00000205DF808FB00BF4DF808EDFFF7E0FFBA
:1010F00094BF012000205DF808FB00BF4DF808ED0B
:10110000FFF7D2FF94BF012000205DF808FB00BF6D
:101110004DF808EDFFF7C8FF34BF012000205DF84F
:1011200008FB00BF42000ED2B2F1FE4F0BD34FF0CE
:101130009E03B3EB126209D44FEA002343F000434D
:1011400023FA02F070474FF00000704712F1610F70
:1011500001D1420202D14FF0FF3070474FF0000042
:10116000704700BF38B50022002304460D46FFF744
:101170002FFC28B920462946BDE8384000F00AB8BF
:10118000204605F1004100F005F8404261EB4101C5
:1011900038BD00BFD0B500220B4B06460F46FFF707
:1011A000A5F9FFF77BFC0446FFF726F90022074B61
:1011B000FFF79CF902460B4630463946FEF7DEFF44
:1011C000FFF76CFC2146D0BD0000F03D0000F0416F
:1011D00080B586B000AF78600123FB7300233B61CC
:1011E0007B687B611FE07B691B78202B05D17B69C5
:1011F00000221A700123FB7312E0FB7B002B0FD03F
:101200003B69072B0AD81D493B697A6941F82320BD
:101210003B6901333B610023FB7301E0022328E0BB
:101220007B6901337B617B691B78002BDBD13B69D8
:10123000002B1DD0124BBB6016E0104B1A68BB6828
:101240001B6819461046FEF783FF0346002B08D1A2
:10125000BB685B683A690949104698470346DBB2A8
:1012600007E0BB680C33BB60BB681B68002BE4D194
:10127000012318461837BD4680BD00BFD0020020AC
:101280002800002080B500AF25220649064801F05D
:1012900029FD0649044801F08BFD054B00221A7018
:1012A00000BF80BD00380140F4030020B89B000857
:1012B000F303002080B500AF0249034804F0B2F800
:1012C00000BF80BD1C0000201800002080B584B045
:1012D00000AF786039601349134801F069FD134984
:1012E000114801F065FD124BFB6012E0FB681B68C2
:1012F00019460D4801F05CFDFB689B6819460A48D9
:1013000001F056FD0B49084801F052FDFB680C3313
:10131000FB60FB681B68002BE8D1002318461037E0
:10132000BD4680BDD49B0008F4030020EC9B000860
:1013300028000020049C000880B58AB000AF7860C7
:1013400039607B68002B01DC032318E07B68012BEC
:1013500001DD022313E00C4BD3F890301846FFF761
:101360006DF802460B4607F10800084905F0F2FD4A
:1013700007F108031946064801F01AFD0023184634
:101380002837BD4680BD00BF54040020089C0008DB
:10139000F403002080B584B000AF786039607B68CA
:1013A000012B01DC032320E07B68022B01DD0223FB
:1013B0001BE03B6804331B68184604F0EDF9024655
:1013C0000B4610461946FFF789FB0346FB600949A7
:1013D000F868FFF79DFE0346002B01D0042304E0CC
:1013E000054AFB68C2F89030002318461037BD4606
:1013F00080BD00BF0000C0405404002080B582B012
:1014000000AF786039607B68022B01DC032323E0A6
:101410007B68032B01DD02231EE03B6804331B685D
:10142000184604F0B9F902460B4610461946FFF774
:1014300055FB03460A4A53643B6808331B68184649
:1014400004F0AAF902460B4610461946FFF746FB80
:101450000346034A1364002318460837BD4680BD7F
:101460005404002080B58AB000AF786039607B6892
:10147000002B01DC032318E07B68012B01DD022334
:1014800013E00C4BD3F88C301846FEF7D7FF02461A
:101490000B4607F10800084905F05CFD07F1080359
:1014A0001946064801F084FC002318462837BD463B
:1014B00080BD00BF54040020189C0008F4030020E5
:1014C00080B582B000AF786039607B68022B01DCA8
:1014D000032323E07B68032B01DD02231EE03B682E
:1014E00004331B68184604F057F902460B461046B1
:1014F0001946FFF7F3FA03460A4A13623B680833BA
:101500001B68184604F048F902460B461046194677
:10151000FFF7E4FA0346034AD3610023184608376D
:10152000BD4680BD5404002080B58AB000AF78600D
:1015300039607B68002B01DC032334E07B68012BDE
:1015400001DD02232FE01A4B1B78DBB2022B09D0FE
:10155000174B1B78DBB2032B04D0154B1B78DBB287
:10156000042B1BD1124BD3F88C30114AD2F89020A7
:1015700011461846FFF710FC03461846FEF75EFFBB
:1015800002460B4607F108000A4905F0E3FC07F1A3
:1015900008031946084801F00BFC03E00749064818
:1015A00001F006FC002318462837BD4680BD00BF69
:1015B00054040020289C0008F4030020409C0008EC
:1015C000B0B58CB002AF786039607B68002B01DC6D
:1015D000032347E07B68012B01DD022342E023491E
:1015E000234801F0E5FB234B1B6C1846FEF726FF52
:1015F00004460D461F4B5B6C1846FEF71FFF024664
:101600000B4607F10800CDE9002322462B461A4974
:1016100005F0A0FC07F108031946154801F0C8FBC6
:101620001649134801F0C4FB124BDB691846FEF75C
:1016300005FF04460D460F4B1B6A1846FEF7FEFEDB
:1016400002460B4607F10800CDE9002322462B464F
:10165000094905F07FFC07F108031946044801F029
:10166000A7FB002318462837BD46B0BD509C000894
:10167000F403002054040020749C00088C9C000893
:1016800080B582B000AF5BE0334801F0A8FB0346B1
:10169000FB71FB791946304801F057FBFB790D2BA4
:1016A00002D0FB790A2B2ED12C4B1B78002B25D096
:1016B0002A4B1B781A462A4B00219954274B1B783A
:1016C0000133DAB2254B1A702548FFF781FD034636
:1016D000BB71224B00221A7022491F4801F068FB9F
:1016E00097F90630204A52F8233019461A4801F07B
:1016F0005FFB1E49184801F05BFB21E019491648C1
:1017000001F056FB1CE0FB79082B02D0FB797F2B04
:101710000AD1124B1B78002B12D0104B1B78013BC7
:10172000DAB20E4B1A700BE00C4B1B7819460C4AC0
:10173000FB795354094B1B780133DAB2074B1A700B
:10174000054801F0F0FA0346002B9DD100BF00BF11
:101750000837BD4680BD00BFF4030020F30300201E
:10176000F4020020B09C000800000020B89C000893
:1017700080B500AF0249034803F054FE00BF80BDAE
:101780008C0000208800002098B500AF2F4BD3F8C4
:1017900088302F491846FFF79DFC0346002B09D1DE
:1017A0002A4BD3F88C302B491846FFF7B1FC03467F
:1017B000002B02D0254B00221A70274B9B7CC72B95
:1017C0002BD9254BDB681846FFF78EFA03462349D1
:1017D0001846FFF795FB03461A461F4B5A601E4BEF
:1017E0005B681846FFF79EFC03469BB2184602F062
:1017F00071FB0346184A9360174B9B68184600F02C
:1018000031F80346144A146815491846FFF7C4FA1C
:1018100003462360104B00229A74002002F0AEFAB7
:1018200003461A460C4B1A820B4B1B8A1A460A4B6C
:101830001B8A02FB03F31A46074BDA60064B9B7CBC
:101840000133DAB2044B9A7400BF98BD54040020EF
:101850000000AA42008084431C040020000048438A
:101860000000204180B584B000AF78604FF00001E7
:101870007868FFF72FFC0346002B01D01F4B38E0A0
:101880007B68FB601E4BBB6010E0F9687868FFF76F
:1018900037FB0346F9681846FFF776F903464FF021
:1018A0007C511846FFF778FA0346FB60F968F86840
:1018B000FFF772FA034679681846FFF763F90346A3
:1018C0001946B868FFF706FC0346002BDDD1F9681E
:1018D000F868FFF761FA034619467868FFF752F98E
:1018E00003461946B868FFF7F5FB0346002BCCD139
:1018F000FB6818461037BD4680BD00BF000080BFA2
:1019000017B7D13880B483B000AF786039603B68D6
:101910001B0A9AB27B681A6100BF0C37BD4680BCB7
:10192000704780B483B000AF786039603B681B0AB1
:101930009AB27B685A6100BF0C37BD4680BC7047C5
:1019400080B582B000AF786006497868FFF724FA66
:10195000034605491846FFF717F9034618460837A6
:10196000BD4680BDCDCCCC3D0000204080B500AF51
:1019700000F01EFA264B274A1A60254B264A5A6069
:10198000234B264A9A60224B254ADA60204B254A8F
:101990005A611F4B244A1A611D4B1B6800221A70A2
:1019A0001B4B5B68214ADA61194B5B681F4A9A61DD
:1019B000174B5B681E4A1A62154B9B681B4ADA611B
:1019C000134B9B68194A9A61114B9B68194A1A621A
:1019D0000F4BDB680122DA600D4BDB6801221A74C1
:1019E0000B4BDB68144A1A6000F0EEF9084BDB6819
:1019F000184600F015FF064B5B68184603F062FBC3
:101A0000034B9B68184603F05DFB00BF80BD00BF21
:101A10003004002054040020580400207C040020DE
:101A2000A0040020E0040020E4040020CDCCCC3D44
:101A3000000068420000C040002C014080B500AFAB
:101A40000249034803F0EEFC00BF80BD9C0000206B
:101A50009800002090B583B000AFA14B1B681B78A5
:101A6000062B00F2358101A252F823F0891A0008F2
:101A7000CF1A0008FD1A0008B91B0008311C000825
:101A80004D1C00088F1C0008964BD3F888309649EF
:101A90001846FFF733FB0346002B10D0914BD3F8C9
:101AA0008C3092491846FFF71FFB0346002B06D0E7
:101AB00000F072F98A4B1B6806221A700BE1884B02
:101AC000DB68184600F015FF00F072F903E1844B63
:101AD0001B7F184603F0C4F9814B1B7F3C2B06D1BA
:101AE0007F4B00221A777E4B1B6802221A707C4BB8
:101AF0001B7F0133DAB27A4B1A77ECE0784B1B7F0D
:101B00000A2B24D1012002F0B9F97860744B1C69CA
:101B10007868FFF715FF03462360714B1B691B684C
:101B20006F4A92681146184603F0F2FA6C4B9B68B4
:101B30009B68184603F064F90346694A9361684B51
:101B40009B69184603F0DCF9654B00221A77644B59
:101B50001B7F0133DAB2624B1A77614B5C6902205A
:101B600002F08CF90346236000F0DAF85C4B5B6905
:101B70001B685F491846FFF7CBFA0346002B00D1DC
:101B8000A9E0574B1B691B684FF07C511846FFF7C3
:101B9000B5FA0346002B07D0514B1B6803221A707D
:101BA0004F4B00221A7796E04D4B1B6805221A70A6
:101BB0004B4B00221A778EE0494B1B7F0A2B19D121
:101BC000474B5B691B68464A52681146184603F04A
:101BD0009FFA434B5B689B68184603F0A5FB0346DE
:101BE0003F4A93613E4B9B69184603F089F93C4B91
:101BF00000221A773A4B1B7F0133DAB2384B1A773F
:101C0000374B1B691B684FF07C511846FFF76CFA85
:101C10000346002B00D15EE0364B47F230521A806B
:101C20002F4B00221A772E4B1B6804221A7052E0A9
:101C3000304B1B88002B4DD1294BDB68184600F038
:101C400058FE274B1B6805221A7043E0244B5C6941
:101C5000022002F013F90346236000F061F8204BE4
:101C60005B691B6824491846FFF734FA0346002BCA
:101C700000D130E01A4BDB68184600F0D1FD184B5C
:101C800000221A77164B1B6806221A7023E0144BA9
:101C90005C69022002F0F2F80346236000F040F88D
:101CA0000F4B5B691B6814491846FFF727FA034678
:101CB000002B00D10FE00A4BDB68184600F0B0FDA6
:101CC000074B00221A77064B1B6801221A7002E0AC
:101CD00000BF00E000BF00BF0C37BD4690BD00BF95
:101CE00030040020540400200000AA4200808443F5
:101CF000000068425004002000002C4280B400AF75
:101D0000064B1B88002B05D0044B1B88013B9AB265
:101D1000024B1A8000BFBD4680BC704750040020B3
:101D200090B583B000AF1A4B5B691B687B60786825
:101D3000FEF784FB12A3D3E90023FEF701FD024660
:101D40000B461046194610A3D3E90023FEF718FAF4
:101D500002460B46104619464FF000020D4BFEF7A7
:101D6000C5FB02460B460A494C6910461946FEF768
:101D7000B5FE0346236000BF0C37BD4690BD00BFD3
:101D8000B81E85EB51B808406666666666660A400E
:101D90003004002000002A4080B500AF024903480B
:101DA000FFF7BFFD00BF80BD10001004000C014014
:101DB00080B500AF02490348FFF7A4FD00BF80BD16
:101DC00010001004000C014080B400AF074B084A1B
:101DD0009A61064B00221A77044B5B694FF00002B0
:101DE0001A6000BFBD4680BC704700BF30040020B1
:101DF0000087930380B483B000AF786039603B689C
:101E00001B0A9AB27B681A6100BF0C37BD4680BCC2
:101E1000704780B483B000AF786039603B681B0ABC
:101E20009AB27B685A6100BF0C37BD4680BC7047D0
:101E300080B485B000AF786039607B68DB68FB6098
:101E40003B681B0A9BB2BB60FA68BB6813401A046C
:101E5000FB68D943BB680B401A437B681A6100BF1B
:101E60001437BD4680BC704780B500AF40F2011109
:101E70001048FFF7CEFF40F202210E48FFF7C9FFDE
:101E800040F204410B48FFF7C4FF0B4B0B4A1A60AA
:101E9000094A13796FF300031371074A13796FF33B
:101EA00041031371044A13796FF38203137100BF66
:101EB00080BD00BF000C0140E80400205404002055
:101EC00080B500AF0449054803F0EAFA0449054823
:101ED00003F0E6FA00BF80BDBC000020B80000207F
:101EE000C8000020C400002080B500AF02490348AC
:101EF00003F098FA00BF80BDAC000020A8000020CD
:101F000080B500AF4A4B1B681B78062B00F2888017
:101F100001A252F823F000BF351F0008351F00084A
:101F2000731F0008731F0008731F0008AB1F000811
:101F3000E31F000840F201113E48FFF76AFF40F23C
:101F400002213C48FFF765FF40F204413948FFF7A2
:101F500060FF374A13796FF300031371364B1B7818
:101F6000184603F001FB344B1B7B184603F0FCFAC8
:101F70005BE02F4B1B7903F00403DBB2002B51D144
:101F80002D4B1B78184603F0EFFA2B4B1B7B1846A2
:101F900003F0C4FA264A13796FF341031371244AFC
:101FA000137943F0040313713CE0214B1B7903F0D8
:101FB0000203DBB2002B37D11F4B1B7B184603F00B
:101FC000D3FA1D4B1B78184603F0A8FA184A137968
:101FD00043F002031371164A13796FF382031371EE
:101FE00022E040F201111348FFF704FF40F2022102
:101FF0001048FFF7FFFE40F204410E48FFF7FAFEDB
:102000000B4A137943F0010313710B4B1B781846ED
:1020100003F0AAFA084B1B7B184603F0A5FA04E06C
:1020200000BF02E000BF00E000BF00BF80BD00BFF6
:10203000E8040020000C0140B800002080B500AF8B
:10204000184B1B7903F00103DBB2002B14D140F2D3
:1020500001111548FFF7DDFE40F202211248FFF79B
:10206000D8FE40F204411048FFF7D3FE0D4A137921
:1020700043F00103137113E040F201110A48FFF726
:10208000B9FE40F202210848FFF7B4FE40F20441D5
:102090000548FFF7AFFE034A13796FF3000313718E
:1020A00000BF80BDE8040020000C014080B500AFF7
:1020B0001F4B1B681B78042B26D0042B34DC022B0F
:1020C00002D0032B10D02FE040F201111948FFF786
:1020D000AFFE40F202211748FFF79BFE40F2044199
:1020E0001448FFF796FE20E040F202211148FFF766
:1020F0009FFE40F201110F48FFF78BFE40F20441B2
:102100000C48FFF786FE10E040F204410948FFF753
:102110008FFE40F202210748FFF77BFE40F20111DB
:102120000448FFF776FE00E000BF00BF80BD00BF9F
:10213000E8040020000C014080B483B000AF786058
:102140007B681B6803F00103012B0CBF01230023F4
:10215000DBB218460C37BD4680BC704780B483B0F4
:1021600000AF78607B685B6903F08003802B0CBF55
:1021700001230023DBB218460C37BD4680BC7047F4
:1021800080B483B000AF78607B685B6903F00403C0
:10219000042B0CBF01230023DBB218460C37BD46CD
:1021A00080BC704780B483B000AF78607B685B69A7
:1021B00003F04003402B0CBF01230023DBB2184681
:1021C0000C37BD4680BC704780B483B000AF7860E8
:1021D0007B685B6903F00203022B0CBF0123002321
:1021E000DBB218460C37BD4680BC704780B485B062
:1021F00000AF78607B685B69FB60FB687B689B690C
:10220000FB60FB6800BF1437BD4680BC704780B4DC
:1022100083B000AF78607B681B6843F400727B6812
:102220001A6000BF0C37BD4680BC704780B483B0D5
:1022300000AF78607B681B69DBB218460C37BD467F
:1022400080BC704780B582B000AF78607B681B6847
:10225000184600F0F7F803461A467B681A737B6845
:102260001B7BDBB2002B01D1002331E07B681A68B5
:102270007B68DB899BB2DBB21946104600F016F989
:1022800003461A467B681A737B681B7BDBB2002B04
:1022900001D100231CE07B6818687B6899687B6823
:1022A0005B681A4600F028F903461A467B681A73E1
:1022B0007B681B7BDBB2002B01D1002308E07B682D
:1022C0001B68184600F0E6F87B6801221A730123A8
:1022D00018460837BD4680BD90B585B000AF786020
:1022E0007B689B68FB607B681B68184600F0AAF857
:1022F00003461A467B681A737B681B7BDBB2002B94
:1023000001D1002389E07B681A687B68DB899BB276
:10231000DBB21946104600F0C9F87B689B68012BB8
:102320004CD027E07B681B68184600F035F903465F
:102330001A467B681A737B681B7BDBB2002B01D1CA
:1023400000236AE07B6818687B685A687B68996834
:10235000FB68CB1AD418FFF769FF034623707B682C
:102360001B681A687B681B6842F480621A60FB680D
:10237000013BFB60FB68022BD4D87B681B681846C6
:1023800000F00AF903461A467B681A737B681B7BC8
:10239000DBB2002B01D100233FE07B6818687B682B
:1023A0005A687B689968FB68CB1AD418FFF73EFF20
:1023B00003462370FB68013BFB6000E000BF7B68C5
:1023C0001B681A687B681B6822F480621A607B684D
:1023D0001B68184600F05EF87B681B68184600F022
:1023E000DBF803461A467B681A737B681B7BDBB2FB
:1023F000002B01D1002310E07B6818687B685A68C5
:102400007B689968FB68CB1AD418FFF70FFF034667
:1024100023707B6801221A73012318461437BD46C6
:1024200090BD000080B400AF054B1B68044B1B68D7
:10243000013B034A136000BFBD4680BC704700BF2C
:10244000F004002080B582B000AF78607B681B6824
:1024500043F480627B681A607B681B6843F4807277
:102460007B681A600A4B4FF47A721A6005E0084BD9
:102470001B68002B01D1002306E07868FFF75CFEA3
:102480000346002BF3D1012318460837BD4680BD13
:10249000F004002080B582B000AF78607868FFF764
:1024A000B6FE00BF0837BD4680BD000080B582B0D3
:1024B00000AF78600B46FB700D4AFB7813610D4B43
:1024C0004FF47A721A6005E00A4B1B68002B01D1A9
:1024D000002309E07868FFF777FE0346002BF3D06E
:1024E0007868FFF783FE012318460837BD4680BD94
:1024F00000540040F004002080B584B000AFF860C4
:10250000B9607A60224B4FF47A721A6005E0204B72
:102510001B68002B01D1002335E0F868FFF71EFE91
:102520000346002BF3D019E0194B4FF47A721A606E
:1025300005E0174B1B68002B01D1002323E0F8684E
:10254000FFF70CFE0346002BF3D07B685A1C7A6021
:102550001A78104B1A61BB68013BBB60BB68002B4B
:10256000E2D10B4B4FF47A721A6005E0084B1B68FE
:10257000002B01D1002306E0F868FFF701FE0346B7
:10258000002BF3D0012318461037BD4680BD00BF95
:10259000F00400200054004080B582B000AF7860A5
:1025A0000A4B4FF47A721A6005E0084B1B68002B47
:1025B00001D1002306E07868FFF7F4FD0346002B05
:1025C000F3D0012318460837BD4680BDF004002033
:1025D00080B483B000AF03463960FB7197F90730D0
:1025E000002B0ADB3B68DAB20C4997F9073012017D
:1025F000D2B20B4483F800230AE03B68DAB2084900
:10260000FB7903F00F03043B1201D2B20B441A769C
:1026100000BF0C37BD4680BC704700BF00E100E042
:1026200000ED00E080B582B000AF78607B68013BD0
:10263000B3F1807F01D301230FE00A4A7B68013B9D
:1026400053600F214FF0FF30FFF7C2FF054B002210
:102650009A60044B07221A60002318460837BD46CB
:1026600080BD00BF10E000E080B400AF044B1B68E9
:10267000034A43F00103136000BFBD4680BC7047AE
:1026800010E000E080B500AF054B1B68054AA2FBD7
:1026900003239B091846FFF7C5FF00BF80BD00BF9D
:1026A000D4000020D34D621080B483B000AF7860B6
:1026B0007B681B6843F001027B681A6000BF0C371F
:1026C000BD4680BC704780B483B000AF78607B6843
:1026D0001B6823F001027B681A6000BF0C37BD46FF
:1026E00080BC704780B483B000AF786039607B688D
:1026F0001A6A3B681A437B681A6200BF0C37BD46F2
:1027000080BC704780B483B000AF786039607B686C
:102710001A6A3B68DB431A407B681A6200BF0C37B9
:10272000BD4680BC7047000080B487B000AFF86041
:10273000B9607A60BB68012B1CD0BB68042B17D032
:10274000BB68102B12D0BB68402B0DD0BB68B3F513
:10275000807F07D0BB68B3F5806F01D105230AE005
:10276000062308E0042306E0032304E0022302E03A
:10277000012300E00023FB75FB6818331946FB7D3D
:102780000D4AD35C0B443B613B691A68FB7D0B49E6
:10279000CB5C194673238B40DB431A40FB7D074912
:1027A000CB5C19467B688B401A433B691A6000BFBB
:1027B0001C37BD4680BC7047BC9C0008C49C000808
:1027C00080B483B000AF786039607B685B6C23F0C5
:1027D000FF023B681A437B685A6400BF0C37BD4652
:1027E00080BC704780B483B000AF78607B685B6C5E
:1027F00043F400427B685A6400BF0C37BD4680BC7E
:10280000704780B483B000AF78607B685B6C23F462
:1028100000427B685A6400BF0C37BD4680BC7047DD
:1028200080B584B000AF78607B681B7CDBB2002B86
:1028300004D07B681B7CDBB2012B1ED17B68DB687C
:10284000012B02D10123FB6017E07B68DB68102BB2
:1028500002D11023FB6010E07B68DB68B3F5807F5A
:1028600003D14FF48073FB6007E07B68DB68B3F54E
:10287000805F02D14FF48053FB607B681B7CDBB22E
:10288000012B1AD17B68DB68012B04D1FB6843F074
:102890000403FB6011E07B68DB68102B04D1FB684C
:1028A00043F04003FB6008E07B68DB68B3F5807FA2
:1028B00003D1FB6843F48063FB607B6818687B6826
:1028C000DB6860221946FFF72FFF7B681B68F968F9
:1028D0001846FFF707FF7B681B681846FFF782FF63
:1028E0007B681B681846FFF7DFFE00BF1037BD4648
:1028F00080BD80B584B000AF78607B681B7CDBB2A4
:10290000002B04D07B681B7CDBB2012B1ED17B68C3
:10291000DB68012B02D10123FB6017E07B68DB68D9
:10292000102B02D11023FB6010E07B68DB68B3F54D
:10293000807F03D14FF48073FB6007E07B68DB6826
:10294000B3F5805F02D14FF48053FB607B681B7C42
:10295000DBB2012B1AD17B68DB68012B04D1FB6849
:1029600043F00403FB6011E07B68DB68102B04D1AB
:10297000FB6843F04003FB6008E07B68DB68B3F56D
:10298000807F03D1FB6843F48063FB607B681B6836
:10299000F9681846FFF7B6FE7B681B681846FFF714
:1029A00030FF7B681B681846FFF78DFE00BF1037AD
:1029B000BD4680BD80B582B000AF78607B681A6884
:1029C0007B685B7CDBB219461046FFF7F9FE7B683B
:1029D0001B899AB27B681B689A627B689B889AB253
:1029E0007B681B68DA627B68DB889AB27B681B684D
:1029F0005A6300BF0837BD4680BD80B483B000AFC6
:102A000078607B681B6803F00203022B0CBF012374
:102A10000023DBB218460C37BD4680BC704780B43B
:102A200083B000AF78607B681B6803F00403042B5D
:102A30000CBF01230023DBB218460C37BD4680BC17
:102A4000704780B483B000AF78607B681B6803F088
:102A50000803082B0CBF01230023DBB218460C37F8
:102A6000BD4680BC704780B483B000AF78607B689F
:102A70001B6803F02003202B0CBF01230023DBB2D3
:102A800018460C37BD4680BC704780B483B000AF99
:102A900078607B681B6803F08003802B0CBF0123E8
:102AA0000023DBB218460C37BD4680BC704780B4AB
:102AB00085B000AF78607B681B68FB60FB687B6853
:102AC0005B68FB60FB6800BF1437BD4680BC704785
:102AD00080B485B000AF78607B681B68FB60FB68E2
:102AE0007B685B68FB60FB6800BF1437BD4680BC39
:102AF000704780B485B000AF78607B681B68FB606E
:102B0000FB687B685B68FB60FB6800BF1437BD46F1
:102B100080BC704780B489B000AF78607B680C33AC
:102B2000FB60FB6853E8003FBB60BB6843F02003D9
:102B3000FB617B680C33FA69BA617B617969BA69B8
:102B400041E800233B613B69002BE7D100BF00BF98
:102B50002437BD4680BC704780B489B000AF786030
:102B60007B680C33FB60FB6853E8003FBB60BB68CD
:102B700043F08003FB617B680C33FA69BA617B61C7
:102B80007969BA6941E800233B613B69002BE7D1D1
:102B900000BF00BF2437BD4680BC704780B489B0F9
:102BA00000AF78607B681433FB60FB6853E8003F3C
:102BB000BB60BB6843F00103FB617B681433FA69B7
:102BC000BA617B617969BA6941E800233B613B697D
:102BD000002BE7D100BF00BF2437BD4680BC704743
:102BE00080B489B000AF78607B680C33FB60FB6811
:102BF00053E8003FBB60BB6823F02003FB617B68A8
:102C00000C33FA69BA617B617969BA6941E80023DA
:102C10003B613B69002BE7D100BF00BF2437BD46B5
:102C200080BC704780B489B000AF78607B680C339B
:102C3000FB60FB6853E8003FBB60BB6823F0800388
:102C4000FB617B680C33FA69BA617B617969BA69A7
:102C500041E800233B613B69002BE7D100BF00BF87
:102C60002437BD4680BC704780B483B000AF786025
:102C70007B68DB6803F02003202B0CBF01230023BB
:102C8000DBB218460C37BD4680BC704780B483B0B9
:102C900000AF78607B68DB6803F08003802B0CBF9B
:102CA00001230023DBB218460C37BD4680BC7047B9
:102CB00080B483B000AF78607B685B68DBB2184695
:102CC0000C37BD4680BC704780B483B000AF7860DD
:102CD0000B46FB70FA787B685A6000BF0C37BD4624
:102CE00080BC704780B584B000AFF860B96013460F
:102CF000FB71FB68BA681A62FB68FA7983F82420D2
:102D0000FB681033184602F07BFAFB68184602F0A5
:102D100077FAB868FFF742FFB868FFF7FBFE00BF1D
:102D20001037BD4680BD80B582B000AF78607B684B
:102D3000184602F08FFA0346002B01D0002300E072
:102D4000012318460837BD4680BD80B584B000AF6A
:102D500078600B46FB704FF47A73FB6005E0FB680C
:102D6000002B21D0FB68013BFB607B6810331846C9
:102D700002F080FA0346002BF1D17B681B6A1846EB
:102D8000FFF72EFF7B681033FA781146184602F0E1
:102D900081FA7B681B6A1846FFF7BCFE7B681B6ADA
:102DA0001846FFF7D9FE00E000BF1037BD4680BDD2
:102DB00080B582B000AF7860396007E03B685A1C8C
:102DC0003A601B7819467868FFF7BFFF3B681B78AD
:102DD000002BF3D100BF00BF0837BD4680BD90B5C2
:102DE00083B000AF786000247B68184602F032FAA6
:102DF000034683F00103DBB2002B11D07B681B6A12
:102E00001846FFF7EDFE7B68184602F069FA0346A4
:102E10001C467B681B6A1846FFF77CFE234600E0D1
:102E2000234618460C37BD4690BD000080B400AF65
:102E3000064B1B68002B04D0044B1B68013B034A64
:102E4000136000BFBD4680BC704700BFF404002083
:102E500080B584B000AF78607B681B6A1846FFF7C6
:102E600002FE0346002B3DD07B681B6A1846FFF725
:102E7000FBFE0346002B35D07B681B6A1846FFF724
:102E800017FF0346FB737B681B6A1846FFF7D9FDE3
:102E90000346002B0FD17B681B6A1846FFF7ADFD78
:102EA0000346002B07D17B681B6A1846FFF7B7FD66
:102EB0000346002B0FD07B681B6A1846FFF719FEEC
:102EC0007B681B6A1846FFF7F2FD7B681B6A184691
:102ED000FFF7FEFD33E07B68FA7B1146184602F0EF
:102EE000D9F92CE07B681B6A1846FFF7CEFD034634
:102EF000002B24D07B681B6A1846FFF7C7FE0346E9
:102F0000002B1CD07B681033184602F0A3F903464F
:102F1000002B05D07B681B6A1846FFF783FE0DE087
:102F20007B681033184602F0DBF90346BB737B68FD
:102F30001B6ABA7B11461846FFF7C6FE00BF103762
:102F4000BD4680BD80B485B000AF78607B6803F07B
:102F50000703FB600C4BDB68BB60BA684FF6FF03EE
:102F60001340BB60FB681A02BB68134343F0BF63A6
:102F700043F40033BB60044ABB68D36000BF14371E
:102F8000BD4680BC704700BF00ED00E080B400AFDC
:102F9000044BDB681B0A03F007031846BD4680BCE0
:102FA000704700BF00ED00E080B483B000AF03467F
:102FB000FB7197F90730002B0BDBFB7903F01F0245
:102FC000064997F907305B09012000FA02F241F83F
:102FD000232000BF0C37BD4680BC704700E100E0F5
:102FE00080B483B000AF03463960FB7197F90730B6
:102FF000002B0ADB3B68DAB20C4997F90730120163
:10300000D2B20B4483F800230AE03B68DAB20849E5
:10301000FB7903F00F03043B1201D2B20B441A7682
:1030200000BF0C37BD4680BC704700BF00E100E028
:1030300000ED00E080B489B000AFF860B9607A605C
:10304000FB6803F00703FB61FB69C3F10703042B73
:1030500028BF0423BB61FB690433062B02D9FB693B
:10306000033B00E000237B614FF0FF32BB6902FAB3
:1030700003F3DA43BB681A407B699A404FF0FF3193
:103080007B6901FA03F3D9437B680B40134318466D
:103090002437BD4680BC704780B483B000AF7860F1
:1030A0007B681B6823F080027B681A6000BF0C37C6
:1030B000BD4680BC704780B483B000AF78607B6849
:1030C0001B6823F040027B681A6000BF0C37BD46C6
:1030D00080BC704780B483B000AF786039607B6893
:1030E000DB6823F0FE023B681A437B68DA6000BFAE
:1030F0000C37BD4680BC704780B483B000AF7860A9
:103100007B68DB6823F001027B68DA6000BF0C3764
:10311000BD4680BC7047000080B400AF044B1B6804
:10312000034A43F48033136000BFBD4680BC704740
:103130000010024080B400AF064B1B6803F400335C
:10314000B3F5003F0CBF01230023DBB21846BD4698
:1031500080BC70470010024080B483B000AF78603C
:10316000064B5B6823F0030204497B6813434B6002
:1031700000BF0C37BD4680BC704700BF0010024046
:1031800080B400AF034B5B6803F00C031846BD46E8
:1031900080BC70470010024080B483B000AF7860FC
:1031A000064B5B6823F0F00204497B6813434B60D5
:1031B00000BF0C37BD4680BC704700BF0010024006
:1031C00080B483B000AF7860064B5B6823F4E062A4
:1031D00004497B6813434B6000BF0C37BD4680BC7D
:1031E000704700BF0010024080B483B000AF786029
:1031F000064B5B6823F4605204497B6813434B60C1
:1032000000BF0C37BD4680BC704700BF00100240B5
:1032100080B400AF044B1B68034A43F08073136013
:1032200000BFBD4680BC70470010024080B400AFB4
:10323000064B1B6803F00073B3F1007F0CBF012342
:103240000023DBB21846BD4680BC70470010024028
:1032500080B483B000AF78603960084B5B6823F4BA
:103260007C127B6803F440313B680B4303491343F2
:103270004B6000BF0C37BD4680BC70470010024059
:1032800080B485B000AF7860084BDA6907497B6885
:103290001343CB61054BDA697B681340FB60FB6825
:1032A00000BF1437BD4680BC704700BF001002400D
:1032B00080B485B000AF7860084B9A6907497B6895
:1032C00013438B61054B9A697B681340FB60FB6875
:1032D00000BF1437BD4680BC704700BF00100240DD
:1032E00080B483B000AF7860064B1B6823F0070200
:1032F00004497B6813430B6000BF0C37BD4680BC9C
:10330000704700BF0020024080B400AF034B1B6831
:1033100003F007031846BD4680BC704700200240FA
:1033200080B483B000AF78607B681B6843F0800294
:103330007B681A6000BF0C37BD4680BC704780B404
:1033400083B000AF78607B681B6823F080027B68E5
:103350001A6000BF0C37BD4680BC704780B485B092
:1033600000AF786039603B68012B1CD03B68042BB0
:1033700017D03B68102B12D03B68402B0DD03B6818
:10338000B3F5807F07D03B68B3F5806F01D105238B
:103390000AE0062308E0042306E0032304E00223F6
:1033A00002E0012300E00023FB737B681833194619
:1033B000FB7B0A4AD35C0B44BB60BB681A68FB7B8F
:1033C0000749CB5C194604238B40DB431A40BB689A
:1033D0001A6000BF1437BD4680BC7047CC9C000803
:1033E000D49C000880B485B000AF786039603B6839
:1033F000012B1CD03B68042B17D03B68102B12D03C
:103400003B68402B0DD03B68B3F5807F07D03B680D
:10341000B3F5806F01D105230AE0062308E00423F9
:1034200006E0032304E0022302E0012300E000237E
:10343000FB737B6818331946FB7B0A4AD35C0B4449
:10344000BB60BB681A68FB7B0749CB5C1946082345
:103450008B401A43BB681A6000BF1437BD4680BC5E
:10346000704700BFCC9C0008D49C000880B483B097
:1034700000AF786039607B689B6823F4804323F059
:1034800007033A681A437B689A6000BF0C37BD4651
:1034900080BC704780B483B000AF786039607B68CF
:1034A0005B6823F070023B681A437B685A6000BF78
:1034B0000C37BD4680BC704780B483B000AF7860E5
:1034C0007B689B6823F080027B689A6000BF0C37A2
:1034D000BD4680BC704780B483B000AF78607B6825
:1034E000DB6843F400527B68DA6000BF0C37BD46EE
:1034F00080BC704780B483B000AF78607B681B6984
:1035000023F490427B681A617B685B6923F02A028E
:103510007B685A6100BF0C37BD4680BC704780B4E1
:1035200083B000AF786039603B681B0A9AB27B6851
:103530005A6100BF0C37BD4680BC704780B400AFF5
:10354000074B5B6823F0E06323F0C003044A43F0B9
:10355000E06343F04003536000BFBD4680BC70474A
:103560000000014080B400AF054B5B6823F0E063CE
:10357000034A43F00073536000BFBD4680BC7047F0
:103580000000014080B500AF0120FFF791FE4FF031
:103590008050FFF775FE0320FFF7D4FCFFF7F6FC21
:1035A000034600220F211846FFF744FD0346194643
:1035B0004FF0FF30FFF714FDFFF7D4FF00F024F8C1
:1035C00000F05AFA00F08AF900F0B0F800F05AF86A
:1035D00000F0ECF900F042F9FDF754FEFEF7C6F9F1
:1035E000FEF742FC01F0D0FEFEF76AFCFDF762FE3A
:1035F000FEF724FAFEF7BCF8FEF776FC02F06CF852
:1036000002F070F8FCE7000080B500AF0220FFF781
:1036100067FE00BFFFF778FE0346022BFAD1FFF7E3
:103620007BFD00BFFFF786FD0346012BFAD14FF467
:1036300050114FF44030FFF70BFEFFF7E9FD00BFDC
:10364000FFF7F4FD0346012BFAD10020FFF7A4FD9C
:103650004FF48060FFF7B4FD0020FFF7C5FD0220A6
:10366000FFF77AFD00BFFFF78BFD0346082BFAD169
:10367000034801F085FB024801F0B4FB00BF80BDA8
:103680000087930380B58CB000AF07F118030022C8
:103690001A605A609A60DA601A615A613B1D002212
:1036A0001A605A609A60DA601A610820FFF700FE1B
:1036B0004CF2C0037B600923BB600323FB6004233F
:1036C0003B613B1D1946164800F0DAFC4FF4001030
:1036D000FFF7D6FD1348FFF70FFD1248FFF7EBFC8D
:1036E0001048FFF7D9FC0023BB610F4BFB6100239F
:1036F0003B6200237B624FF48063BB624FF48043E4
:10370000FB6207F118031946064800F00FFE00217E
:103710000448FFF7DFFC00BF3037BD4680BD00BF67
:10372000000C014000540040801A060080B598B09B
:1037300000AF07F14C0300221A605A609A60DA6009
:103740001A6107F12C0320220021184603F065FCC2
:1037500007F1140300221A605A609A60DA601A6155
:103760005A613B4600221A605A609A60DA601A6118
:103770004FF40060FFF79CFD0023A7F84C300023B6
:103780003B654FF6FF737B650023BB650023FB653C
:1037900007F14C0319462E4800F076FF2C48FFF73E
:1037A000CEFD00212A48FFF761FE01212848FFF7DE
:1037B00019FE6023FB6200233B6300237B6300232D
:1037C000BB630023FB6300233B6400237B64002373
:1037D000BB6407F12C031A4601211D4800F0B2FF1B
:1037E00001211B48FFF7BAFD00211948FFF752FEDF
:1037F0001748FFF761FE00237B610023BB610023B4
:10380000FB61542387F8203000237B844FF400535E
:103810007B620023BB6207F1140319460C4800F0D9
:10382000D2FF0420FFF744FD0A4B3B6009237B6075
:103830000223BB600023FB603B461946064800F0AC
:103840001FFCFFF77BFE00BF6037BD4680BD00BF99
:10385000002C0140818001040008014080B586B041
:1038600000AF3B1D00221A605A609A60DA601A614C
:103870000220FFF705FDFFF789FB03460022012127
:103880001846FFF7D7FB034619461D20FFF7A8FB94
:103890001D20FFF789FB3B23BB800023BB6040F268
:1038A000F313FB6000233B613B1D19460A4800F0FF
:1038B000EBFE0948FFF734FD00210748FFF7D6FD6E
:1038C00000210548FFF7E6FD0348FFF7F5FD00BFBF
:1038D0001837BD4680BD00BF0004004080B58CB0E5
:1038E00000AF07F1140300221A605A609A60DA6090
:1038F0001A615A619A613B4600221A605A609A60C6
:10390000DA601A614FF48040FFF7D2FC0420FFF721
:10391000CFFC224B3B6009237B600323BB60002369
:10392000FB603B4619461E4800F0AAFB1D4B3B605E
:1039300004237B603B461946194800F0A1FBFFF7C2
:1039400025FB0346002202211846FFF773FB0346BE
:1039500019462520FFF744FB2520FFF725FB4FF4F0
:10396000E1337B610023BB610023FB6100233B62E9
:103970000C237B620023BB620023FB6207F114036C
:103980001946094801F082F90748FFF7B3FD0648D8
:10399000FFF7A1FD00BF3037BD4680BD0200020425
:1039A00000080140040004040038014080B58CB0D8
:1039B00000AF07F1140300221A605A609A60DA60BF
:1039C0001A615A619A613B4600221A605A609A60F5
:1039D000DA601A614FF40030FFF752FC0420FFF761
:1039E00067FC40F204433B6009237B600323BB6018
:1039F0000023FB603B4619461D4800F041FB40F6A2
:103A000008033B6004237B603B461946184800F0DE
:103A100037FBFFF7BBFA0346002202211846FFF7E7
:103A200009FB034619462620FFF7DAFA2620FFF79E
:103A3000BBFA4FF4E1337B610023BB610023FB61E0
:103A400000233B620C237B620023BB620023FB62EA
:103A500007F114031946074801F018F90548FFF764
:103A600049FD0448FFF737FD00BF3037BD4680BD34
:103A7000000801400044004080B586B000AF3B1D07
:103A800000221A605A609A60DA601A612020FFF7FB
:103A90000FFC0420FFF70CFC0820FFF709FC44F2A0
:103AA00042211348FFF73BFD12491348FFF737FD4A
:103AB00044F242237B600123BB600223FB600023AE
:103AC0003B613B1D19460A4800F0DAFA094B7B605E
:103AD0000123BB600223FB6000233B613B1D1946B1
:103AE000054800F0CDFA00BF1837BD4680BD00BFC5
:103AF0000008014037073004000C014080B500AFDA
:103B0000FFF794F9FEF78EFC00BF80BD80B400AFD4
:103B100000BFFDE780B400AF00BFFDE780B400AF99
:103B200000BFFDE780B400AF00BFFDE780B400AF89
:103B300000BFFDE780B400AF00BFBD4680BC70474A
:103B400080B400AF00BFBD4680BC704780B400AFFA
:103B500000BFBD4680BC704780B500AFFFF7CEFF09
:103B6000FEF7CCF801F024FD00BF80BD80B500AFAA
:103B7000022001F033FC00BF80BD000080B500AF23
:103B8000034B1B681846FFF763F900BF80BD00BFF9
:103B9000D000002080B400AF00BFBD4680BC70479D
:103BA00080B400AF01231846BD4680BC704780B585
:103BB00082B000AF7860396003F0A4FA03461622A1
:103BC0001A604FF0FF3318460837BD4680BD80B5F8
:103BD00082B000AF78604FF0FF317868FFF7E7FF01
:103BE00000BFFDE780B586B000AFF860B9607A60CD
:103BF00000237B610AE0AFF300800146BB685A1CDA
:103C0000BA60CAB21A707B6901337B617A697B68DA
:103C10009A42F0DB7B6818461837BD4680BD80B5F8
:103C200086B000AFF860B9607A6000237B6109E07C
:103C3000BB685A1CBA601B781846AFF300807B69DA
:103C400001337B617A697B689A42F1DB7B681846B5
:103C50001837BD4680BD80B483B000AF78604FF0A8
:103C6000FF3318460C37BD4680BC704780B483B024
:103C700000AF786039603B684FF400525A6000230F
:103C800018460C37BD4680BC704780B483B000AF87
:103C90007860012318460C37BD4680BC704780B45D
:103CA00085B000AFF860B9607A6000231846143719
:103CB000BD4680BC7047000080B586B000AF78601C
:103CC000144A154BD31A7B617B693B61134B1B680C
:103CD000002B02D1114B124A1A60104B1A687B68F4
:103CE00013443A699A4207D203F00CFA03460C22B5
:103CF0001A604FF0FF3309E0084B1B68FB60074B6D
:103D00001A687B681344054A1360FB681846183725
:103D1000BD4680BD0050002000040000F8040020D3
:103D2000C806002080B400AF00BFBD4680BC70470D
:103D3000FFF7F8FF0B480C490C4A002302E0D45867
:103D4000C4500433C4188C42F9D3094A094C0023E7
:103D500001E013600432A242FBD303F0D9F9FFF76C
:103D600011FC704700000020B4020020B0A9000838
:103D7000B4020020C8060020FEE7000080B582B033
:103D800000AF0346FB713B4B5B6801221A70FB7965
:103D9000032B23D801A252F823F000BFAD3D000849
:103DA000B93D0008C53D0008D13D0008314B5B68B6
:103DB0000133C1221A7011E02E4B5B680133D1220E
:103DC0001A700BE02B4B5B680133E1221A7005E09F
:103DD000284B5B680133F1221A7000BF254B5B68EA
:103DE00083221A70234B03229A602248FEF72AFA94
:103DF000204B1B7BDBB2002B01D1002335E01D4B98
:103E00005B6800221A701B4B01229A601948FEF76A
:103E100019FA184B1B7BDBB2002B01D1002324E0E5
:103E2000142000F0BBFF134B02229A601148FEF7EA
:103E300053FA104B5B681B78DBB21B021AB20D4BB6
:103E40005B6801331B78DBB21BB213431AB2FB79F8
:103E500091B2094A22F83310FB79074A32F833301D
:103E6000FB79054A32F833309BB218460837BD4615
:103E700080BD00BFD8000020FC04002080B582B0C7
:103E800000AF0346FB71FB791846FFF777FF0F4B36
:103E90001B889BB21846FCF72BFF03460C491846BB
:103EA000FCF77AFF03464FF08F411846FDF728F8DC
:103EB00003461A46054B5A60FB79044ADB0013445B
:103EC0005B6818460837BD4680BD00BFFC04002073
:103ED0006F12834080B584B000AF0346FB80FB883F
:103EE0001846FCF705FF034608491846FCF754FF3F
:103EF00003464FF08F411846FDF702F80346FB607A
:103F0000FB6818461037BD4680BD00BF6F12834066
:103F100090B488B000AFF860B9607A60FB681A4668
:103F2000BB681B0E13441C462268BB687B617B691F
:103F300093FAA3F33B613B69B3FA83F3DBB29B00D3
:103F40000F2101FA03F3DB431A40BB68FB61FB69F5
:103F500093FAA3F3BB61BB69B3FA83F3DBB29B00B3
:103F6000796801FA03F31343236000BF2037BD468D
:103F700090BC704790B488B000AFF860B9607A60C8
:103F8000FB681A46BB681B0E13441C462268BB68BC
:103F90007B617B6993FAA3F33B613B69B3FA83F3DB
:103FA000DBB29B00032101FA03F3DB431A40BB6839
:103FB000FB61FB6993FAA3F3BB61BB69B3FA83F3BB
:103FC000DBB29B00796801FA03F31343236000BF5F
:103FD0002037BD4690BC704790B488B000AFF86001
:103FE000B9607A60FB681A46BB681B0E13441C4616
:103FF0002268BB687B617B6993FAA3F33B613B69F1
:10400000B3FA83F3DBB29B00042101FA03F3DB4331
:104010001A40BB68FB61FB6993FAA3F3BB61BB6900
:10402000B3FA83F3DBB29B00796801FA03F313431D
:10403000236000BF2037BD4690BC704780B487B076
:1040400000AFF860B9607A60FB68DA68BB681B0A89
:10405000DB431A40BB681B0A7B617B6993FAA3F3BD
:104060003B613B69B3FA83F3DBB219467B688B4053
:104070001A43FB68DA6000BF1C37BD4680BC70473E
:1040800080B588B000AF786039603B681B681B0260
:104090001B0C7B617B693B613B6993FAA3F3FB607B
:1040A000FB68B3FA83F3DBB2FB6144E00122FB69F6
:1040B0009A407B691340002B3AD0FB69072B06D846
:1040C00040F20112FB6902FA03F3BB6108E0FB69ED
:1040D000083B4FF0011202FA03F343F08063BB6127
:1040E0003B685B68082B06D13B681B691A46B969B7
:1040F0007868FFF7A3FF3B685B681A46B969786880
:10410000FFF706FF3B685B68012B03D03B685B68E9
:10411000092B0DD13B689B681A46B9697868FFF78F
:1041200029FF3B68DB681A46B9697868FFF754FFD6
:10413000FB690133FB617A69FB6922FA03F3002B07
:10414000B4D1002318462037BD4680BD80B483B06B
:1041500000AF78607B681B6843F001027B681A60DF
:1041600000BF0C37BD4680BC704780B483B000AF41
:1041700078607B681B6823F001027B681A6000BFCF
:104180000C37BD4680BC704780B485B000AFF86086
:10419000B9607A60FB689B6823F4034323F0FF0354
:1041A000B9687A680A431A43FB689A6000BF1437FB
:1041B000BD4680BC7047000080B487B000AFF86097
:1041C000B9607A603B6000233B6100237B61BB6880
:1041D000414AA2FB03239B0C3B61FB685B6823F015
:1041E0003F023B691A43FB685A60FB681B6A23F075
:1041F0003F027B6839498B4202D83B69013309E0B1
:104200003B694FF4967101FB03F33549A1FB03139E
:104210009B0901331A43FB681A627B682F4A934259
:1042200039D93B68002B17D17A6813465B001344D9
:10423000BA68B2FBF3F3C3F30B03002B09D07A681F
:1042400013465B001344BA68B2FBF3F343F4004334
:104250001DE048F201031AE07A6813469B001344FC
:104260009A001344BA68B2FBF3F3C3F30B03002BB9
:104270000BD07A6813469B0013449A001344BA6823
:10428000B2FBF3F343F4004301E048F201033A6860
:1042900013437B6111E07B685B00BA68B2FBF3F209
:1042A00040F6FC731340002B05D07B685B00BA68B6
:1042B000B2FBF3F300E004237B61FB68DB6923F4CA
:1042C0004F4323F0FF037A691A43FB68DA6100BFAA
:1042D0001C37BD4680BC704783DE1B43A0860100AF
:1042E000D34D621080B483B000AF786039607B68D2
:1042F0001B6823F01A023B681A437B681A6000BFF0
:104300000C37BD4680BC704780B483B000AF786086
:1043100039607B681B6823F480623B681A437B68C2
:104320001A6000BF0C37BD4680BC704780B586B0B0
:1043300000AF786039607868FFF717FF07F108036E
:10434000184600F07BF839693B685A683B689B68FF
:104350007868FFF731FF3B68D9683B685B691A46AC
:104360007868FFF711FF3B681B6819467868FFF70C
:10437000B9FF7868FFF7EAFE3B681B691946786861
:10438000FFF7C2FF002318461837BD4680BD000066
:1043900080B400AF034B5B6803F00C031846BD46C6
:1043A00080BC70470010024080B400AF034B5B68D4
:1043B00003F0F0031846BD4680BC70470010024071
:1043C00080B400AF034B5B6803F4E0631846BD465E
:1043D00080BC70470010024080B400AF034B5B68A4
:1043E00003F460531846BD4680BC7047001002407D
:1043F00080B400AF034B5B6803F480331846BD46BE
:1044000080BC70470010024080B400AF034B5B6873
:1044100003F470131846BD4680BC7047001002407C
:1044200080B400AF044B5B685B0C03F001031846DB
:10443000BD4680BC704700BF0010024080B582B00E
:1044400000AF786000F020F802467B681A607B6855
:104450001B68184600F03EF802467B685A607B688D
:104460005B68184600F04CF802467B689A607B68EF
:104470005B68184600F058F802467B68DA6000BFB7
:104480000837BD4680BD000080B582B000AF002374
:104490007B60FFF77DFF0346082B0CD0082B0ED85E
:1044A000002B02D0042B03D009E0094B7B6009E00C
:1044B000074B7B6006E000F04BF8786002E0044BAD
:1044C0007B6000BF7B6818460837BD4680BD00BFD3
:1044D00000127A0080B582B000AF7860FFF764FF09
:1044E00003461B0903F00F03044AD35C1A467B689A
:1044F000D34018460837BD4680BD00BFDC9C00088D
:1045000080B582B000AF7860FFF75AFF03461B0A00
:10451000044AD35C1A467B68D34018460837BD4628
:1045200080BD00BFEC9C000880B582B000AF786011
:10453000FFF752FF0346DB0A044AD35C1A467B6846
:10454000D34018460837BD4680BD00BFEC9C00082C
:1045500080B582B000AF00237B6000233B60FFF793
:1045600047FF38603B68002B04D03B68B3F5803FC1
:1045700003D00BE00D4B7B600BE0FFF751FF0346D0
:1045800001330B4AB2FBF3F37B6002E0074B7B6025
:1045900000BFFFF739FF03469B0C02337A6802FB2A
:1045A00003F318460837BD4680BD00BF00093D0033
:1045B00000127A0080B483B000AF786039607B6805
:1045C0003A689A6200BF0C37BD4680BC704780B421
:1045D00083B000AF786039607B683A68DA6200BF08
:1045E0000C37BD4680BC704780B483B000AF7860A4
:1045F00039607B683A681A6300BF0C37BD4680BCDF
:10460000704780B483B000AF786039607B683A68E7
:104610005A6300BF0C37BD4680BC704780B483B07E
:1046200000AF786039607B683A689A6300BF0C37E6
:10463000BD4680BC704780B483B000AF78603960FD
:104640007B683A68DA6300BF0C37BD4680BC7047B0
:1046500080B483B000AF786039607B683A681A64D0
:1046600000BF0C37BD4680BC704780B483B000AF3C
:1046700078607B685B6943F001027B685A6100BF28
:104680000C37BD4680BC704780B584B000AF786001
:1046900039607B681B68FB607B68274A93420BD0BC
:1046A0007B68B3F1804F07D07B68244A934203D0E4
:1046B0007B68234A934206D1FB6823F070023B6873
:1046C0005B681343FB607B681B4A93420BD07B689B
:1046D000B3F1804F07D07B68184A934203D07B68C0
:1046E000174A934206D1FB6823F440723B68DB68AB
:1046F0001343FB607B68FA681A603B689B68194645
:104700007868FFF764FF3B681B8819467868FFF7F5
:1047100051FF7B68084A934205D13B681B691946E3
:104720007868FFF761FF7868FFF79FFF002318465E
:104730001037BD4680BD00BF002C01400004004082
:104740000008004080B586B000AFF860B9607A60BC
:104750000123FB75BB68B3F5805F27D0BB68B3F559
:10476000805F2AD8BB68B3F5807F18D0BB68B3F5EB
:10477000807F22D8BB68012B03D0BB68102B07D0E9
:104780001BE07968F86800F05FF80346FB7515E0F8
:104790007968F86800F0BEF80346FB750EE07968AA
:1047A000F86800F021F90346FB7507E07968F868BE
:1047B00000F084F90346FB7500E000BFFB7D18465E
:1047C0001837BD4680BD80B485B000AF78603960D1
:1047D0000023FB60FB6823F0FF033A68127B13435E
:1047E000FB60FB6823F440723B689B681343FB60EB
:1047F000FB6823F480623B685B681343FB60FB68E3
:1048000023F400623B681B681343FB60FB6823F4DE
:1048100080533A68D2891343FB60FB6823F400524B
:104820003B681B691343FB60FB6823F480423B68D1
:104830005B691343FB607B68FA685A64002318467F
:104840001437BD4680BC704780B586B000AF786035
:1048500039607B681B6A23F001027B681A627B68FF
:104860001B6A7B617B685B683B617B689B69FB6063
:10487000FB6823F00303FB60FB6823F070023B68D6
:104880001B681343FB607B6923F002023B681B69D2
:1048900013437B617B6923F001023B685B68134330
:1048A0007B617B681A4A93421ED17B6923F0080220
:1048B0003B685B699B0013437B617B6923F00402C7
:1048C0003B689B689B0013437B613B6923F48072C8
:1048D0003B689B6913433B613B6923F400723B686F
:1048E000DB695B0013433B617B683A695A607B6814
:1048F000FA689A613B68DB6819467868FFF781FEC1
:104900007B687A691A62002318461837BD4680BD55
:10491000002C014080B586B000AF786039607B68BC
:104920001B6A23F010027B681A627B681B6A7B613A
:104930007B685B683B617B689B69FB60FB6823F479
:104940004073FB60FB6823F4E0423B681B681B027A
:104950001343FB607B6923F020023B681B691B014A
:1049600013437B617B6923F010023B685B681B018A
:1049700013437B617B681B4A93421FD17B6923F001
:1049800080023B685B699B0113437B617B6923F079
:1049900040023B689B689B0113437B613B6923F4A6
:1049A00080623B689B699B0013433B613B6923F436
:1049B00000623B68DB69DB0013433B617B683A695B
:1049C0005A607B68FA689A613B68DB6819467868C8
:1049D000FFF724FE7B687A691A62002318461837AD
:1049E000BD4680BD002C014080B586B000AF786028
:1049F00039607B681B6A23F480727B681A627B686B
:104A00001B6A7B617B685B683B617B68DB69FB6081
:104A1000FB6823F00303FB60FB6823F070023B6834
:104A20001B681343FB607B6923F400723B681B69BE
:104A30001B0213437B617B6923F480723B685B68D4
:104A40001B0213437B617B681B4A93421FD17B6926
:104A500023F400623B685B699B0213437B617B69C3
:104A600023F480623B689B689B0213437B613B6934
:104A700023F480523B689B691B0113433B613B69F4
:104A800023F400523B68DB695B0113433B617B68A5
:104A90003A695A607B68FA68DA613B68DB681946F4
:104AA0007868FFF7C8FD7B687A691A6200231846A8
:104AB0001837BD4680BD00BF002C014080B586B0D0
:104AC00000AF786039607B681B6A23F480527B6892
:104AD0001A627B681B6A3B617B685B687B617B68F1
:104AE000DB69FB60FB6823F44073FB60FB6823F425
:104AF000E0423B681B681B021343FB603B6923F4E5
:104B000000523B681B691B0313433B613B6923F461
:104B100080523B685B681B0313433B617B680F4A11
:104B2000934207D17B6923F480423B689B699B01D8
:104B300013437B617B687A695A607B68FA68DA6143
:104B40003B68DB6819467868FFF782FD7B683A6945
:104B50001A62002318461837BD4680BD002C01405C
:104B600080B483B000AF78607B68DB6803F40053E7
:104B7000B3F5005F0CBF01230023DBB218460C37EE
:104B8000BD4680BC704780B483B000AF78603960A8
:104B90007B681B6923F440523B681A437B681A61A7
:104BA00000BF0C37BD4680BC704780B483B000AFF7
:104BB000786039607B685B6923F440723B681A4314
:104BC0007B685A6100BF0C37BD4680BC704700004F
:104BD00080B485B000AFF860B9607A60BA681346F7
:104BE0009B0013449A001A447B689B00B2FBF3F3CA
:104BF000254AA2FB03235B099BB21B0199B2BA6849
:104C000013469B0013449A001A447B689B00B2FB36
:104C1000F3F21D4BA3FB02035B09642000FB03F3CB
:104C2000D31A1B013233184AA2FB03235B099BB240
:104C300003F0F0039BB20B4499B2BA6813469B0091
:104C400013449A001A447B689B00B2FBF3F20E4BAC
:104C5000A3FB02035B09642000FB03F3D31A1B01CF
:104C60003233094AA2FB03235B099BB203F00F0313
:104C70009BB20B449BB21A46FB689A6000BF143784
:104C8000BD4680BC704700BF1F85EB5180B588B022
:104C900000AF786039600123FB770023BB6178683F
:104CA000FFF75EFF0346002B45D17B68DB6823F4EA
:104CB000B05323F00C033A6851683A68D268114344
:104CC0003A6812690A431A437B68DA603B689B685A
:104CD00019467868FFF757FF3B685B6919467868A3
:104CE000FFF763FF07F108031846FFF7A7FB7B6890
:104CF000134A934202D17B69BB610CE07B68114A85
:104D0000934202D13B69BB6105E07B680E4A934246
:104D100001D13B69BB61BB69002B0CD03B681B68B0
:104D2000002B08D00023FB773B681B681A46B96943
:104D30007868FFF74DFFFB7F18462037BD4680BDE2
:104D400000380140004400400048004080B483B077
:104D500000AF786039607A683B68B2FBF3F3074ACA
:104D6000013B5360054B00229A60044B05221A60F8
:104D700000BF0C37BD4680BC704700BF10E000E0AC
:104D800080B582B000AF78604FF47A717868FFF731
:104D9000DDFF00BF0837BD4680BD000080B485B090
:104DA00000AF78600E4B1B68FB60FB687B68B3F15B
:104DB000FF3F0CD07B6801337B6008E0084B1B6829
:104DC00003F48033002B02D07B68013B7B607B685F
:104DD000002BF3D100BF00BF1437BD4680BC704725
:104DE00010E000E080B483B000AF7860034A7B68D5
:104DF000136000BF0C37BD4680BC7047D400002054
:104E000080B584B000AF78607868FBF717FB10A31B
:104E1000D3E90023FBF76AFB02460B46104619460E
:104E20000DA3D3E90023FBF7ABF902460B4610466E
:104E30001946FBF753FE0346FB60F868FCF772F96E
:104E4000034618461037BD4680BD00BFAFF3008053
:104E5000BC1ACE6CBF0BC6BFDD9D1095A1E45C40B3
:104E600080B582B000AF0346FB71FB79142B38BFCD
:104E70001423DBB2143BFB71FB791F4ADB001344A4
:104E80009B889AB21D4B1B68013A92B21A81FB793A
:104E9000194ADB001344DB889AB2184B1B68013AAD
:104EA00092B29A80FB79144ADB001344DB889BB2F0
:104EB000DA0F13445B101A46104B1B6892B2DA806B
:104EC00000BF0E4B1B681B685A6A0C4B1B681B68A3
:104ED000DB6A9A42F5D1FB79074A52F8333018461B
:104EE00000F0D2F8054B1B681846FDF763FD00BFC4
:104EF0000837BD4680BD00BF7CA40008E800002044
:104F000080B586B000AF78607B68534A93421ED963
:104F1000524BB3F84C359AB2514B1B68013A92B2DE
:104F20001A814E4BB3F84E359AB24D4B1B68013A7D
:104F300092B29A80494BB3F84E359BB2DA0F1344C4
:104F40005B101A46464B1B6892B2DA806DE07B68B4
:104F5000444A93421BD8414B9B889AB2404B1B68F2
:104F6000013A92B21A813D4BDB889AB23C4B1B68E6
:104F7000013A92B29A80394BDB889BB2DA0F134424
:104F80005B101A46364B1B6892B2DA804DE0002364
:104F90003B610023FB6000237B6143E02F4A7B6978
:104FA00052F833307A68D31A184600F05DF8386149
:104FB0007B690133294A52F833307A68D31A18468C
:104FC00000F052F8F8603A69FB689A4227DC7B6986
:104FD000013B224ADB0013449B889AB2204B1B689A
:104FE000013A92B21A817B69013B1C4ADB001344EF
:104FF000DB889AB21A4B1B68013A92B29A807B699D
:10500000013B164ADB001344DB889BB2DA0F1344E2
:105010005B101A46124B1B6892B2DA8005E07B697E
:1050200001337B617B69A82BB8D900BF0C4B1B688F
:105030001B685A6A0A4B1B681B68DB6A9A42F5D1E7
:10504000786800F021F8064B1B681846FDF7B2FCA3
:1050500000BF1837BD4680BD88070200F49C0008D9
:10506000E8000020DF28010080B483B000AF786042
:105070007B68002B01DB7B6801E07B685B421846A4
:105080000C37BD4680BC704780B584B000AF7860F7
:1050900009A3D3E90023C7E90223D7E90201FBF7FB
:1050A000FDFC0346DAB2064B1B680132D2B25A74D9
:1050B00000BF1037BD4680BD2497FF907EFB264081
:1050C000E800002080B483B000AF78607B684FF0C8
:1050D00000021A607B684FF000025A607B684FF054
:1050E00000029A607B684FF00002DA607B684FF044
:1050F00000021A617B684FF000025A617B684FF032
:1051000000021A6200BF0C37BD4680BC7047000029
:10511000B0B582B000AF786039603B681B6A194651
:105120007868FBF72FFD03461A463B681A613B6817
:105130009C693B681A693B685B6919461046FBF736
:1051400021FD034619462046FBF726FE03461A4674
:105150003B681A603B68DB691846FBF76FF94FF054
:105160000002254BFBF7C2F902460B4610461946D2
:105170004FF00002214BFBF7B9F902460B461446EB
:105180001D463B681A693B685B6919461046FBF788
:10519000FBFC03461846FBF751F902460B46204636
:1051A0002946FBF7A3F902460B4610461946FBF7C2
:1051B00095FC02463B685A603B68DA683B681B68AE
:1051C00019461046FBF7E0FC03461A463B685B684D
:1051D00019461046FBF7D8FC03461A463B689A600E
:1051E0003B681A693B685A613B689A683B68DA60B9
:1051F00000BF0837BD46B0BD0000E03F00002440BE
:1052000080B582B000AF7860802000F0C9FA034614
:105210001A467B681A607B6800225A607B6800220D
:105220009A607B680022DA6000BF0837BD4680BD07
:1052300080B483B000AF78607B6800225A607B68DE
:1052400000229A607B680022DA6000BF0C37BD46FE
:1052500080BC704780B483B000AF78607B68DB6847
:10526000002B0CBF01230023DBB218460C37BD46D0
:1052700080BC704780B483B000AF78607B68DB6827
:10528000802B0CBF01230023DBB218460C37BD4630
:1052900080BC704780B582B000AF78600B46FB7071
:1052A0007868FFF7E7FF0346002B02D07868FFF726
:1052B000BFFF7B681A687B685B681344FA781A70D2
:1052C0007B685B68013303F07F027B685A607B6810
:1052D000DB685A1C7B68DA6000BF0837BD4680BDBA
:1052E00090B583B000AF78607868FFF7B3FF0346EE
:1052F000002B01D0FF2313E07B681A687B689B6852
:1053000013441B78DCB27B689B68013303F07F0297
:105310007B689A607B68DB685A1E7B68DA6023468C
:1053200018460C37BD4690BD80B584B000AF78609C
:105330007868FBF783F810A3D3E90023FBF7D6F8CE
:1053400002460B46104619460DA3D3E90023FAF78F
:1053500017FF02460B4610461946FBF7BFFB0346F4
:10536000FB60F868FBF7DEFE034618461037BD46C3
:1053700080BD00BFAFF30080BC1ACE6CBF0BC6BFB0
:10538000DD9D1095A1E45C4080B500AF0D4B00227F
:105390001A600D4B00221A700C4B00221A7030223A
:1053A00000210B4801F039FE18220021094801F0C4
:1053B00034FE08220021084801F02FFEFDF762F9B3
:1053C00000BF80BD70050020500500206C05002046
:1053D00020050020540500207405002080B485B00D
:1053E00000AF0346FB710123FB730C4B1B78FA796A
:1053F0009A420CD2FA7913465B0013449B00084A88
:105400001344BB60BB6801225A800023FB73FB7B03
:1054100018461437BD4680BC704700BF50050020B9
:105420002005002080B485B000AF7860396001238A
:10543000FB737B68002B29D03B68002B26D0164BD2
:105440001B78022B22D8144B1B781A4613465B009C
:1054500013449B00114A1344BB60BB683A689A60CE
:10546000BB6800225A803B689A68BB685A60BB6878
:1054700001221A70084B1A787B681A70064B1B7849
:105480000133DAB2044B1A700023FB73FB7B18461E
:105490001437BD4680BC7047500500202005002011
:1054A00080B485B000AF786039600123FB737B68FE
:1054B000002B28D03B68002B25D0164B1B78002BE7
:1054C00021D1144B1B781A4613465B0013449B00F2
:1054D000114A1344BB60BB683A689A60BB680022FB
:1054E0001A70BB6800225A80BB6800225A60094BC0
:1054F0001A787B681A70074B1B780133DAB2054BB8
:105500001A700023FB73FB7B18461437BD4680BC22
:10551000704700BF6C0500205405002080B485B0A2
:1055200000AF0346FB710123FB730D4B1B78FA7927
:105530009A420FD2FA7913465B0013449B00094A42
:105540001344BB60BB6800225A60BB6801221A701A
:105550000023FB73FB7B18461437BD4680BC7047A5
:105560006C0500205405002080B485B000AF0346D0
:10557000FB710123FB730C4B1B78FA799A420CD216
:10558000FA7913465B0013449B00084A1344BB603E
:10559000BB6800221A700023FB73FB7B184614378C
:1055A000BD4680BC704700BF6C050020540500203C
:1055B00080B485B000AF424B1B680133404A136092
:1055C0000023FB7325E0FA7B13465B0013449B002A
:1055D0003C4A13447B607B689B681B78012B15D188
:1055E0007B681B78012B11D17B685B685A1C7B6838
:1055F0005A607B685B687A6892685288934205D3E8
:105600007B6800225A607B6801225A80FB7B013351
:10561000FB732D4B1B78FA7B9A42D4D30023BB73C8
:105620002BE0BA7B13465B0013449B00274A1344CC
:10563000BB60BB681B78012B1CD1BB685B685A1C24
:10564000BB685A60BB685B68BA68926852889342CC
:1056500010D3BB6801225A80BB6800225A60BB6825
:105660009B681B78022B0CBF01230023DBB21A4678
:10567000BB681A70BB7B0133BB73154B1B78BA7BBD
:105680009A42CED30023BB7310E0BB7B114A52F881
:105690002330002B07D0BB7B0E4A52F82320013A5F
:1056A0000C4941F82320BB7B0133BB73BB7B012B2F
:1056B000EBD900BF00BF1437BD4680BC704700BFA8
:1056C0007005002020050020500500205405002012
:1056D0006C0500207405002080B500AFFCF7C4FF06
:1056E00000BF80BD80B584B000AF0023FB731EE017
:1056F000FA7B13465B0013449B00234A13447B60F0
:105700007B685B88012B0FD17B681B78012B0BD149
:105710007B6800225A807B689B685B68002B03D003
:105720007B689B685B689847FB7B0133FB73174B77
:105730001B78FA7B9A42DBD30023BB731AE0BA7B57
:1057400013465B0013449B00114A1344BB60BB68C3
:105750005B88012B0BD1BB6800225A80BB689B6819
:105760005B68002B03D0BB689B685B689847BB7B7A
:105770000133BB73074B1B78BA7B9A42DFD300BF60
:1057800000BF1037BD4680BD200500205005002019
:10579000540500206C050020002100F0B1BE00007F
:1057A000024B0146186800F025B800BF64020020D3
:1057B00070B50F4E0C463168054611B901F080FCFA
:1057C00030602146284601F07BFC431C03D14FF09A
:1057D000FF34204670BDC41C24F00304A042F8D05E
:1057E000211A284601F06CFC0130F2D1EFE700BF2E
:1057F0007C0500202DE9F843CD1C25F00305083574
:105800000C2D38BF0C25002D064601DBA94204D91A
:105810000C2333600020BDE8F883DFF8D48000F06B
:1058200069F8D8F800301C4644BB29463046FFF7DB
:10583000BFFF431C044658D1D8F800402746002F2C
:1058400043D1002C4BD023683946304604EB030982
:1058500001F036FC814542D1216830466D1A294657
:10586000FFF7A6FF01303AD023682B442360D8F815
:1058700000305A6862BBC8F800700FE02268521B03
:1058800020D40B2A17D96119A342256018BF59608B
:10589000636808BFC8F8001062514B60304600F0E2
:1058A0002FF804F10B00231D20F00700C21A1CBFC3
:1058B0001B1AA350AFE76268A3420CBFC8F80020D0
:1058C0005A60EBE723466468AEE73C467F68B6E77C
:1058D0001A465B68A342FBD100235360DEE70C232A
:1058E0003046336000F00CF894E70560D6E700BF5F
:1058F00080050020014801F030BC00BFC406002034
:10590000014801F02BBC00BFC40600202DE9F04186
:105910000F46904603F09EF904460D46B8F1000F7D
:1059200011D0C7F30A53C3F16B03002B0BDD002426
:105930001B0503F17F5505F5401522462B46FAF766
:10594000D5FD04460D4620462946BDE8F0810000FD
:105950002DE9F04F9FB0179200220C461A924FF09B
:10596000000A4FF0000B0A460590199211782B2976
:1059700048D036D80D2930D8082930D8002939D058
:1059800000220B92199D2A78302A40F0B1806A7863
:1059900002F0DF02582A6CD102930B9B8E4A0193CE
:1059A0001AAB009305981BAB19A902F0FDFA10F091
:1059B0000F06044605D0062E26D100230135199581
:1059C0000B93179B002B40F084850B9BBBB150467B
:1059D0000BF100411FB0BDE8F08F2029D0D101327A
:1059E000C3E72D29CCD101210B91511C199152787B
:1059F000002AC7D1179B1994002B40F068855046A8
:105A00005946E7E70021EFE71A9A3AB135211CA879
:105A100003F010FA1A99059802F0EAFD013E1B9A6C
:105A2000042E06D8DFE806F014031D201400DDE97B
:105A30001CABE10548BF4BF0004B2BF000431B0DA6
:105A40001B05002BBDD101F05DFB22230360B8E7ED
:105A500002F23342DDE91CA323F4801343EA025B24
:105A6000E7E7DFF878B1E4E76FF0004B4FF0FF3A7B
:105A7000DFE7199B5A1C19925B78302BF9D0002B69
:105A80009FD001230993199B0A220C9300231F46E0
:105A900008930A9319980578A5F13003D9B209291A
:105AA00028D901224E4901F0C0FA002832D0002046
:105AB0002A4681463D460346652A01D0452A14D12F
:105AC0001DB9099A024395D00025199C621C1992B0
:105AD00062782B2A77D02D2A7BD04FF0000CA2F1D0
