:020000040800F2
:10000000005000201D3200080130000809300008AF
:1000100011300008193000082130000800000000ED
:10002000000000000000000000000000293000086F
:100030003530000800000000413000084D30000855
:100040006532000865320008653200086532000834
:100050006532000865320008653200086532000824
:100060006532000865320008653200086532000814
:100070006532000865320008653200086532000804
:1000800065320008653200086532000865320008F4
:1000900065320008653200086532000865320008E4
:1000A00065320008653200086532000865320008D4
:1000B0005D300008653200086532000865320008CE
:1000C00065320008653200086532000865320008B4
:1000D0006532000869300008813000086532000888
:1000E0006532000865320008653200080000000033
:1000F0000000000000000000000000000000000000
:0C01000000000000000000005FF808F1A3
:1001100010B5054C237833B9044B13B10448AFF341
:1001200000800123237010BD440200200000000065
:10013000C076000808B5034B1BB103490348AFF371
:10014000008008BD0000000048020020C0760008C2
:1001500010F8012B11F8013B012A28BF9A42F7D071
:10016000D01A7047034613F8012B002AFBD1181A46
:100170000138704781F0004102E000BF83F0004386
:1001800030B54FEA41044FEA430594EA050F08BF32
:1001900090EA020F1FBF54EA000C55EA020C7FEAF6
:1001A000645C7FEA655C00F0E2804FEA5454D4EB73
:1001B0005555B8BF6D420CDD2C4480EA020281EA3D
:1001C000030382EA000083EA010180EA020281EA75
:1001D0000303362D88BF30BD11F0004F4FEA0131C7
:1001E0004FF4801C4CEA113102D0404261EB4101D6
:1001F00013F0004F4FEA03334CEA133302D052425C
:1002000063EB430394EA050F00F0A780A4F1010417
:10021000D5F1200E0DDB02FA0EFC22FA05F2801851
:1002200041F1000103FA0EF2801843FA05F3594137
:100230000EE0A5F120050EF1200E012A03FA0EFCB6
:1002400028BF4CF0020C43FA05F3C01851EBE371E0
:1002500001F0004507D54FF0000EDCF1000C7EEBFD
:1002600000006EEB0101B1F5801F1BD3B1F5001F3B
:100270000CD349085FEA30004FEA3C0C04F101045A
:100280004FEA445212F5800F80F09A80BCF1004F83
:1002900008BF5FEA500C50F1000041EB045141EA05
:1002A000050130BD5FEA4C0C404141EB0101013CCE
:1002B00028BFB1F5801FE9D291F0000F04BF0146BD
:1002C0000020B1FA81F308BF2033A3F10B03B3F18F
:1002D00020020CDA0C3208DD02F1140CC2F10C021F
:1002E00001FA0CF021FA02F10CE002F11402D8BF7D
:1002F000C2F1200C01FA02F120FA0CFCDCBF41EA49
:100300000C019040E41AA2BF01EB0451294330BD17
:100310006FEA04041F3C1CDA0C340EDC04F11404F4
:10032000C4F1200220FA04F001FA02F340EA0300CB
:1003300021FA04F345EA030130BDC4F10C04C4F111
:10034000200220FA02F001FA04F340EA03002946F1
:1003500030BD21FA04F0294630BD94F0000F83F43B
:10036000801306BF81F480110134013D4EE77FEA1E
:10037000645C18BF7FEA655C29D094EA050F08BF6A
:1003800090EA020F05D054EA000C04BF194610464B
:1003900030BD91EA030F1EBF0021002030BD5FEA8F
:1003A000545C05D14000494128BF41F0004130BDB7
:1003B00014F580043CBF01F5801130BD01F000450B
:1003C00045F0FE4141F470014FF0000030BD7FEA7E
:1003D000645C1ABF194610467FEA655C1CBF0B4679
:1003E000024650EA013406BF52EA033591EA030F90
:1003F00041F4002130BD00BF90F0000F04BF002188
:10040000704730B54FF4806404F132044FF00005BA
:100410004FF0000150E700BF90F0000F04BF002133
:10042000704730B54FF4806404F1320410F0004599
:1004300048BF40424FF000013EE700BF42004FEA94
:10044000E2014FEA31014FEA02701FBF12F07F4311
:1004500093F07F4F81F06051704732F07F4208BFC8
:10046000704793F07F4F04BF41F40021704730B5CF
:100470004FF4607401F0004521F000411CE700BF1B
:1004800050EA010208BF704730B54FF000050AE09E
:1004900050EA010208BF704730B511F0004502D59F
:1004A000404261EB41014FF4806404F132045FEAA1
:1004B000915C3FF4D8AE4FF003025FEADC0C18BF4A
:1004C00003325FEADC0C18BF033202EBDC02C2F13C
:1004D000200300FA03FC20FA02F001FA03FE40EACE
:1004E0000E0021FA02F11444BDE600BF70B54FF0D2
:1004F000FF0C4CF4E06C1CEA11541DBF1CEA1355B0
:1005000094EA0C0F95EA0C0F00F0DEF82C4481EA17
:10051000030621EA4C5123EA4C5350EA013518BF37
:1005200052EA033541F4801143F4801338D0A0FB24
:1005300002CE4FF00005E1FB02E506F00042E0FBD1
:1005400003E54FF00006E1FB03569CF0000F18BFD7
:100550004EF0010EA4F1FF04B6F5007F64F540747F
:1005600004D25FEA4E0E6D4146EB060642EAC62112
:1005700041EA55514FEAC52040EA5E504FEACE2E7F
:10058000B4F1FD0C88BFBCF5E06F1ED8BEF1004F82
:1005900008BF5FEA500E50F1000041EB045170BDFE
:1005A00006F0004646EA010140EA020081EA030142
:1005B000B4EB5C04C2BFD4EB0C0541EA045170BD3E
:1005C00041F480114FF0000E013C00F3AB8014F1B8
:1005D000360FDEBF002001F0004170BDC4F1000401
:1005E000203C35DA0C341BDC04F11404C4F1200582
:1005F00000FA05F320FA04F001FA05F240EA0200DD
:1006000001F0004221F0004110EBD37021FA04F612
:1006100042EB06015EEA430E08BF20EAD37070BDCC
:10062000C4F10C04C4F1200500FA04F320FA05F02B
:1006300001FA04F240EA020001F0004110EBD3702D
:1006400041F100015EEA430E08BF20EAD37070BD9D
:10065000C4F1200500FA05F24EEA020E20FA04F376
:1006600001FA05F243EA020321FA04F001F0004125
:1006700021FA04F220EA020000EBD3705EEA430E96
:1006800008BF20EAD37070BD94F0000F0FD101F0C5
:100690000046400041EB010111F4801F08BF013CFE
:1006A000F7D041EA060195F0000F18BF704703F03C
:1006B0000046520043EB030313F4801F08BF013DC3
:1006C000F7D043EA0603704794EA0C0F0CEA13557F
:1006D00018BF95EA0C0F0CD050EA410618BF52EA39
:1006E0004306D1D181EA030101F000414FF000003F
:1006F00070BD50EA410606BF1046194652EA43064D
:1007000019D094EA0C0F02D150EA013613D195EAC0
:100710000C0F05D152EA03361CBF104619460AD108
:1007200081EA030101F0004141F0FE4141F4700112
:100730004FF0000070BD41F0FE4141F4780170BD02
:1007400070B54FF0FF0C4CF4E06C1CEA11541DBF67
:100750001CEA135594EA0C0F95EA0C0F00F0A7F869
:10076000A4EB050481EA030E52EA03354FEA013196
:1007700000F088804FEA03334FF0805545EA1313A9
:1007800043EA12634FEA022245EA111545EA106571
:100790004FEA00260EF000419D4208BF964244F108
:1007A000FD0404F5407402D25B084FEA3202B61A27
:1007B00065EB03055B084FEA32024FF480104FF4FB
:1007C000002CB6EB020E75EB030E22BFB61A75466F
:1007D00040EA0C005B084FEA3202B6EB020E75EB02
:1007E000030E22BFB61A754640EA5C005B084FEA6A
:1007F0003202B6EB020E75EB030E22BFB61A754637
:1008000040EA9C005B084FEA3202B6EB020E75EB41
:10081000030E22BFB61A754640EADC0055EA060E02
:1008200018D04FEA051545EA16754FEA06164FEA45
:10083000C30343EA52734FEAC2025FEA1C1CC0D1F1
:1008400011F4801F0BD141EA00014FF000004FF07E
:10085000004CB6E711F4801F04BF01430020B4F13F
:10086000FD0C88BFBCF5E06F3FF6AFAEB5EB030CF7
:1008700004BFB6EB020C5FEA500C50F1000041EBF4
:10088000045170BD0EF0004E4EEA113114EB5C04C1
:10089000C2BFD4EB0C0541EA045170BD41F4801194
:1008A0004FF0000E013C90E645EA060E8DE60CEA9C
:1008B000135594EA0C0F08BF95EA0C0F3FF43BAFB9
:1008C00094EA0C0F0AD150EA01347FF434AF95EA70
:1008D0000C0F7FF425AF104619462CE795EA0C0F54
:1008E00006D152EA03353FF4FDAE1046194622E721
:1008F00050EA410618BF52EA43067FF4C5AE50EAFB
:1009000041047FF40DAF52EA43057FF4EBAE12E7EA
:100910004FF0FF3C06E000BF4FF0010C02E000BFCB
:100920004FF0010C4DF804CD4FEA410C7FEA6C5CAE
:100930004FEA430C18BF7FEA6C5C1BD001B050EA51
:10094000410C0CBF52EA430C91EA030F02BF90EA3C
:10095000020F0020704710F1000F91EA030F58BFFB
:10096000994208BF90422CBFD8176FEAE37040F05D
:10097000010070474FEA410C7FEA6C5C02D150EAFB
:10098000013C07D14FEA430C7FEA6C5CD6D152EAB6
:10099000033CD3D05DF8040B704700BF844610467B
:1009A00062468C461946634600E000BF01B5FFF77A
:1009B000B7FF002848BF10F1000F01BD4DF808ED4A
:1009C000FFF7F4FF0CBF012000205DF808FB00BF1B
:1009D0004DF808EDFFF7EAFF34BF012000205DF875
:1009E00008FB00BF4DF808EDFFF7E0FF94BF0120C2
:1009F00000205DF808FB00BF4DF808EDFFF7CEFFC3
:100A000094BF012000205DF808FB00BF4DF808ED01
:100A1000FFF7C4FF34BF012000205DF808FB00BFD2
:100A20004FEA410C7FEA6C5C02D150EA013C0AD1EA
:100A30004FEA430C7FEA6C5C02D152EA033C02D1DC
:100A40004FF0000070474FF0010070474FEA41023D
:100A500012F5001215D211D56FF47873B3EB625210
:100A600012D94FEAC12343F0004343EA505311F037
:100A7000004F23FA02F018BF404270474FF00000C9
:100A8000704750EA013005D111F0004008BF6FF007
:100A9000004070474FF00000704700BF4FEA41022E
:100AA000B2F1E04324BFB3F5001CDCF1FE5C0DD9CC
:100AB00001F0004C4FEAC0024CEA5070B2F1004F16
:100AC00040EB830008BF20F00100704711F0804F19
:100AD00021D113F13872BCBF01F00040704741F4DE
:100AE00080114FEA5252C2F11802C2F1200C10FAE2
:100AF0000CF320FA02F018BF40F001004FEAC123C6
:100B00004FEAD32303FA0CFC40EA0C0023FA02F369
:100B10004FEA4303CCE77FEA625307D150EA01333F
:100B20001EBF4FF0FE4040F44000704701F000400F
:100B300040F0FE4040F40000704700BF80F00040ED
:100B400002E000BF81F0004142001FBF5FEA4103A5
:100B500092EA030F7FEA226C7FEA236C6AD04FEAA5
:100B60001262D2EB1363C1BFD218414048404140EA
:100B7000B8BF5B42192B88BF704710F0004F40F49C
:100B8000000020F07F4018BF404211F0004F41F4B8
:100B9000000121F07F4118BF494292EA030F3FD084
:100BA000A2F1010241FA03FC10EB0C00C3F1200397
:100BB00001FA03F100F0004302D5494260EB400026
:100BC000B0F5000F13D3B0F1807F06D340084FEA91
:100BD000310102F10102FE2A51D2B1F1004F40EB86
:100BE000C25008BF20F0010040EA030070474900EE
:100BF00040EB0000013A28BFB0F5000FEDD2B0FA8B
:100C000080FCACF1080CB2EB0C0200FA0CF0AABFAD
:100C100000EBC25052421843BCBFD040184370474B
:100C200092F0000F81F4000106BF80F40000013251
:100C3000013BB5E74FEA41037FEA226C18BF7FEA28
:100C4000236C21D092EA030F04D092F0000F08BF6A
:100C50000846704790EA010F1CBF0020704712F051
:100C60007F4F04D1400028BF40F00040704712F190
:100C700000723CBF00F50000704700F0004343F0F5
:100C8000FE4040F4000070477FEA226216BF08462B
:100C90007FEA23630146420206BF5FEA412390EAEE
:100CA000010F40F4800070474FF0000304E000BFE4
:100CB00010F0004348BF40425FEA000C08BF704795
:100CC00043F0964301464FF000001CE050EA010259
:100CD00008BF70474FF000030AE000BF50EA01026E
:100CE00008BF704711F0004302D5404261EB41015B
:100CF0005FEA010C02BF84460146002043F0B64380
:100D000008BFA3F18053A3F50003BCFA8CF2083AA4
:100D1000A3EBC25310DB01FA02FC634400FA02FCAD
:100D2000C2F12002BCF1004F20FA02F243EB0200B4
:100D300008BF20F00100704702F1200201FA02FC16
:100D4000C2F1200250EA4C0021FA02F243EB020009
:100D500008BF20EADC7070474FF0FF0C1CEAD0524D
:100D60001EBF1CEAD15392EA0C0F93EA0C0F6FD00E
:100D70001A4480EA010C400218BF5FEA41211ED0EC
:100D80004FF0006343EA501043EA5111A0FB0131D8
:100D90000CF00040B1F5000F3EBF490041EAD371AD
:100DA0005B0040EA010062F17F02FD2A1DD8B3F129
:100DB000004F40EBC25008BF20F00100704790F098
:100DC000000F0CF0004C08BF49024CEA502040EAEA
:100DD00051207F3AC2BFD2F1FF0340EAC2507047B0
:100DE00040F400004FF00003013A5DDC12F1190FEE
:100DF000DCBF00F000407047C2F10002410021FA60
:100E000002F1C2F1200200FA02FC5FEA310040F177
:100E1000000053EA4C0308BF20EADC70704792F0F0
:100E2000000F00F0004C02BF400010F4000F013A28
:100E3000F9D040EA0C0093F0000F01F0004C02BF23
:100E4000490011F4000F013BF9D041EA0C018FE792
:100E50000CEAD15392EA0C0F18BF93EA0C0F0AD098
:100E600030F0004C18BF31F0004CD8D180EA0100BE
:100E700000F00040704790F0000F17BF90F0004F57
:100E8000084691F0000F91F0004F14D092EA0C0F39
:100E900001D142020FD193EA0C0F03D14B0218BFCC
:100EA000084608D180EA010000F0004040F0FE4012
:100EB00040F40000704740F0FE4040F440007047AE
:100EC0004FF0FF0C1CEAD0521EBF1CEAD15392EA2D
:100ED0000C0F93EA0C0F69D0A2EB030280EA010C1D
:100EE00049024FEA402037D04FF0805343EA1111B6
:100EF00043EA10130CF000408B4238BF5B0042F114
:100F00007D024FF4000C8B4224BF5B1A40EA0C00B8
:100F1000B3EB510F24BFA3EB510340EA5C00B3EBEA
:100F2000910F24BFA3EB910340EA9C00B3EBD10FD8
:100F300024BFA3EBD10340EADC001B0118BF5FEA2A
:100F40001C1CE0D1FD2A3FF650AF8B4240EBC25053
:100F500008BF20F0010070470CF0004C4CEA502014
:100F60007F32C2BFD2F1FF0340EAC250704740F463
:100F700000004FF00003013A37E792F0000F00F055
:100F8000004C02BF400010F4000F013AF9D040EAD3
:100F90000C0093F0000F01F0004C02BF490011F467
:100FA000000F013BF9D041EA0C0195E70CEAD1535F
:100FB00092EA0C0F08D142027FF47DAF93EA0C0F46
:100FC0007FF470AF084676E793EA0C0F04D14B022A
:100FD0003FF44CAF08466EE730F0004C18BF31F0DC
:100FE000004CCAD130F000427FF45CAF31F00043D6
:100FF0007FF43CAF5FE700BF4FF0FF3C06E000BF6F
:101000004FF0010C02E000BF4FF0010C4DF804CD91
:101010004FEA40024FEA41037FEA226C18BF7FEAA1
:10102000236C11D001B052EA530C18BF90EA010FA3
:1010300058BFB2EB030088BFC81738BF6FEAE17032
:1010400018BF40F0010070477FEA226C02D15FEACE
:10105000402C05D17FEA236CE4D15FEA412CE1D03A
:101060005DF8040B704700BF844608466146FFE701
:101070000FB5FFF7C9FF002848BF10F1000F0FBDE3
:101080004DF808EDFFF7F4FF0CBF012000205DF8DC
:1010900008FB00BF4DF808EDFFF7EAFF34BF012061
:1010A00000205DF808FB00BF4DF808EDFFF7E0FFFA
:1010B00094BF012000205DF808FB00BF4DF808ED4B
:1010C000FFF7D2FF94BF012000205DF808FB00BFAE
:1010D0004DF808EDFFF7C8FF34BF012000205DF890
:1010E00008FB00BF42000ED2B2F1FE4F0BD34FF00F
:1010F0009E03B3EB126209D44FEA002343F000438E
:1011000023FA02F070474FF00000704712F1610FB0
:1011100001D1420202D14FF0FF3070474FF0000082
:10112000704700BF80B586B000AF78600123FB73C5
:1011300000233B617B687B611FE07B691B78202B70
:1011400005D17B6900221A700123FB7312E0FB7B3F
:10115000002B0FD03B69072B0AD81D493B697A69E0
:1011600041F823203B6901333B610023FB7301E01D
:10117000022328E07B6901337B617B691B78002BAC
:10118000DBD13B69002B1DD0124BBB6016E0104B2E
:101190001A68BB681B6819461046FEF7D9FF03465C
:1011A000002B08D1BB685B683A690949104698472B
:1011B0000346DBB207E0BB680C33BB60BB681B684F
:1011C000002BE4D1012318461837BD4680BD00BF6F
:1011D000600200202800002080B500AF25220649CB
:1011E000064800F0FEFF0649044801F060F8054B90
:1011F00000221A7000BF80BD003801408403002027
:10120000C07700088303002080B500AF024903487F
:1012100003F0D2FA00BF80BD1C000020180000209F
:1012200080B584B000AF786039601349134801F08D
:101230003EF81349114801F03AF8124BFB6012E0F6
:10124000FB681B6819460D4801F031F8FB689B6884
:1012500019460A4801F02BF80B49084801F027F815
:10126000FB680C33FB60FB681B68002BE8D1002394
:1012700018461037BD4680BDDC7700088403002087
:10128000F4770008280000200C78000880B586B0AC
:1012900000AF786039607B68002B01DC032318E025
:1012A0007B68012B01DD022313E00C4BD3F888305F
:1012B0001846FFF7C3F802460B4607F10C00084931
:1012C00004F080F907F10C031946064800F0EFFF1F
:1012D000002318461837BD4680BD00BFCC03002050
:1012E000107800088403002080B582B000AF5BE076
:1012F000334800F0F3FF0346FB71FB791946304891
:1013000000F0A2FFFB790D2B02D0FB790A2B2ED126
:101310002C4B1B78002B25D02A4B1B781A462A4BC6
:1013200000219954274B1B780133DAB2254B1A70F0
:101330002548FFF7F7FE0346BB71224B00221A70C7
:1013400022491F4800F0B3FF97F90630204A52F8AF
:10135000233019461A4800F0AAFF1E49184800F029
:10136000A6FF21E01949164800F0A1FF1CE0FB7917
:10137000082B02D0FB797F2B0AD1124B1B78002B54
:1013800012D0104B1B78013BDAB20E4B1A700BE0F7
:101390000C4B1B7819460C4AFB795354094B1B78AC
:1013A0000133DAB2074B1A70054800F03BFF0346E1
:1013B000002B9DD100BF00BF0837BD4680BD00BFD8
:1013C0008403002083030020840200201878000892
:1013D000000000202078000880B582B000AF78605F
:1013E00006497868FFF7B8FC034605491846FFF739
:1013F000ABFB034618460837BD4680BDCDCCCC3D7F
:101400000000204080B500AF274B284A1A60264BC9
:10141000274A5A60244B274A9A60234B264ADA60AF
:10142000214B264A5A61204B254A1A611E4B1B68E4
:1014300000221A701C4B5B68224ADA611A4B5B6807
:10144000204A9A61184B5B681F4A1A62164B9B68C8
:101450001C4ADA61144B9B681A4A9A61124B9B68CA
:101460001A4A1A62104BDB680122DA600E4BDA6806
:10147000137C012161F3010313740B4BDB68144AE5
:101480001A6000F005F9084BDB68184600F094FC80
:10149000054B5B68184603F02BF8034B9B68184616
:1014A00003F026F800BF80BDAC030020CC03002071
:1014B000D0030020F403002018040020540400206E
:1014C00058040020CDCCCC3D000068420000C04054
:1014D000002C014080B500AF0249034803F06CF9CD
:1014E00000BF80BD440000204000002080B500AF58
:1014F0001C4B1B681B78032B31D801A252F823F038
:101500005F150008111500083F1500085F15000859
:10151000144B1B7F184602F0F7FE124B1B7F3C2B2F
:1015200006D1104B00221A770E4B1B6803221A704B
:101530000C4B1B7F0133DAB20A4B1A7710E0094BD0
:101540001B7F0A2B04D100F00FF8064B00221A77FC
:10155000044B1B7F0133DAB2024B1A7700E000BF65
:1015600000BF80BDAC03002090B583B000AF284B16
:101570005C69022001F0F8FE0346236000F04CF89D
:10158000234B5B691B6823491846FFF78DFD034613
:10159000002B22D0012001F0E7FE78601C4B1C6973
:1015A0007868FFF719FF03462360194B1B691B6816
:1015B000174A92681146184602F0C0FF144B9B6808
:1015C0009B68184602F070FE0346114A9361104B67
:1015D0009B69184602F0D6FE16E00D4B5B691B684E
:1015E0000B4A52681146184602F0A8FF084B5B6888
:1015F0009B68184603F0B0F80346054A9361044B14
:101600009B69184602F0BEFE00BF0C37BD4690BD78
:10161000AC0300200000684290B583B000AF1A4BC5
:101620005B691B687B607868FEF708FF12A3D3E94B
:101630000023FFF785F802460B461046194610A313
:10164000D3E90023FEF79CFD02460B4610461946DF
:101650004FF000020D4BFEF749FF02460B460A49C8
:101660004C6910461946FFF719FA0346236000BF7C
:101670000C37BD4690BD00BFB81E85EB51B8084081
:101680006666666666660A40AC03002000002A4073
:1016900080B400AF074B084A9A61064B00221A77C4
:1016A000044B5B694FF000021A6000BFBD4680BC6E
:1016B000704700BFAC0300200087930380B483B061
:1016C00000AF786039603B681B0A9AB27B681A6188
:1016D00000BF0C37BD4680BC704780B483B000AFFC
:1016E000786039603B681B0A9AB27B685A6100BF18
:1016F0000C37BD4680BC704780B500AF40F2011189
:101700000848FFF7EAFF40F202210648FFF7E5FF2D
:1017100040F204410348FFF7E0FF034B034A1A601D
:1017200000BF80BD000C01405C040020CC03002001
:1017300080B500AF0249034803F03EF800BF80BD0A
:10174000540000205000002080B500AF214B1B68E2
:101750001B78032B3AD801A252F823F06D1700082A
:101760008D170008CD170008AD17000840F20111D1
:101770001948FFF7A3FF40F202211748FFF7ADFF1A
:1017800040F204411448FFF7A8FF20E040F20111A5
:101790001148FFF7A2FF40F202210F48FFF78EFF2A
:1017A00040F204410C48FFF798FF10E040F20111AD
:1017B0000948FFF792FF40F202210748FFF78DFF2B
:1017C00040F204410448FFF779FF00E000BF00BF8A
:1017D00080BD00BF5C040020000C014080B483B0D9
:1017E00000AF78607B681B6803F00103012B0CBF1E
:1017F00001230023DBB218460C37BD4680BC70477E
:1018000080B483B000AF78607B685B6903F08003CD
:10181000802B0CBF01230023DBB218460C37BD46DA
:1018200080BC704780B483B000AF78607B685B6930
:1018300003F00403042B0CBF01230023DBB2184682
:101840000C37BD4680BC704780B483B000AF786071
:101850007B685B6903F04003402B0CBF012300232E
:10186000DBB218460C37BD4680BC704780B483B0ED
:1018700000AF78607B685B6903F00203022B0CBF4A
:1018800001230023DBB218460C37BD4680BC7047ED
:1018900080B485B000AF78607B685B69FB60FB68F3
:1018A0007B689B69FB60FB6800BF1437BD4680BC4A
:1018B000704780B483B000AF78607B681B6843F4E6
:1018C00000727B681A6000BF0C37BD4680BC704751
:1018D00080B483B000AF78607B681B69DBB21846C8
:1018E0000C37BD4680BC704780B582B000AF7860D1
:1018F0007B681B68184600F0F7F803461A467B68B9
:101900001A737B681B7BDBB2002B01D1002331E013
:101910007B681A687B68DB899BB2DBB2194610468C
:1019200000F016F903461A467B681A737B681B7B26
:10193000DBB2002B01D100231CE07B6818687B68B8
:1019400099687B685B681A4600F028F903461A46D6
:101950007B681A737B681B7BDBB2002B01D10023F1
:1019600008E07B681B68184600F0E6F87B680122F7
:101970001A73012318460837BD4680BD90B585B05F
:1019800000AF78607B689B68FB607B681B681846CB
:1019900000F0AAF803461A467B681A737B681B7B23
:1019A000DBB2002B01D1002389E07B681A687B68D9
:1019B000DB899BB2DBB21946104600F0C9F87B68A0
:1019C0009B68012B4CD027E07B681B68184600F011
:1019D00035F903461A467B681A737B681B7BDBB2BA
:1019E000002B01D100236AE07B6818687B685A6885
:1019F0007B689968FB68CB1AD418FFF769FF034628
:101A000023707B681B681A687B681B6842F48062DD
:101A10001A60FB68013BFB60FB68022BD4D87B6833
:101A20001B68184600F00AF903461A467B681A73C9
:101A30007B681B7BDBB2002B01D100233FE07B687E
:101A400018687B685A687B689968FB68CB1AD41859
:101A5000FFF73EFF03462370FB68013BFB6000E09D
:101A600000BF7B681B681A687B681B6822F4806271
:101A70001A607B681B68184600F05EF87B681B687C
:101A8000184600F0DBF803461A467B681A737B6839
:101A90001B7BDBB2002B01D1002310E07B681868B0
:101AA0007B685A687B689968FB68CB1AD418FFF783
:101AB0000FFF034623707B6801221A730123184627
:101AC0001437BD4690BD000080B400AF054B1B68C5
:101AD000044B1B68013B034A136000BFBD4680BC3A
:101AE000704700BF6004002080B582B000AF78600E
:101AF0007B681B6843F480627B681A607B681B68A4
:101B000043F480727B681A600A4B4FF47A721A6051
:101B100005E0084B1B68002B01D1002306E0786824
:101B2000FFF75CFE0346002BF3D10123184608376C
:101B3000BD4680BD6004002080B582B000AF7860F3
:101B40007868FFF7B6FE00BF0837BD4680BD0000CD
:101B500080B582B000AF78600B46FB700D4AFB7811
:101B600013610D4B4FF47A721A6005E00A4B1B6843
:101B7000002B01D1002309E07868FFF777FE0346C8
:101B8000002BF3D07868FFF783FE0123184608374F
:101B9000BD4680BD005400406004002080B584B084
:101BA00000AFF860B9607A60224B4FF47A721A6025
:101BB00005E0204B1B68002B01D1002335E0F868BD
:101BC000FFF71EFE0346002BF3D019E0194B4FF42C
:101BD0007A721A6005E0174B1B68002B01D10023B5
:101BE00023E0F868FFF70CFE0346002BF3D07B6878
:101BF0005A1C7A601A78104B1A61BB68013BBB60B3
:101C0000BB68002BE2D10B4B4FF47A721A6005E0EF
:101C1000084B1B68002B01D1002306E0F868FFF792
:101C200001FE0346002BF3D0012318461037BD46B2
:101C300080BD00BF600400200054004080B582B029
:101C400000AF78600A4B4FF47A721A6005E0084BD7
:101C50001B68002B01D1002306E07868FFF7F4FD34
:101C60000346002BF3D0012318460837BD4680BD3C
:101C70006004002080B483B000AF78607B681B688C
:101C800043F001027B681A6000BF0C37BD4680BC80
:101C9000704780B483B000AF786039607B683A6881
:101CA0009A6200BF0C37BD4680BC704780B483B0D9
:101CB00000AF786039607B683A68DA6200BF0C3741
:101CC000BD4680BC704780B483B000AF7860396097
:101CD0007B681A6A3B681A437B681A6200BF0C373C
:101CE000BD4680BC7047000080B487B000AFF8608C
:101CF000B9607A60BB68012B1CD0BB68042B17D07D
:101D0000BB68102B12D0BB68402B0DD0BB68B3F55D
:101D1000807F07D0BB68B3F5806F01D105230AE04F
:101D2000062308E0042306E0032304E0022302E084
:101D3000012300E00023FB75FB6818331946FB7D87
:101D40000D4AD35C0B443B613B691A68FB7D0B4930
:101D5000CB5C194673238B40DB431A40FB7D07495C
:101D6000CB5C19467B688B401A433B691A6000BF05
:101D70001C37BD4680BC7047247800082C780008CA
:101D800080B483B000AF786039607B683A685A638A
:101D900000BF0C37BD4680BC704780B483B000AF35
:101DA00078607B685B6C43F400427B685A6400BFD8
:101DB0000C37BD4680BC704780B584B000AF7860FA
:101DC0007B681B7CC3F30103DBB2002B06D07B686E
:101DD0001B7CC3F30103DBB2012B1ED17B68DB68E4
:101DE000012B02D10123FB6017E07B68DB68102B1D
:101DF00002D11023FB6010E07B68DB68B3F5807FC5
:101E000003D14FF48073FB6007E07B68DB68B3F5B8
:101E1000805F02D14FF48053FB607B681B7CC3F36F
:101E20000103DBB2012B1AD17B68DB68012B04D1E3
:101E3000FB6843F00403FB6011E07B68DB68102B58
:101E400004D1FB6843F04003FB6008E07B68DB687B
:101E5000B3F5807F03D1FB6843F48063FB607B684C
:101E600018687B68DB6860221946FFF73DFF7B68D6
:101E70001B68F9681846FFF726FF7B681B68184641
:101E8000FFF78BFF7B681B681846FFF7F3FE00BF68
:101E90001037BD4680BD80B582B000AF78607B68EA
:101EA0001A687B681B899BB219461046FFF7F1FE42
:101EB0007B681A687B689B889BB219461046FFF7BF
:101EC000F5FE7B681A687B68DB889BB21946104672
:101ED000FFF756FF00BF0837BD4680BD80B400AF96
:101EE000044B1B68034A43F00103136000BFBD4667
:101EF00080BC704710E000E080B483B000AF786031
:101F00007B681B6803F00203022B0CBF0123002334
:101F1000DBB218460C37BD4680BC704780B483B036
:101F200000AF78607B681B6803F00403042B0CBFD0
:101F300001230023DBB218460C37BD4680BC704736
:101F400080B483B000AF78607B681B6803F008033F
:101F5000082B0CBF01230023DBB218460C37BD460B
:101F600080BC704780B483B000AF78607B681B682A
:101F700003F02003202B0CBF01230023DBB2184603
:101F80000C37BD4680BC704780B483B000AF78602A
:101F90007B681B6803F08003802B0CBF01230023A8
:101FA000DBB218460C37BD4680BC704780B485B0A4
:101FB00000AF78607B681B68FB60FB687B685B68D0
:101FC000FB60FB6800BF1437BD4680BC704780B41F
:101FD00085B000AF78607B681B68FB60FB687B683E
:101FE0005B68FB60FB6800BF1437BD4680BC704770
:101FF00080B485B000AF78607B681B68FB60FB68CD
:102000007B685B68FB60FB6800BF1437BD4680BC23
:10201000704780B489B000AF78607B680C33FB6098
:10202000FB6853E8003FBB60BB6843F02003FB61E3
:102030007B680C33FA69BA617B617969BA6941E8F6
:1020400000233B613B69002BE7D100BF00BF243771
:10205000BD4680BC704780B489B000AF78607B68B3
:102060000C33FB60FB6853E8003FBB60BB6843F088
:102070008003FB617B680C33FA69BA617B61796923
:10208000BA6941E800233B613B69002BE7D100BFFF
:1020900000BF2437BD4680BC704780B489B000AF14
:1020A00078607B681433FB60FB6853E8003FBB60DB
:1020B000BB6843F00103FB617B681433FA69BA61C2
:1020C0007B617969BA6941E800233B613B69002B78
:1020D000E7D100BF00BF2437BD4680BC704780B445
:1020E00089B000AF78607B680C33FB60FB6853E815
:1020F000003FBB60BB6823F02003FB617B680C33AF
:10210000FA69BA617B617969BA6941E800233B6188
:102110003B69002BE7D100BF00BF2437BD4680BC20
:10212000704780B489B000AF78607B680C33FB6087
:10213000FB6853E8003FBB60BB6823F08003FB6192
:102140007B680C33FA69BA617B617969BA6941E8E5
:1021500000233B613B69002BE7D100BF00BF243760
:10216000BD4680BC704780B483B000AF78607B68A8
:10217000DB6803F02003202B0CBF01230023DBB21C
:1021800018460C37BD4680BC704780B483B000AFA2
:1021900078607B68DB6803F08003802B0CBF012331
:1021A0000023DBB218460C37BD4680BC704780B4B4
:1021B00083B000AF78607B685B68DBB218460C3791
:1021C000BD4680BC704780B483B000AF78600B46DA
:1021D000FB70FA787B685A6000BF0C37BD4680BC44
:1021E000704780B584B000AFF860B9601346FB71EA
:1021F000FB68BA681A62FB68FA7983F82420FB68E6
:102200001033184602F012FAFB68184602F00EFA74
:10221000B868FFF742FFB868FFF7FBFE00BF103752
:10222000BD4680BD80B582B000AF78607B6818463F
:1022300002F026FA0346002B01D0002300E0012320
:1022400018460837BD4680BD80B584B000AF7860C1
:102250000B46FB704FF47A73FB6005E0FB68002BC4
:1022600021D0FB68013BFB607B681033184602F00D
:1022700017FA0346002BF1D17B681B6A1846FFF75B
:102280002EFF7B681033FA781146184602F018FAD0
:102290007B681B6A1846FFF7BCFE7B681B6A184602
:1022A000FFF7D9FE00E000BF1037BD4680BD80B506
:1022B00082B000AF7860396007E03B685A1C3A6032
:1022C0001B7819467868FFF7BFFF3B681B78002B27
:1022D000F3D100BF00BF0837BD4680BD90B583B0C5
:1022E00000AF786000247B68184602F0C9F9034605
:1022F00083F00103DBB2002B11D07B681B6A184608
:10230000FFF7EDFE7B68184602F000FA03461C4614
:102310007B681B6A1846FFF77CFE234600E02346D5
:1023200018460C37BD4690BD80B400AF064B1B6805
:10233000002B04D0044B1B68013B034A136000BF11
:10234000BD4680BC704700BF6404002080B584B0E7
:1023500000AF78607B681B6A1846FFF703FE0346F0
:10236000002B3DD07B681B6A1846FFF7FCFE034636
:10237000002B35D07B681B6A1846FFF718FF034611
:10238000FB737B681B6A1846FFF7DAFD0346002BD8
:102390000FD17B681B6A1846FFF7AEFD0346002B82
:1023A00007D17B681B6A1846FFF7B8FD0346002B70
:1023B0000FD07B681B6A1846FFF71AFE7B681B6A02
:1023C0001846FFF7F3FD7B681B6A1846FFF7FFFD11
:1023D00033E07B68FA7B1146184602F071F92CE075
:1023E0007B681B6A1846FFF7CFFD0346002B24D0FD
:1023F0007B681B6A1846FFF7C8FE0346002B1CD0FB
:102400007B681033184602F03BF90346002B05D0D9
:102410007B681B6A1846FFF784FE0DE07B6810336B
:10242000184602F073F90346BB737B681B6ABA7BDC
:1024300011461846FFF7C7FE00BF1037BD4680BDE6
:1024400080B485B000AF78607B6803F00703FB6061
:102450000C4BDB68BB60BA684FF6FF031340BB60F0
:10246000FB681A02BB68134343F0BF6343F40033B5
:10247000BB60044ABB68D36000BF1437BD4680BC54
:10248000704700BF00ED00E080B400AF044BDB6894
:102490001B0A03F007031846BD4680BC704700BF07
:1024A00000ED00E080B483B000AF0346FB7197F904
:1024B0000730002B0BDBFB7903F01F02064997F96D
:1024C00007305B09012000FA02F241F8232000BF27
:1024D0000C37BD4680BC704700E100E080B483B09B
:1024E00000AF03463960FB7197F90730002B0ADB18
:1024F0003B68DAB20C4997F907301201D2B20B44AB
:1025000083F800230AE03B68DAB20849FB7903F05C
:102510000F03043B1201D2B20B441A7600BF0C37F2
:10252000BD4680BC704700BF00E100E000ED00E068
:1025300080B489B000AFF860B9607A60FB6803F0DE
:102540000703FB61FB69C3F10703042B28BF0423C6
:10255000BB61FB690433062B02D9FB69033B00E036
:1025600000237B614FF0FF32BB6902FA03F3DA43C9
:10257000BB681A407B699A404FF0FF317B6901FAD2
:1025800003F3D9437B680B40134318462437BD46F9
:1025900080BC704780B483B000AF78607B681B68F4
:1025A00023F080027B681A6000BF0C37BD4680BCF8
:1025B000704780B483B000AF78607B681B6823F0FD
:1025C00040027B681A6000BF0C37BD4680BC704774
:1025D00080B483B000AF786039607B68DB6823F03B
:1025E000FE023B681A437B68DA6000BF0C37BD46C9
:1025F00080BC704780B483B000AF78607B68DB68D4
:1026000023F001027B68DA6000BF0C37BD4680BC56
:102610007047000080B400AF044B1B68034A43F4CA
:102620008033136000BFBD4680BC7047001002407D
:1026300080B400AF064B1B6803F40033B3F5003FD2
:102640000CBF01230023DBB21846BD4680BC704797
:102650000010024080B483B000AF7860064B5B6826
:1026600023F0030204497B6813434B6000BF0C371F
:10267000BD4680BC704700BF0010024080B400AF70
:10268000034B5B6803F00C031846BD4680BC7047E3
:102690000010024080B483B000AF7860064B5B68E6
:1026A00023F0F00204497B6813434B6000BF0C37F2
:1026B000BD4680BC704700BF0010024080B483B0AC
:1026C00000AF7860064B5B6823F4E06204497B68E6
:1026D00013434B6000BF0C37BD4680BC704700BF42
:1026E0000010024080B483B000AF7860064B5B6896
:1026F00023F4605204497B6813434B6000BF0C37DE
:10270000BD4680BC704700BF0010024080B400AFDF
:10271000044B1B68034A43F08073136000BFBD463F
:1027200080BC70470010024080B400AF064B1B68AD
:1027300003F00073B3F1007F0CBF01230023DBB271
:102740001846BD4680BC70470010024080B483B07C
:1027500000AF78603960084B5B6823F47C127B68BB
:1027600003F440313B680B43034913434B6000BF04
:102770000C37BD4680BC70470010024080B485B065
:1027800000AF7860084BDA6907497B681343CB6177
:10279000054BDA697B681340FB60FB6800BF1437A8
:1027A000BD4680BC704700BF0010024080B485B0B9
:1027B00000AF7860084B9A6907497B6813438B61C7
:1027C000054B9A697B681340FB60FB6800BF1437B8
:1027D000BD4680BC704700BF0010024080B483B08B
:1027E00000AF7860064B1B6823F0070204497B6842
:1027F00013430B6000BF0C37BD4680BC704700BF61
:102800000020024080B400AF034B1B6803F00703B5
:102810001846BD4680BC70470020024080B483B09B
:1028200000AF78607B681B6843F080027B681A60A9
:1028300000BF0C37BD4680BC704780B483B000AF8A
:1028400078607B681B6823F080027B681A6000BF99
:102850000C37BD4680BC704780B485B000AF78604F
:1028600039603B68012B1CD03B68042B17D03B68B8
:10287000102B12D03B68402B0DD03B68B3F5807F06
:1028800007D03B68B3F5806F01D105230AE006232A
:1028900008E0042306E0032304E0022302E001230E
:1028A00000E00023FB737B6818331946FB7B0A4A60
:1028B000D35C0B44BB60BB681A68FB7B0749CB5CED
:1028C000194604238B40DB431A40BB681A6000BFE3
:1028D0001437BD4680BC7047347800083C78000847
:1028E00080B485B000AF786039603B68012B1CD0A4
:1028F0003B68042B17D03B68102B12D03B68402B51
:102900000DD03B68B3F5807F07D03B68B3F5806F8F
:1029100001D105230AE0062308E0042306E003238F
:1029200004E0022302E0012300E00023FB737B6844
:1029300018331946FB7B0A4AD35C0B44BB60BB6867
:102940001A68FB7B0749CB5C194608238B401A4366
:10295000BB681A6000BF1437BD4680BC704700BF1B
:10296000347800083C78000880B483B000AF786009
:1029700039607B689B6823F4804323F007033A683F
:102980001A437B689A6000BF0C37BD4680BC704715
:1029900080B483B000AF786039607B685B6823F0F7
:1029A00070023B681A437B685A6000BF0C37BD4613
:1029B00080BC704780B483B000AF78607B689B6850
:1029C00023F080027B689A6000BF0C37BD4680BC54
:1029D000704780B483B000AF78607B68DB6843F4F5
:1029E00000527B68DA6000BF0C37BD4680BC704780
:1029F00080B483B000AF78607B681B6923F4904299
:102A00007B681A617B685B6923F02A027B685A61E4
:102A100000BF0C37BD4680BC704780B483B000AFA8
:102A2000786039603B681B0A9AB27B685A6100BFC4
:102A30000C37BD4680BC704780B400AF074B5B6865
:102A400023F0E06323F0C003044A43F0E06343F063
:102A50004003536000BFBD4680BC7047000001408A
:102A600080B400AF054B5B6823F0E063034A43F09A
:102A70000073536000BFBD4680BC7047000001403A
:102A800080B500AF0120FFF791FE4FF08050FFF7B7
:102A900075FE0320FFF7D4FCFFF7F6FC0346002287
:102AA0000F211846FFF744FD034619464FF0FF304B
:102AB000FFF714FDFFF7D4FF00F01EF800F056FA00
:102AC00000F086F900F0AAF800F054F800F0E8F9F8
:102AD00000F03CF9FEF780FBFEF794FCFEF70CFEDD
:102AE000FEF792FBFEF7F6FCFEF722FE01F036FF42
:102AF00001F03AFFFCE7000080B500AF0220FFF7CD
:102B00006DFE00BFFFF77EFE0346022BFAD1FFF7F2
:102B100081FD00BFFFF78CFD0346012BFAD14FF476
:102B200050114FF44030FFF711FEFFF7EFFD00BFEB
:102B3000FFF7FAFD0346012BFAD10020FFF7AAFDAB
:102B40004FF48060FFF7BAFD0020FFF7CBFD0220B5
:102B5000FFF780FD00BFFFF791FD0346082BFAD178
:102B6000034801F05FFB024801F08EFB00BF80BD0F
:102B70000087930380B58CB000AF07F118030022E3
:102B80001A605A609A60DA601A615A613B1D00222D
:102B90001A605A609A60DA601A610820FFF706FE30
:102BA0004CF2C0037B600923BB600323FB6004235A
:102BB0003B613B1D1946164800F0B4FC4FF4001071
:102BC000FFF7DCFD1348FFF715FD1248FFF7F1FC96
:102BD0001048FFF7DFFC0023BB610F4BFB610023B4
:102BE0003B6200237B624FF48063BB624FF48043FF
:102BF000FB6207F118031946064800F0E9FD0021C1
:102C00000448FFF7E5FC00BF3037BD4680BD00BF7C
:102C1000000C014000540040801A060080B598B0B6
:102C200000AF07F14C0300221A605A609A60DA6024
:102C30001A6107F12C0320220021184602F025FD1D
:102C400007F1140300221A605A609A60DA601A6170
:102C50005A613B4600221A605A609A60DA601A6133
:102C60004FF40060FFF7A2FD0023A7F84C300023CB
:102C70003B654FF6FF737B650023BB650023FB6557
:102C800007F14C0319462E4800F050FF2C48FFF77F
:102C9000D4FD00212A48FFF767FE01212848FFF7ED
:102CA0001FFE6023FB6200233B6300237B63002342
:102CB000BB630023FB6300233B6400237B6400238E
:102CC000BB6407F12C031A4601211D4800F08CFF5C
:102CD00001211B48FFF7C0FD00211948FFF758FEEE
:102CE0001748FFF767FE00237B610023BB610023C9
:102CF000FB61542387F8203000237B844FF400537A
:102D00007B620023BB6207F1140319460C4800F0F4
:102D1000ACFF0420FFF74AFD0A4B3B6009237B60B0
:102D20000223BB600023FB603B461946064800F0C7
:102D3000F9FBFFF781FE00BF6037BD4680BD00BFD5
:102D4000002C0140818001040008014080B586B05C
:102D500000AF3B1D00221A605A609A60DA601A6167
:102D60000120FFF70BFDFFF78FFB03460022022136
:102D70001846FFF7DDFB034619461C20FFF7AEFBA4
:102D80001C20FFF78FFB0023BB800023BB604FF6A6
:102D9000FF73FB6000233B613B1D19464FF08040F1
:102DA00000F0C4FE4FF08040FFF738FD00214FF0E7
:102DB0008040FFF7D9FD00214FF08040FFF7E8FD8C
:102DC0004FF08040FFF7F6FD00BF1837BD4680BDCD
:102DD00080B58CB000AF07F1140300221A605A606E
:102DE0009A60DA601A615A619A613B4600221A6061
:102DF0005A609A60DA601A614FF48040FFF7D6FC9F
:102E00000420FFF7D3FC224B3B6009237B600323A4
:102E1000BB600023FB603B4619461E4800F082FB66
:102E20001D4B3B6004237B603B461946194800F06C
:102E300079FBFFF729FB0346002201211846FFF723
:102E400077FB034619462520FFF748FB2520FFF7AF
:102E500029FB4FF4E1337B610023BB610023FB615D
:102E600000233B620C237B620023BB620023FB62D6
:102E700007F114031946094801F05AF90748FFF70A
:102E8000B7FD0648FFF7A5FD00BF3037BD4680BD42
:102E9000020002040008014004000404003801405C
:102EA00080B58CB000AF07F1140300221A605A609D
:102EB0009A60DA601A615A619A613B4600221A6090
:102EC0005A609A60DA601A614FF40030FFF756FCDE
:102ED0000420FFF76BFC40F204433B6009237B6056
:102EE0000323BB600023FB603B4619461D4800F0EE
:102EF00019FB40F608033B6004237B603B46194600
:102F0000184800F00FFBFFF7BFFA0346002201212B
:102F10001846FFF70DFB034619462620FFF7DEFA99
:102F20002620FFF7BFFA4FF4E1337B610023BB613A
:102F30000023FB6100233B620C237B620023BB6206
:102F40000023FB6207F114031946074801F0F0F86B
:102F50000548FFF74DFD0448FFF73BFD00BF303744
:102F6000BD4680BD000801400044004080B586B0E9
:102F700000AF3B1D00221A605A609A60DA601A6145
:102F80002020FFF713FC0420FFF710FC0820FFF7B8
:102F90000DFC44F242211348FFF73FFD124913484C
:102FA000FFF73BFD44F242237B600123BB60022319
:102FB000FB6000233B613B1D19460A4800F0B2FA52
:102FC000094B7B600123BB600223FB6000233B6154
:102FD0003B1D1946054800F0A5FA00BF1837BD464D
:102FE00080BD00BF0008014087078404000C014039
:102FF00080B500AFFFF798F9FEF766FD00BF80BD12
:1030000080B400AF00BFFDE780B400AF00BFFDE7B4
:1030100080B400AF00BFFDE780B400AF00BFFDE7A4
:1030200080B400AF00BFFDE780B400AF00BFBD4675
:1030300080BC704780B400AF00BFBD4680BC704705
:1030400080B400AF00BFBD4680BC704780B500AF04
:10305000FFF7CEFF01F0EEFB00BF80BD80B400AFF4
:1030600000BFBD4680BC704780B500AF034B1B68F6
:103070001846FFF76BF900BF80BD00BF600000205D
:1030800080B400AF00BFBD4680BC704780B400AFC5
:1030900001231846BD4680BC704780B582B000AFA2
:1030A0007860396002F054FB034616221A604FF034
:1030B000FF3318460837BD4680BD80B582B000AFEB
:1030C00078604FF0FF317868FFF7E7FF00BFFDE75A
:1030D00080B586B000AFF860B9607A6000237B618C
:1030E0000AE0AFF300800146BB685A1CBA60CAB25E
:1030F0001A707B6901337B617A697B689A42F0DBE5
:103100007B6818461837BD4680BD80B586B000AFD5
:10311000F860B9607A6000237B6109E0BB685A1CE3
:10312000BA601B781846AFF300807B6901337B617E
:103130007A697B689A42F1DB7B6818461837BD468E
:1031400080BD80B483B000AF78604FF0FF33184685
:103150000C37BD4680BC704780B483B000AF786048
:1031600039603B684FF400525A60002318460C3710
:10317000BD4680BC704780B483B000AF7860012347
:1031800018460C37BD4680BC704780B485B000AF90
:10319000F860B9607A60002318461437BD4680BCD9
:1031A0007047000080B586B000AF7860144A154BB8
:1031B000D31A7B617B693B61134B1B68002B02D1E7
:1031C000114B124A1A60104B1A687B6813443A6913
:1031D0009A4207D202F0BCFA03460C221A604FF062
:1031E000FF3309E0084B1B68FB60074B1A687B68DC
:1031F0001344054A1360FB6818461837BD4680BD66
:10320000005000200004000068040020D0070020C7
:1032100080B400AF00BFBD4680BC7047FFF7F8FF29
:103220000B480C490C4A002302E0D458C450043324
:10323000C4188C42F9D3094A094C002301E01360F9
:103240000432A242FBD302F089FAFFF719FC70475F
:10325000000000204402002068840008440200208E
:10326000D0070020FEE7000080B582B000AF034623
:10327000FB713B4B5B6801221A70FB79032B23D84F
:1032800001A252F823F000BF99320008A5320008CD
:10329000B1320008BD320008314B5B680133C122F6
:1032A0001A7011E02E4B5B680133D1221A700BE0CB
:1032B0002B4B5B680133E1221A7005E0284B5B68F9
:1032C0000133F1221A7000BF254B5B6883221A700C
:1032D000234B03229A602248FEF706FB204B1B7B00
:1032E000DBB2002B01D1002335E01D4B5B680022CF
:1032F0001A701B4B01229A601948FEF7F5FA184B19
:103300001B7BDBB2002B01D1002324E0142000F052
:1033100097FF134B02229A601148FEF72FFB104BC8
:103320005B681B78DBB21B021AB20D4B5B68013382
:103330001B78DBB21BB213431AB2FB7991B2094A74
:1033400022F83310FB79074A32F83330FB79054A0B
:1033500032F833309BB218460837BD4680BD00BFF7
:10336000680000206C04002080B582B000AF0346E6
:10337000FB71FB791846FFF777FF0D4B1B889BB25B
:103380001B031846FDF794FC03464FF08F41184687
:10339000FDF796FD03461A46054B5A60FB79044A31
:1033A000DB0013445B6818460837BD4680BD00BF8C
:1033B0006C04002090B488B000AFF860B9607A6007
:1033C000FB681A46BB681B0E13441C462268BB6888
:1033D0007B617B6993FAA3F33B613B69B3FA83F3A7
:1033E000DBB29B000F2101FA03F3DB431A40BB68F9
:1033F000FB61FB6993FAA3F3BB61BB69B3FA83F387
:10340000DBB29B00796801FA03F31343236000BF2A
:103410002037BD4690BC704790B488B000AFF860CC
:10342000B9607A60FB681A46BB681B0E13441C46E1
:103430002268BB687B617B6993FAA3F33B613B69BC
:10344000B3FA83F3DBB29B00032101FA03F3DB43FE
:103450001A40BB68FB61FB6993FAA3F3BB61BB69CC
:10346000B3FA83F3DBB29B00796801FA03F31343E9
:10347000236000BF2037BD4690BC704790B488B031
:1034800000AFF860B9607A60FB681A46BB681B0E33
:1034900013441C462268BB687B617B6993FAA3F3E3
:1034A0003B613B69B3FA83F3DBB29B00042101FA71
:1034B00003F3DB431A40BB68FB61FB6993FAA3F398
:1034C000BB61BB69B3FA83F3DBB29B00796801FA95
:1034D00003F31343236000BF2037BD4690BC704701
:1034E00080B487B000AFF860B9607A60FB68DA68D2
:1034F000BB681B0ADB431A40BB681B0A7B617B6904
:1035000093FAA3F33B613B69B3FA83F3DBB2194649
:103510007B688B401A43FB68DA6000BF1C37BD46EE
:1035200080BC704780B588B000AF786039603B6878
:103530001B681B021B0C7B617B693B613B6993FA37
:10354000A3F3FB60FB68B3FA83F3DBB2FB6144E0F7
:103550000122FB699A407B691340002B3AD0FB693A
:10356000072B06D840F20112FB6902FA03F3BB6194
:1035700008E0FB69083B4FF0011202FA03F343F045
:103580008063BB613B685B68082B06D13B681B69A5
:103590001A46B9697868FFF7A3FF3B685B681A466B
:1035A000B9697868FFF706FF3B685B68012B03D0B9
:1035B0003B685B68092B0DD13B689B681A46B9696B
:1035C0007868FFF729FF3B68DB681A46B9697868B5
:1035D000FFF754FFFB690133FB617A69FB6922FA4B
:1035E00003F3002BB4D1002318462037BD4680BD1D
:1035F00080B483B000AF78607B681B6843F0010241
:103600007B681A6000BF0C37BD4680BC704780B431
:1036100083B000AF78607B681B6823F001027B6891
:103620001A6000BF0C37BD4680BC704780B485B0BF
:1036300000AFF860B9607A60FB689B6823F40343CD
:1036400023F0FF03B9687A680A431A43FB689A605B
:1036500000BF1437BD4680BC7047000080B487B0FF
:1036600000AFF860B9607A603B6000233B610023E3
:103670007B61BB68414AA2FB03239B0C3B61FB6857
:103680005B6823F03F023B691A43FB685A60FB68A2
:103690001B6A23F03F027B6839498B4202D83B69A1
:1036A000013309E03B694FF4967101FB03F335499F
:1036B000A1FB03139B0901331A43FB681A627B6861
:1036C0002F4A934239D93B68002B17D17A681346A9
:1036D0005B001344BA68B2FBF3F3C3F30B03002B94
:1036E00009D07A6813465B001344BA68B2FBF3F35F
:1036F00043F400431DE048F201031AE07A681346E0
:103700009B0013449A001344BA68B2FBF3F3C3F36B
:103710000B03002B0BD07A6813469B0013449A00CE
:103720001344BA68B2FBF3F343F4004301E048F2F8
:1037300001033A6813437B6111E07B685B00BA6860
:10374000B2FBF3F240F6FC731340002B05D07B680C
:103750005B00BA68B2FBF3F300E004237B61FB6813
:10376000DB6923F44F4323F0FF037A691A43FB68B4
:10377000DA6100BF1C37BD4680BC704783DE1B4347
:10378000A0860100D34D621080B483B000AF786092
:1037900039607B681B6823F01A023B681A437B6818
:1037A0001A6000BF0C37BD4680BC704780B483B040
:1037B00000AF786039607B681B6823F480623B68E7
:1037C0001A437B681A6000BF0C37BD4680BC704747
:1037D00080B586B000AF786039607868FFF717FF72
:1037E00007F10803184600F07BF839693B685A680E
:1037F0003B689B687868FFF731FF3B68D9683B6896
:103800005B691A467868FFF711FF3B681B68194629
:103810007868FFF7B9FF7868FFF7EAFE3B681B6935
:1038200019467868FFF7C2FF002318461837BD46CF
:1038300080BD000080B400AF034B5B6803F00C0355
:103840001846BD4680BC70470010024080B400AFEF
:10385000034B5B6803F0F0031846BD4680BC70471D
:103860000010024080B400AF034B5B6803F4E063D8
:103870001846BD4680BC70470010024080B400AFBF
:10388000034B5B6803F460531846BD4680BC704729
:103890000010024080B400AF034B5B6803F4803338
:1038A0001846BD4680BC70470010024080B400AF8F
:1038B000034B5B6803F470131846BD4680BC704729
:1038C0000010024080B400AF044B5B685B0C03F057
:1038D00001031846BD4680BC704700BF001002407F
:1038E00080B582B000AF786000F020F802467B68B7
:1038F0001A607B681B68184600F03EF802467B6839
:103900005A607B685B68184600F04CF802467B689A
:103910009A607B685B68184600F058F802467B683E
:10392000DA6000BF0837BD4680BD000080B582B0B8
:1039300000AF00237B60FFF77DFF0346082B0CD010
:10394000082B0ED8002B02D0042B03D009E0094B22
:103950007B6009E0074B7B6006E000F04BF8786085
:1039600002E0044B7B6000BF7B6818460837BD4609
:1039700080BD00BF00127A0080B582B000AF7860D1
:10398000FFF764FF03461B0903F00F03044AD35CEF
:103990001A467B68D34018460837BD4680BD00BF35
:1039A0004478000880B582B000AF7860FFF75AFF16
:1039B00003461B0A044AD35C1A467B68D340184668
:1039C0000837BD4680BD00BF5478000880B582B07E
:1039D00000AF7860FFF752FF0346DB0A044AD35C6E
:1039E0001A467B68D34018460837BD4680BD00BFE5
:1039F0005478000880B582B000AF00237B600023BC
:103A00003B60FFF747FF38603B68002B04D03B6802
:103A1000B3F5803F03D00BE00D4B7B600BE0FFF76D
:103A200051FF034601330B4AB2FBF3F37B6002E024
:103A3000074B7B6000BFFFF739FF03469B0C023347
:103A40007A6802FB03F318460837BD4680BD00BF05
:103A500000093D0000127A0080B483B000AF7860A6
:103A600039607B683A689A6200BF0C37BD4680BCFB
:103A7000704780B483B000AF786039607B683A6883
:103A8000DA6200BF0C37BD4680BC704780B483B09B
:103A900000AF786039607B683A681A6300BF0C3702
:103AA000BD4680BC704780B483B000AF7860396099
:103AB0007B683A685A6300BF0C37BD4680BC7047CC
:103AC00080B483B000AF786039607B683A689A63ED
:103AD00000BF0C37BD4680BC704780B483B000AFD8
:103AE000786039607B683A68DA6300BF0C37BD469E
:103AF00080BC704780B483B000AF786039607B6869
:103B00003A681A6400BF0C37BD4680BC704780B469
:103B100083B000AF78607B685B6943F001027B682B
:103B20005A6100BF0C37BD4680BC704780B584B079
:103B300000AF786039607B681B68FB607B68274A50
:103B400093420BD07B68B3F1804F07D07B68244A47
:103B5000934203D07B68234A934206D1FB6823F04B
:103B600070023B685B681343FB607B681B4A9342AF
:103B70000BD07B68B3F1804F07D07B68184A934223
:103B800003D07B68174A934206D1FB6823F4407246
:103B90003B68DB681343FB607B68FA681A603B682C
:103BA0009B6819467868FFF764FF3B681B881946D5
:103BB0007868FFF751FF7B68084A934205D13B685C
:103BC0001B6919467868FFF761FF7868FFF79FFF68
:103BD000002318461037BD4680BD00BF002C0140B1
:103BE000000400400008004080B586B000AFF860D7
:103BF000B9607A600123FB75BB68B3F5805F27D09D
:103C0000BB68B3F5805F2AD8BB68B3F5807F18D056
:103C1000BB68B3F5807F22D8BB68012B03D0BB689B
:103C2000102B07D01BE07968F86800F05FF80346B6
:103C3000FB7515E07968F86800F0BEF80346FB757F
:103C40000EE07968F86800F021F90346FB7507E09B
:103C50007968F86800F084F90346FB7500E000BF5E
:103C6000FB7D18461837BD4680BD80B485B000AFD7
:103C7000786039600023FB60FB6823F0FF033A683B
:103C8000127B1343FB60FB6823F440723B689B6824
:103C90001343FB60FB6823F480623B685B6813435B
:103CA000FB60FB6823F400623B681B681343FB6006
:103CB000FB6823F480533A68D2891343FB60FB68A6
:103CC00023F400523B681B691343FB60FB6823F439
:103CD00080423B685B691343FB607B68FA685A6407
:103CE000002318461437BD4680BC704780B586B0A7
:103CF00000AF786039607B681B6A23F001027B6843
:103D00001A627B681B6A7B617B685B683B617B68CE
:103D10009B69FB60FB6823F00303FB60FB6823F0F7
:103D200070023B681B681343FB607B6923F002024F
:103D30003B681B6913437B617B6923F001023B688D
:103D40005B6813437B617B681A4A93421ED17B698F
:103D500023F008023B685B699B0013437B617B692E
:103D600023F004023B689B689B0013437B613B6923
:103D700023F480723B689B6913433B613B6923F4E6
:103D800000723B68DB695B0013433B617B683A6907
:103D90005A607B68FA689A613B68DB681946786804
:103DA000FFF781FE7B687A691A620023184618378C
:103DB000BD4680BD002C014080B586B000AF786064
:103DC00039607B681B6A23F010027B681A627B688B
:103DD0001B6A7B617B685B683B617B689B69FB60FE
:103DE000FB6823F44073FB60FB6823F4E0423B680C
:103DF0001B681B021343FB607B6923F020023B68B6
:103E00001B691B0113437B617B6923F010023B6834
:103E10005B681B0113437B617B681B4A93421FD184
:103E20007B6923F080023B685B699B0113437B61E4
:103E30007B6923F040023B689B689B0113437B61D5
:103E40003B6923F480623B689B699B0013433B61A1
:103E50003B6923F400623B68DB69DB0013433B6191
:103E60007B683A695A607B68FA689A613B68DB68EC
:103E700019467868FFF724FE7B687A691A62002386
:103E800018461837BD4680BD002C014080B586B06D
:103E900000AF786039607B681B6A23F480727B68AE
:103EA0001A627B681B6A7B617B685B683B617B682D
:103EB000DB69FB60FB6823F00303FB60FB6823F016
:103EC00070023B681B681343FB607B6923F400723C
:103ED0003B681B691B0213437B617B6923F480727F
:103EE0003B685B681B0213437B617B681B4A934200
:103EF0001FD17B6923F400623B685B699B0213431B
:103F00007B617B6923F480623B689B689B0213435F
:103F10007B613B6923F480523B689B691B0113431F
:103F20003B613B6923F400523B68DB695B0113434F
:103F30003B617B683A695A607B68FA68DA613B6882
:103F4000DB6819467868FFF7C8FD7B687A691A62F2
:103F5000002318461837BD4680BD00BF002C014025
:103F600080B586B000AF786039607B681B6A23F447
:103F700080527B681A627B681B6A3B617B685B6866
:103F80007B617B68DB69FB60FB6823F44073FB604B
:103F9000FB6823F4E0423B681B681B021343FB6091
:103FA0003B6923F400523B681B691B0313433B61CD
:103FB0003B6923F480523B685B681B0313433B61FE
:103FC0007B680F4A934207D17B6923F480423B68A8
:103FD0009B699B0113437B617B687A695A607B68AC
:103FE000FA68DA613B68DB6819467868FFF782FD9A
:103FF0007B683A691A62002318461837BD4680BDAF
:10400000002C014080B483B000AF78607B68DB682F
:1040100003F40053B3F5005F0CBF01230023DBB2B0
:1040200018460C37BD4680BC704780B483B000AFE3
:10403000786039607B681B6923F440523B681A43FF
:104040007B681A6100BF0C37BD4680BC704780B4E6
:1040500083B000AF786039607B685B6923F440729D
:104060003B681A437B685A6100BF0C37BD4680BC71
:104070007047000080B485B000AFF860B9607A6026
:10408000BA6813469B0013449A001A447B689B004D
:10409000B2FBF3F3254AA2FB03235B099BB21B018E
:1040A00099B2BA6813469B0013449A001A447B687D
:1040B0009B00B2FBF3F21D4BA3FB02035B096420E0
:1040C00000FB03F3D31A1B013233184AA2FB03236C
:1040D0005B099BB203F0F0039BB20B4499B2BA6840
:1040E00013469B0013449A001A447B689B00B2FB62
:1040F000F3F20E4BA3FB02035B09642000FB03F306
:10410000D31A1B013233094AA2FB03235B099BB27A
:1041100003F00F039BB20B449BB21A46FB689A60F4
:1041200000BF1437BD4680BC704700BF1F85EB51F0
:1041300080B588B000AF786039600123FB77002339
:10414000BB617868FFF75EFF0346002B45D17B68B3
:10415000DB6823F4B05323F00C033A6851683A68E3
:10416000D26811433A6812690A431A437B68DA60DD
:104170003B689B6819467868FFF757FF3B685B69A7
:1041800019467868FFF763FF07F108031846FFF741
:10419000A7FB7B68134A934202D17B69BB610CE0A9
:1041A0007B68114A934202D13B69BB6105E07B68A1
:1041B0000E4A934201D13B69BB61BB69002B0CD015
:1041C0003B681B68002B08D00023FB773B681B680B
:1041D0001A46B9697868FFF74DFFFB7F184620370C
:1041E000BD4680BD0038014000440040004800400A
:1041F00080B483B000AF786039607A683B68B2FB06
:10420000F3F3074A013B5360054B00229A60044BCD
:1042100005221A6000BF0C37BD4680BC704700BF46
:1042200010E000E080B582B000AF78604FF47A71A2
:104230007868FFF7DDFF00BF0837BD4680BD00008E
:1042400080B485B000AF78600E4B1B68FB60FB68E4
:104250007B68B3F1FF3F0CD07B6801337B6008E0E3
:10426000084B1B6803F48033002B02D07B68013BB2
:104270007B607B68002BF3D100BF00BF1437BD46C5
:1042800080BC704710E000E080B483B000AF78607D
:10429000034A7B68136000BF0C37BD4680BC704783
:1042A000640000200000000080B584B000AF78609A
:1042B0007868FCF7C3F810A3D3E90023FCF716F9DC
:1042C00002460B46104619460DA3D3E90023FBF71F
:1042D00057FF02460B4610461946FCF7DFFB034624
:1042E000FB60F868FCF7FEFE034618461037BD4633
:1042F00080BD00BFAFF30080BC1ACE6CBF0BC6BF41
:10430000DD9D1095A1E45C4080B582B000AF03460E
:10431000FB71FB79142B38BF1423DBB2143BFB7108
:10432000FB79164ADB0013449B889AB2144B1B6836
:10433000013A92B21A81FB79104ADB001344DB8800
:104340009AB20F4B1B68013A92B29A80FB790B4AE2
:10435000DB001344DB889BB2DA0F13445B101A4670
:10436000074B1B6892B2DA80054B1B681846FDF7B5
:1043700092FD00BF0837BD4680BD00BFE47F000846
:104380007800002080B586B000AF78607B684C4A2A
:1043900093421ED94B4BB3F84C359AB24A4B1B682B
:1043A000013A92B21A81474BB3F84E359AB2464B56
:1043B0001B68013A92B29A80424BB3F84E359BB2D9
:1043C000DA0F13445B101A463F4B1B6892B2DA8037
:1043D0006DE07B683D4A93421BD83A4B9B889AB26A
:1043E000394B1B68013A92B21A81364BDB889AB27C
:1043F000354B1B68013A92B29A80324BDB889BB2F4
:10440000DA0F13445B101A462F4B1B6892B2DA8006
:104410004DE000233B610023FB6000237B6143E010
:10442000284A7B6952F833307A68D31A184600F06C
:104430004FF838617B690133224A52F833307A6889
:10444000D31A184600F044F8F8603A69FB689A42BB
:1044500027DC7B69013B1B4ADB0013449B889AB233
:10446000194B1B68013A92B21A817B69013B154ACC
:10447000DB001344DB889AB2134B1B68013A92B2FB
:104480009A807B69013B0F4ADB001344DB889BB2B7
:10449000DA0F13445B101A460B4B1B6892B2DA809A
:1044A00005E07B6901337B617B69A82BB8D9064B9A
:1044B0001B681846FDF7EFFC00BF1837BD4680BDEE
:1044C000880702005C78000878000020DF280100DF
:1044D00080B483B000AF78607B68002B01DB7B6821
:1044E00001E07B685B4218460C37BD4680BC7047D4
:1044F00080B483B000AF78607B684FF000021A6030
:104500007B684FF000025A607B684FF000029A60AF
:104510007B684FF00002DA607B684FF000021A619E
:104520007B684FF000025A617B684FF000021A620C
:1045300000BF0C37BD4680BC70470000B0B582B0EC
:1045400000AF786039603B681B6A19467868FCF7F1
:10455000F9FA03461A463B681A613B689C693B6856
:104560001A693B685B6919461046FCF7EBFA03468B
:1045700019462046FCF7F0FB03461A463B681A60D2
:104580003B68DB691846FBF759FF4FF00002254BEB
:10459000FBF7ACFF02460B46104619464FF00002EF
:1045A000214BFBF7A3FF02460B4614461D463B6812
:1045B0001A693B685B6919461046FCF7C5FA034661
:1045C0001846FBF73BFF02460B4620462946FBF701
:1045D0008DFF02460B4610461946FCF75FFA02466D
:1045E0003B685A603B68DA683B681B6819461046AE
:1045F000FCF7AAFA03461A463B685B681946104660
:10460000FCF7A2FA03461A463B689A603B681A69AF
:104610003B685A613B689A683B68DA6000BF0837BC
:10462000BD46B0BD0000E03F0000244080B582B030
:1046300000AF7860802000F0F1F903461A467B68ED
:104640001A607B6800225A607B6800229A607B684F
:104650000022DA6000BF0837BD4680BD80B483B059
:1046600000AF78607B6800225A607B6800229A6005
:104670007B680022DA6000BF0C37BD4680BC704703
:1046800080B483B000AF78607B68DB68002B0CBF20
:1046900001230023DBB218460C37BD4680BC7047AF
:1046A00080B483B000AF78607B68DB68802B0CBF80
:1046B00001230023DBB218460C37BD4680BC70478F
:1046C00080B582B000AF78600B46FB707868FFF76A
:1046D000E7FF0346002B02D07868FFF7BFFF7B6837
:1046E0001A687B685B681344FA781A707B685B68A9
:1046F000013303F07F027B685A607B68DB685A1CD9
:104700007B68DA6000BF0837BD4680BD90B583B0D6
:1047100000AF78607868FFF7B3FF0346002B01D045
:10472000FF2313E07B681A687B689B6813441B783F
:10473000DCB27B689B68013303F07F027B689A6080
:104740007B68DB685A1E7B68DA60234618460C37A4
:10475000BD4690BD0000000080B584B000AF786019
:104760007868FBF76BFE10A3D3E90023FBF7BEFECE
:1047700002460B46104619460DA3D3E90023FBF76A
:10478000FFFC02460B4610461946FCF787F9034624
:10479000FB60F868FCF7A6FC034618461037BD46D8
:1047A00080BD00BFAFF30080BC1ACE6CBF0BC6BF8C
:1047B000DD9D1095A1E45C4080B485B000AF7860C9
:1047C00039600123FB737B68002B29D03B68002BE9
:1047D00026D0164B1B78122B22D8144B1B781A4666
:1047E00013465B0013449B00114A1344BB60BB6833
:1047F0003A689A60BB6800225A803B689A68BB6836
:104800005A60BB6801221A70084B1A787B681A70CC
:10481000064B1B780133DAB2044B1A700023FB738A
:10482000FB7B18461437BD4680BC704780050020CE
:104830009004002080B485B000AF424B1B68013368
:10484000404A13600023FB7325E0FA7B13465B00AC
:1048500013449B003C4A13447B607B689B681B7835
:10486000012B15D17B681B78012B11D17B685B680C
:104870005A1C7B685A607B685B687A6892685288C9
:10488000934205D37B6800225A607B6801225A80DC
:10489000FB7B0133FB732D4B1B78FA7B9A42D4D3FD
:1048A0000023BB732BE0BA7B13465B0013449B00D1
:1048B000274A1344BB60BB681B78012B1CD1BB6823
:1048C0005B685A1CBB685A60BB685B68BA689268D0
:1048D0005288934210D3BB6801225A80BB680022E1
:1048E0005A60BB689B681B78022B0CBF0123002316
:1048F000DBB21A46BB681A70BB7B0133BB73154B26
:104900001B78BA7B9A42CED30023BB7310E0BB7BEB
:10491000114A52F82330002B07D0BB7B0E4A52F8C5
:104920002320013A0C4941F82320BB7B0133BB73A0
:10493000BB7B012BEBD900BF00BF1437BD4680BC49
:10494000704700BF780600209004002080050020FA
:1049500084050020740600207C06002080B500AF8E
:10496000FDF7BCFA00BF80BD80B584B000AF002366
:10497000FB731EE0FA7B13465B0013449B00234A43
:1049800013447B607B685B88012B0FD17B681B78AD
:10499000012B0BD17B6800225A807B689B685B6887
:1049A000002B03D07B689B685B689847FB7B0133D7
:1049B000FB73174B1B78FA7B9A42DBD30023BB7344
:1049C0001AE0BA7B13465B0013449B00114A134460
:1049D000BB60BB685B88012B0BD1BB6800225A808F
:1049E000BB689B685B68002B03D0BB689B685B68F7
:1049F0009847BB7B0133BB73074B1B78BA7B9A424A
:104A0000DFD300BF00BF1037BD4680BD900400203B
:104A1000800500208405002074060020024B01461A
:104A2000186800F025B800BF8800002070B50F4E50
:104A30000C463168054611B900F068FE3060214629
:104A4000284600F063FE431C03D14FF0FF3420469C
:104A500070BDC41C24F00304A042F8D0211A2846DB
:104A600000F054FE0130F2D1EFE700BF84060020D1
:104A70002DE9F843CD1C25F0030508350C2D38BF72
:104A80000C25002D064601DBA94204D90C23336016
:104A90000020BDE8F883DFF8D48000F069F8D8F88A
:104AA00000301C4644BB29463046FFF7BFFF431C7D
:104AB000044658D1D8F800402746002F43D1002C97
:104AC0004BD023683946304604EB030900F01EFE44
:104AD000814542D1216830466D1A2946FFF7A6FF6D
:104AE00001303AD023682B442360D8F800305A684C
:104AF00062BBC8F800700FE02268521B20D40B2A5A
:104B000017D96119A342256018BF5960636808BFAF
:104B1000C8F8001062514B60304600F02FF804F1E5
:104B20000B00231D20F00700C21A1CBF1B1AA35044
:104B3000AFE76268A3420CBFC8F800205A60EBE7F9
:104B400023466468AEE73C467F68B6E71A465B6872
:104B5000A342FBD100235360DEE70C2330463360D1
:104B600000F00CF894E70560D6E700BF8806002047
:104B7000014800F018BE00BFCC070020014800F03B
:104B800013BE00BFCC070020002B2DE9F0471D46C7
:104B9000BBBF03F100431D4600232D2388B01446FC
:104BA000B8BF1446129A109E1370149BDDF84CA0E7
:104BB00023F02008B8F1460F05D0B8F1450F00D119
:104BC0000136022300E0032307AA049206AACDE9D6
:104BD00002A2CDE9003622462B4600F07DFEB8F158
:104BE000470F074619D1119BDB070ED500EB0609CD
:104BF0000022002320462946FBF7E0FE08B1CDF84D
:104C00001C903022079B4B451ED33846079B159AB4
:104C1000DB1B136008B0BDE8F087B8F1460F00EB6E
:104C20000609E5D10378302B0AD100220023204663
:104C30002946FBF7C3FE18B9C6F10106CAF80060A1
:104C4000DAF800309944D3E7591C07911A70D9E774
:104C5000F7B50029B6BF2D232B234942092902703D
:104C6000437029DD0DF107031D460A27B1FBF7F656
:104C70001A4607FB1614303402F8014C0C46632C1C
:104C8000314603F1FF33F1DC3031941E03F8011C8F
:104C90002346411CAB420AD30DF109039B1AAC42D7
:104CA00088BF002302330344181A03B0F0BD13F881
:104CB000016B01F8016FEDE7302330318370C17073
:104CC000031DF1E72DE9F04F91B00C46DDF8688047
:104CD00016461F46054600F0E1FC03681846089397
:104CE000FBF740FA00230E93D8F800300990073301
:104CF00023F0070303F1080294F818A0D4F800B0D9
:104D0000C8F80020D3E9008929F000430B93CDF8BF
:104D100028804FF0FF32DDE90A01C4E912899C4B7B
:104D2000FBF77EFE70BBDDE90A014FF0FF32984BC6
:104D3000FBF758FE30BB0022002340464946FBF7F4
:104D400047FE10B12D2384F84330924A924BBAF1BA
:104D5000470F94BF9046984603234FF00009236104
:104D60002BF00403236033462146284600970FAA00
:104D700000F0D4F9013040F090804FF0FF3011B0D6
:104D8000BDE8F08F42464B4640464946FBF748FE99
:104D900048B14B46002BB8BF2D23804AB8BF84F8DA
:104DA00043307F4BD3E763680AF0DF015A1C3FD1E1
:104DB0000623636000224BF48063236006920EAAF0
:104DC000CDE904A20DAA03920DF13302CDE901321F
:104DD00063684246009328464B460A91FFF7D4FE8B
:104DE0000A99804647290D9928D1C81C02DB6368BF
:104DF000994240DDAAF1020A5FFA8AFA5246013965
:104E000004F150000D91FFF723FF0E9A814613180D
:104E1000012A236102DC2268D20701D50133236114
:104E20009DF83330002B9ED02D2384F843309AE731
:104E30004729BFD1002BBDD10123BAE7BAF1650FD5
:104E4000DCD9BAF1660F18D1002963680BDD216146
:104E500013B92268D00702D501330B4423614FF008
:104E60000009A165DCE713B92268D20701D5023336
:104E7000F4E70123F2E74FF0670A0E9B994205DB46
:104E800023682161D807EAD54B1CE7E70029CCBF8E
:104E90000122C1F102021344E0E723685A0507D456
:104EA0002369424631462846B84701302BD164E792
:104EB000BAF1650F40F2DC80D4E912010022002330
:104EC000FBF77CFD002833D0012331462846354AC4
:104ED000B84701303FF451AFDDE90D38434502DBFF
:104EE0002368D8070FD5DDE9082331462846B8479F
:104EF00001303FF442AF4FF0000908F1FF3804F1F0
:104F00001A0AC84509DC23689B0700F10281E068A2
:104F10000F9B9842B8BF184631E7012352463146ED
:104F20002846B84701303FF428AF09F10109E8E706
:104F30000D9B002B38DC012331462846194AB8471F
:104F400001303FF41AAFDDE90D3959EA030302D10C
:104F50002368D907D7D5DDE9082331462846B84765
:104F600001303FF40AAF4FF0000A04F11A0B0D9B19
:104F70005B42534501DC4B4693E701235A463146D9
:104F80002846B84701303FF4F8AE0AF1010AEEE7CF
:104F9000FFFFEF7FE4800008E8800008EC80000855
:104FA000F0800008F4800008A36DDDF838A05345B8
:104FB000A8BF5346002B994636DC4FF0000B29EA78
:104FC000E97904F11A02A36D0A93A3EB09035B4587
:104FD00031DC0D9B9A453ADC2368DA0737D40D9B08
:104FE000AAEB03090A9BAAEB03039945A8BF9946BC
:104FF000B9F1000F33DC4FF0000829EAE97904F138
:105000001A0B0D9BAAEB0303A3EB090343457FF7A0
:105010007AAF01235A4631462846B84701303FF45B
:10502000ACAE08F10108ECE7424631462846B847E5
:105030000130C2D1A1E60123314628460A92B84781
:1050400001303FF49AAE0A9A0BF1010BBBE73146EF
:10505000DDE908232846B8470130C0D18DE60A9A19
:105060004B46314628464244B8470130C3D184E616
:10507000DDF838A0BAF1010F01DCDB0736D50123DA
:10508000424631462846B84701303FF476AEDDE966
:10509000082331462846B84701303FF46EAED4E9C4
:1050A0001201002200230AF1FF3AFBF787FCC0B986
:1050B000534608F1010231462846B84701300CD169
:1050C0005BE601235A4631462846B84701303FF493
:1050D00054AE08F10108D045F3DB4B4604F1500211
:1050E000E0E64FF0000804F11A0BF4E70123424612
:1050F000E1E701234A4631462846B84701303FF4EC
:105100003CAE08F10108E3680F995B1A4345F0DCF7
:10511000FDE64FF0000804F11909F4E72DE9F04726
:10512000164698468A680B6907469342B8BF1346ED
:10513000336091F843200C46DDF820900AB101332A
:1051400033602368990642BF3368023333602568B1
:1051500015F0060506D104F1190AE36832689B1AB6
:10516000AB422BDC94F843302268003B18BF01238C
:10517000920630D44146384604F14302C847013014
:1051800023D02368226903F00603042B14BF0025F3
:1051900033684FF0000608BFE56804F11A0408BF41
:1051A000ED1A54F8123C08BF25EAE5759342C4BFD6
:1051B0009B1AED18B5421AD1002008E0012352468F
:1051C00041463846C847013003D14FF0FF30BDE8B3
:1051D000F0870135C1E73020E11881F843005A1CFF
:1051E00094F845102244023382F84310C2E70123A9
:1051F000224641463846C8470130E6D00136D9E755
:105200002DE9FF470F7E9146782F80460C469A463F
:105210000C9E01F1430207D8622F0AD8002F00F03C
:10522000D380582F00F0BA8004F1420684F842700F
:105230003AE0A7F16303152BF6D801A151F823F04A
:1052400099520008AD52000829520008295200085E
:105250002952000829520008AD52000829520008BE
:10526000295200082952000829520008AF530008AB
:10527000D752000869530008295200082952000833
:10528000D153000829520008D752000829520008BB
:10529000295200087153000833681A1D1B683260D8
:1052A00004F1420684F8423001239EE0336820680E
:1052B000191D3160060601D51D6803E04506FBD5C2
:1052C000B3F90050002D03DA2D236D4284F84330EA
:1052D0000A23594811E021683368080653F8045B33
:1052E00002D4490648BFADB26F2F336014BF0A2302
:1052F00008235148002184F843106668002EA8BF97
:105300002168A660A4BF21F0040121600DB9002E20
:105310004BD01646B5FBF3F103FB1157C75D06F8FA
:10532000017D2F46BB420D46F4D9082B0BD12368D3
:10533000DF0708D5236961689942DEBF302306F88C
:10534000013C06F1FF36921B22614B462146404646
:10535000CDF800A003AAFFF7E1FE01304AD14FF0DB
:10536000FF3004B0BDE8F087236843F020032360DA
:105370007827324884F84570236831681F0651F851
:10538000045B02D45F0648BFADB23160D90744BFA9
:1053900043F0200323601DB11023ABE72648E9E763
:1053A000236823F020032360F6E71646BDE7336841
:1053B0002568181D616930602E061B6801D51960CB
:1053C00002E06806FBD51980002316462361BCE77E
:1053D000336800211A1D32601E686268304600F092
:1053E000E4F908B1801B606063682361002384F8DE
:1053F0004330AAE73246494640462369D047013048
:10540000ADD023689B0713D4E068039B9842B8BFD4
:105410001846A6E70123324649464046D0470130A8
:105420009DD00135E36803995B1AAB42F2DCEBE7F0
:10543000002504F11906F5E7F68000080781000849
:10544000002310B50446C0E90033C0E9043383608B
:1054500081814366C2818361194608225C3000F075
:1054600014F90D4B246263620C4BA3620C4BE36294
:105470000C4B23630C4B9C4206D003F16802944210
:1054800002D0D0339C4205D104F15800BDE8104051
:1054900000F088B910BD00BF055600082756000867
:1054A0005F560008835600088C060020024A034914
:1054B000034800F069B800BF7C000020A96F000815
:1054C0008C00002041680C4B10B59942044601D075
:1054D00001F06AFDA168094B994202D0204601F013
:1054E00063FDE168064B994204D02046BDE81040B8
:1054F00001F05ABD10BD00BF8C060020F40600204C
:105500005C07002010B50B4B0B4C0C4A20461A6070
:1055100004210022FFF794FF04F168000122092111
:10552000FFF78EFF04F1D0000222BDE810401221E7
:10553000FFF786BFC40700208C060020AD5400088A
:10554000014800F030B900BFCD070020014800F04D
:105550002BB900BFCD07002010B50446FFF7F0FFC0
:10556000236A1BB1BDE81040FFF7F0BF044B236274
:10557000044B1B68002BF5D1FFF7C4FFF2E700BF17
:10558000C5540008C40700202DE9F84307468846A3
:1055900014460026D4E90195B9F1010905D524681E
:1055A000002CF7D13046BDE8F883AB89012B07D931
:1055B000B5F90E30013303D029463846C0470643BB
:1055C0006835E9E70EB46FF0004100B59CB01DAB43
:1055D00002900690079104910848094953F8042B5A
:1055E0000591006802A9019301F062FB0022029B71
:1055F0001A701CB05DF804EB03B0704788000020FF
:105600000802FFFF10B50C46B1F90E1000F06CF85F
:105610000028ABBF636DA3891B1823F48053ACBF74
:105620006365A38110BD2DE9F0411F468B890546B6
:10563000DB050C46164605D502230022B1F90E10F3
:1056400000F040F8A389324623F48053A381284612
:105650003B46B4F90E10BDE8F04100F067B810B554
:105660000C46B1F90E1000F02DF8431CA38915BFAC
:10567000606523F4805343F48053A38118BFA38152
:1056800010BDB1F90E1000F00DB80346024493426C
:1056900000D1704703F8011BF9E70000004870478C
:1056A000C801002038B50023054D044608462B608C
:1056B000FDF747FD431C02D12B6803B1236038BDC1
:1056C000C807002038B50446084611460022054D9B
:1056D0002A601A46FDF759FD431C02D12B6803B11D
:1056E000236038BDC807002038B504460846114677
:1056F0000022054D2A601A46FDF7EAFC431C02D140
:105700002B6803B1236038BDC807002038B50023DB
:10571000054D044608462B60FDF744FD431C02D1AD
:105720002B6803B1236038BDC807002038B5044694
:10573000084611460022054D2A601A46FDF7E5FC91
:10574000431C02D12B6803B1236038BDC807002079
:10575000014B1868704700BF8800002070B5002614
:105760000C4D0D4C641BA410A64209D101F0A8FFFA
:1057700000260A4D0A4C641BA410A64205D170BD38
:1057800055F8043B98470136EEE755F8043B984737
:105790000136F2E760840008608400086084000835
:1057A00064840008704770477047034610B5C9B25B
:1057B00002449342184601D1002003E004780133EB
:1057C0008C42F6D110BD2DE9F74F03690C690746ED
:1057D000A3427EDB013CA30000F1140501F1140893
:1057E000009305EB8403019358F8243055F82420E6
:1057F00001339A42B2FBF3F608EB84092ED34FF043
:10580000000AC446AE46D3465CF8043B98B206FB99
:1058100000A01B0C020C06FB0323DEF8002080B264
:1058200092B2121A5A44DEF800004FEA134A9BB2B1
:10583000C3EB224303EB104392B242EA0342E14539
:105840004FEA234B4EF8042BDED2009BEB582BB9CA
:10585000019B043B9D421A462FD33C61384601F020
:10586000C3F8002825DB2946002058F8042BD1F87E
:1058700000C01FFA82FE1FFA8CF3A3EB0E03034451
:10588000120CC2EB234202EB1C429BB243EA0243DE
:10589000C1454FEA224041F8043BE6D255F82420A6
:1058A00005EB840322B9043B9D421A460BD33C61AD
:1058B0000136304603B0BDE8F08F1268043B002A81
:1058C000CBD1013CC6E71268043B002AEFD1013C72
:1058D000EAE70020EEE700002DE9F04F14461D46F0
:1058E000C76997B08346CDE90245239E7FB9102052
:1058F000FFF794F80246CBF81C0020B9EF21A84B23
:10590000A84801F0A1FBC0E901770760C760DBF898
:105910001C30196859B15A68012393404A608B6062
:10592000584600F029FE0022DBF81C301A602B1EBE
:10593000AFBF0023012223F000430393A8BF3360CD
:10594000DDF80C80984BB8BF326033EA080312D1FF
:1059500042F20F73229A1360C8F31303234300F03B
:105960005085249BDFF844A2002B00F052850AF1F9
:10597000030300F04CBDDDE90223CDE90C23DDE992
:105980000C0100220023FBF719F8074658B1012348
:10599000229A1360249B13B1854B249A1360DFF87D
:1059A00014A200F036BD14AB019315AB009358461A
:1059B000DDE90C2301F0C8F8C8F30A568146002E31
:1059C00077D0DDE90C010D9BA6F2FF36C3F313037C
:1059D00043F07F5343F44013129719460022764B4D
:1059E000FAF7CCFB68A3D3E90023FAF77FFD68A39D
:1059F000D3E90023FAF7C4FB044630460D46FAF714
:105A00000BFD65A3D3E90023FAF770FD02460B46B0
:105A100020462946FAF7B4FB04460D46FBF716F874
:105A200000220746002320462946FAF7D1FF40B15D
:105A30003846FAF7F1FC22462B46FAF7BFFF00B9C9
:105A4000013F162F53D8DDE90C015C4B03EBC70374
:105A5000D3E90023FAF7BCFF00284AD00023013F16
:105A60000F93149B9B1B5A1E46BFC3F101080023D2
:105A70004FF00008099248BF0993002F3BDB099BB8
:105A80000E973B44099300230A93209B092B66D869
:105A9000052BC4BF043B2093209BC8BF0024A3F167
:105AA0000203D8BF0124032B64D8DFE803F02B38AE
:105AB0003656DDE914631E4406F23243202BC1BF83
:105AC000C3F1400308FA03F806F2124324FA03F381
:105AD000D6BFC3F1200348EA030004FA03F0FAF743
