:020000040800F2
:1000000000500020592900085D2800085F280008DA
:100010006128000863280008652800080000000027
:100020000000000000000000000000006728000839
:1000300069280008000000006B2800086D280008EF
:10004000A1290008A1290008A1290008A129000868
:10005000A1290008A1290008A1290008A129000858
:10006000A1290008A1290008A1290008A129000848
:10007000A1290008A1290008A1290008A129000838
:10008000A1290008A1290008A1290008A129000828
:10009000A1290008A1290008A1290008A129000818
:1000A000A1290008A1290008A1290008A129000808
:1000B000A129000881280008A1290008A129000819
:1000C000A1290008A1290008A1290008A1290008E8
:1000D000A12900088528000895280008A129000802
:1000E000A1290008A1290008A1290008000000009A
:1000F0000000000000000000000000000000000000
:0C01000000000000000000005FF808F1A3
:100110004FF0FF0C1CEAD0521EBF1CEAD15392EAEA
:100120000C0F93EA0C0F6FD01A4480EA010C4002C6
:1001300018BF5FEA41211ED04FF0006343EA501020
:1001400043EA5111A0FB01310CF00040B1F5000F62
:100150003EBF490041EAD3715B0040EA010062F111
:100160007F02FD2A1DD8B3F1004F40EBC25008BFFB
:1001700020F00100704790F0000F0CF0004C08BF19
:1001800049024CEA502040EA51207F3AC2BFD2F1E6
:10019000FF0340EAC250704740F400004FF00003F4
:1001A000013A5DDC12F1190FDCBF00F0004070472E
:1001B000C2F10002410021FA02F1C2F1200200FA6C
:1001C00002FC5FEA310040F1000053EA4C0308BF33
:1001D00020EADC70704792F0000F00F0004C02BF84
:1001E000400010F4000F013AF9D040EA0C0093F0FF
:1001F000000F01F0004C02BF490011F4000F013B59
:10020000F9D041EA0C018FE70CEAD15392EA0C0FC6
:1002100018BF93EA0C0F0AD030F0004C18BF31F031
:10022000004CD8D180EA010000F00040704790F007
:10023000000F17BF90F0004F084691F0000F91F0AB
:10024000004F14D092EA0C0F01D142020FD193EA71
:100250000C0F03D14B0218BF084608D180EA0100F9
:1002600000F0004040F0FE4040F40000704740F0D5
:10027000FE4040F44000704781F0004102E000BFC2
:1002800083F0004330B54FEA41044FEA430594EA56
:10029000050F08BF90EA020F1FBF54EA000C55EA91
:1002A000020C7FEA645C7FEA655C00F0E2804FEA62
:1002B0005454D4EB5555B8BF6D420CDD2C4480EA44
:1002C000020281EA030382EA000083EA010180EA74
:1002D000020281EA0303362D88BF30BD11F0004FC2
:1002E0004FEA01314FF4801C4CEA113102D04042F8
:1002F00061EB410113F0004F4FEA03334CEA133333
:1003000002D0524263EB430394EA050F00F0A7804A
:10031000A4F10104D5F1200E0DDB02FA0EFC22FA45
:1003200005F2801841F1000103FA0EF2801843FA39
:1003300005F359410EE0A5F120050EF1200E012A2A
:1003400003FA0EFC28BF4CF0020C43FA05F3C01868
:1003500051EBE37101F0004507D54FF0000EDCF1E1
:10036000000C7EEB00006EEB0101B1F5801F1BD38A
:10037000B1F5001F0CD349085FEA30004FEA3C0C8E
:1003800004F101044FEA445212F5800F80F09A8084
:10039000BCF1004F08BF5FEA500C50F1000041EB88
:1003A000045141EA050130BD5FEA4C0C404141EB8C
:1003B0000101013C28BFB1F5801FE9D291F0000F87
:1003C00004BF01460020B1FA81F308BF2033A3F136
:1003D0000B03B3F120020CDA0C3208DD02F1140C2D
:1003E000C2F10C0201FA0CF021FA02F10CE002F168
:1003F0001402D8BFC2F1200C01FA02F120FA0CFC61
:10040000DCBF41EA0C019040E41AA2BF01EB0451A9
:10041000294330BD6FEA04041F3C1CDA0C340EDCA7
:1004200004F11404C4F1200220FA04F001FA02F3EA
:1004300040EA030021FA04F345EA030130BDC4F1A8
:100440000C04C4F1200220FA02F001FA04F340EA9D
:100450000300294630BD21FA04F0294630BD94F04E
:10046000000F83F4801306BF81F480110134013D35
:100470004EE77FEA645C18BF7FEA655C29D094EAA6
:10048000050F08BF90EA020F05D054EA000C04BF24
:100490001946104630BD91EA030F1EBF002100200F
:1004A00030BD5FEA545C05D14000494128BF41F0AE
:1004B000004130BD14F580043CBF01F5801130BD12
:1004C00001F0004545F0FE4141F470014FF000009D
:1004D00030BD7FEA645C1ABF194610467FEA655C4E
:1004E0001CBF0B46024650EA013406BF52EA0335F0
:1004F00091EA030F41F4002130BD00BF90F0000FDE
:1005000004BF0021704730B54FF4806404F1320419
:100510004FF000054FF0000150E700BF90F0000FD2
:1005200004BF0021704730B54FF4806404F13204F9
:1005300010F0004548BF40424FF000013EE700BFC9
:1005400042004FEAE2014FEA31014FEA02701FBF59
:1005500012F07F4393F07F4F81F06051704732F08B
:100560007F4208BF704793F07F4F04BF41F40021E2
:10057000704730B54FF4607401F0004521F0004140
:100580001CE700BF50EA010208BF704730B54FF0CA
:1005900000050AE050EA010208BF704730B511F0CB
:1005A000004502D5404261EB41014FF4806404F103
:1005B00032045FEA915C3FF4D8AE4FF003025FEA89
:1005C000DC0C18BF03325FEADC0C18BF033202EB0D
:1005D000DC02C2F1200300FA03FC20FA02F001FA67
:1005E00003FE40EA0E0021FA02F11444BDE600BF0A
:1005F00070B54FF0FF0C4CF4E06C1CEA11541DBFB9
:100600001CEA135594EA0C0F95EA0C0F00F0DEF883
:100610002C4481EA030621EA4C5123EA4C5350EA68
:10062000013518BF52EA033541F4801143F48013B9
:1006300038D0A0FB02CE4FF00005E1FB02E506F04A
:100640000042E0FB03E54FF00006E1FB03569CF09F
:10065000000F18BF4EF0010EA4F1FF04B6F5007FA5
:1006600064F5407404D25FEA4E0E6D4146EB060617
:1006700042EAC62141EA55514FEAC52040EA5E50A0
:100680004FEACE2EB4F1FD0C88BFBCF5E06F1ED84A
:10069000BEF1004F08BF5FEA500E50F1000041EB81
:1006A000045170BD06F0004646EA010140EA02002E
:1006B00081EA0301B4EB5C04C2BFD4EB0C0541EA50
:1006C000045170BD41F480114FF0000E013C00F365
:1006D000AB8014F1360FDEBF002001F0004170BD89
:1006E000C4F10004203C35DA0C341BDC04F11404A2
:1006F000C4F1200500FA05F320FA04F001FA05F22E
:1007000040EA020001F0004221F0004110EBD370FA
:1007100021FA04F642EB06015EEA430E08BF20EA26
:10072000D37070BDC4F10C04C4F1200500FA04F3C9
:1007300020FA05F001FA04F240EA020001F000415B
:1007400010EBD37041F100015EEA430E08BF20EACE
:10075000D37070BDC4F1200500FA05F24EEA020E16
:1007600020FA04F301FA05F243EA020321FA04F045
:1007700001F0004121FA04F220EA020000EBD370FC
:100780005EEA430E08BF20EAD37070BD94F0000FFC
:100790000FD101F00046400041EB010111F4801F30
:1007A00008BF013CF7D041EA060195F0000F18BFE1
:1007B000704703F00046520043EB030313F4801F1D
:1007C00008BF013DF7D043EA0603704794EA0C0FD7
:1007D0000CEA135518BF95EA0C0F0CD050EA4106ED
:1007E00018BF52EA4306D1D181EA030101F000416A
:1007F0004FF0000070BD50EA410606BF1046194692
:1008000052EA430619D094EA0C0F02D150EA01369D
:1008100013D195EA0C0F05D152EA03361CBF1046DE
:1008200019460AD181EA030101F0004141F0FE417D
:1008300041F470014FF0000070BD41F0FE4141F401
:10084000780170BD70B54FF0FF0C4CF4E06C1CEA01
:1008500011541DBF1CEA135594EA0C0F95EA0C0FB6
:1008600000F0A7F8A4EB050481EA030E52EA033571
:100870004FEA013100F088804FEA03334FF0805592
:1008800045EA131343EA12634FEA022245EA1115BF
:1008900045EA10654FEA00260EF000419D4208BF70
:1008A000964244F1FD0404F5407402D25B084FEA1D
:1008B0003202B61A65EB03055B084FEA32024FF4C9
:1008C00080104FF4002CB6EB020E75EB030E22BF26
:1008D000B61A754640EA0C005B084FEA3202B6EBE6
:1008E000020E75EB030E22BFB61A754640EA5C0095
:1008F0005B084FEA3202B6EB020E75EB030E22BF25
:10090000B61A754640EA9C005B084FEA3202B6EB25
:10091000020E75EB030E22BFB61A754640EADC00E4
:1009200055EA060E18D04FEA051545EA16754FEA46
:1009300006164FEAC30343EA52734FEAC2025FEA64
:100940001C1CC0D111F4801F0BD141EA00014FF0F3
:1009500000004FF0004CB6E711F4801F04BF0143C4
:100960000020B4F1FD0C88BFBCF5E06F3FF6AFAEE0
:10097000B5EB030C04BFB6EB020C5FEA500C50F170
:10098000000041EB045170BD0EF0004E4EEA1131F3
:1009900014EB5C04C2BFD4EB0C0541EA045170BDFA
:1009A00041F480114FF0000E013C90E645EA060E3E
:1009B0008DE60CEA135594EA0C0F08BF95EA0C0F6C
:1009C0003FF43BAF94EA0C0F0AD150EA01347FF4B4
:1009D00034AF95EA0C0F7FF425AF104619462CE78B
:1009E00095EA0C0F06D152EA03353FF4FDAE1046EE
:1009F000194622E750EA410618BF52EA43067FF43F
:100A0000C5AE50EA41047FF40DAF52EA43057FF4CE
:100A1000EBAE12E74FEA4102B2F1E04324BFB3F577
:100A2000001CDCF1FE5C0DD901F0004C4FEAC00265
:100A30004CEA5070B2F1004F40EB830008BF20F049
:100A40000100704711F0804F21D113F13872BCBF03
:100A500001F00040704741F480114FEA5252C2F158
:100A60001802C2F1200C10FA0CF320FA02F018BFA1
:100A700040F001004FEAC1234FEAD32303FA0CFCF4
:100A800040EA0C0023FA02F34FEA4303CCE77FEA83
:100A9000625307D150EA01331EBF4FF0FE4040F4CD
:100AA0004000704701F0004040F0FE4040F400007C
:100AB000704700BF80F0004002E000BF81F00041BD
:100AC00042001FBF5FEA410392EA030F7FEA226CF4
:100AD0007FEA236C6AD04FEA1262D2EB1363C1BF84
:100AE000D218414048404140B8BF5B42192B88BFF3
:100AF000704710F0004F40F4000020F07F4018BF16
:100B0000404211F0004F41F4000121F07F4118BF35
:100B1000494292EA030F3FD0A2F1010241FA03FCDD
:100B200010EB0C00C3F1200301FA03F100F00043C5
:100B300002D5494260EB4000B0F5000F13D3B0F18D
:100B4000807F06D340084FEA310102F10102FE2AFC
:100B500051D2B1F1004F40EBC25008BF20F001006C
:100B600040EA03007047490040EB0000013A28BF0B
:100B7000B0F5000FEDD2B0FA80FCACF1080CB2EB8E
:100B80000C0200FA0CF0AABF00EBC250524218430C
:100B9000BCBFD0401843704792F0000F81F40001B1
:100BA00006BF80F400000132013BB5E74FEA410384
:100BB0007FEA226C18BF7FEA236C21D092EA030FF0
:100BC00004D092F0000F08BF0846704790EA010F6A
:100BD0001CBF0020704712F07F4F04D1400028BF97
:100BE00040F00040704712F100723CBF00F5000079
:100BF000704700F0004343F0FE4040F400007047AF
:100C00007FEA226216BF08467FEA2363014642025A
:100C100006BF5FEA412390EA010F40F4800070476D
:100C20004FF0000304E000BF10F0004348BF404213
:100C30005FEA000C08BF704743F0964301464FF04F
:100C400000001CE050EA010208BF70474FF00003AB
:100C50000AE000BF50EA010208BF704711F00043EC
:100C600002D5404261EB41015FEA010C02BF8446BC
:100C70000146002043F0B64308BFA3F18053A3F51B
:100C80000003BCFA8CF2083AA3EBC25310DB01FA62
:100C900002FC634400FA02FCC2F12002BCF1004FE6
:100CA00020FA02F243EB020008BF20F00100704777
:100CB00002F1200201FA02FCC2F1200250EA4C00CB
:100CC00021FA02F243EB020008BF20EADC70704711
:100CD0004FF0FF3C06E000BF4FF0010C02E000BF08
:100CE0004FF0010C4DF804CD4FEA40024FEA4103AA
:100CF0007FEA226C18BF7FEA236C11D001B052EA60
:100D0000530C18BF90EA010F58BFB2EB030088BF25
:100D1000C81738BF6FEAE17018BF40F00100704794
:100D20007FEA226C02D15FEA402C05D17FEA236C76
:100D3000E4D15FEA412CE1D05DF8040B704700BFBD
:100D4000844608466146FFE70FB5FFF7C9FF002854
:100D500048BF10F1000F0FBD4DF808EDFFF7F4FF8D
:100D60000CBF012000205DF808FB00BF4DF808ED26
:100D7000FFF7EAFF34BF012000205DF808FB00BF49
:100D80004DF808EDFFF7E0FF94BF012000205DF86B
:100D900008FB00BF4DF808EDFFF7D2FF94BF01201C
:100DA00000205DF808FB00BF4DF808EDFFF7C8FF15
:100DB00034BF012000205DF808FB00BF42000ED2C6
:100DC000B2F1FE4F0BD34FF09E03B3EB126209D486
:100DD0004FEA002343F0004323FA02F070474FF03C
:100DE0000000704712F1610F01D1420202D14FF0B1
:100DF000FF3070474FF00000704700BF80EA010CE1
:100E00001CF0030F37D110F0030C20F0030021F089
:100E1000030150F8042B08BF51F8043B0ED08CF0AE
:100E2000030C6FF07F434FEACC0C23FA0CFC51F813
:100E3000043B42EA0C0243EA0C0300BFA2F1013C6E
:100E40009A4201BF2CEA020C1CF0803F50F8042BA0
:100E500051F8043BF2D04FEA02604FEA1222012817
:100E600028BFB0EB036F08BF1B0AF4D003F0FF03E9
:100E7000000EC01A704710F0030F0AD010F8012BB3
:100E800011F8013B012A28BF9A42F4D0A2EB0300DB
:100E900070474DF8045D50F8042B01F0030521F074
:100EA000030151F8043B022D26D04DD822F07F4596
:100EB000B5EB132FA2F1013C2CEA020C0DD11CF072
:100EC000803C08BF51F8043B0AD185EA0205B5EB26
:100ED000036F0CD150F8042BE8E74FEA13235BE0D3
:100EE0003CF07F4C54D10B784FEA126554E04FEA46
:100EF000126503F0FF034FE04FEA0245A2F1013C07
:100F00004FEA15452CEA020CB5EB134F18D11CF033
:100F1000803C08BF51F8043B07D185EA0205B5EBD8
:100F2000034F09D150F8042BE6E75FEA0C4C2FD1B0
:100F30000B884FEA12452FE04FEA03434FEA124570
:100F40004FEA134328E000BF02F0FF05B5EB136F33
:100F5000A2F1013C2CEA020C0DD11CF0803C08BF30
:100F600051F8043B0AD185EA0205B5EB032F0AD1FB
:100F700050F8042BE8E74FEA13630DE012F0FF0F7F
:100F800006D051F8043B4FEA122523F07F4303E0DB
:100F90004FF0000020BC704705F0FF0203F0FF0097
:100FA000012828BF904204BF2D0A1B0AF4D0A2EBEF
:100FB000000020BC704700BF844641EA000313F0E4
:100FC000030349D1403A23D30B6803604B68436065
:100FD0008B688360CB68C3600B6903614B694361B5
:100FE0008B698361CB69C3610B6A03624B6A43629D
:100FF0008B6A8362CB6AC3620B6B03634B6B436385
:101000008B6B8363CB6BC36340304031403ADBD2A0
:1010100030320BD30B6803604B6843608B6883608E
:10102000CB68C36010301031103AF3D20C3205D3C4
:1010300051F8043B40F8043B043AF9D2043208D09A
:10104000D2071CBF11F8013B00F8013B01D30B880C
:1010500003806046704700BF082A13D38B07B1D0C6
:1010600010F00303AED0C3F10403D21ADB071CBF98
:1010700011F8013B00F8013BA4D331F8023B20F802
:10108000023B9FE7043AD9D3013A11F8013B00F83B
:10109000013BF9D20B7803704B7843708B788370E7
:1010A000604670474FF0FF3C06E000BF4FF0010C78
:1010B00002E000BF4FF0010C4DF804CD4FEA410CA7
:1010C0007FEA6C5C4FEA430C18BF7FEA6C5C1BD074
:1010D00001B050EA410C0CBF52EA430C91EA030FF5
:1010E00002BF90EA020F0020704710F1000F91EA52
:1010F000030F58BF994208BF90422CBFD8176FEA20
:10110000E37040F0010070474FEA410C7FEA6C5CED
:1011100002D150EA013C07D14FEA430C7FEA6C5CF4
:10112000D6D152EA033CD3D05DF8040B704700BF20
:101130008446104662468C461946634600E000BF6E
:1011400001B5FFF7B7FF002848BF10F1000F01BD40
:101150004DF808EDFFF7F4FF0CBF012000205DF80B
:1011600008FB00BF4DF808EDFFF7EAFF34BF012090
:1011700000205DF808FB00BF4DF808EDFFF7E0FF29
:1011800094BF012000205DF808FB00BF4DF808ED7A
:10119000FFF7CEFF94BF012000205DF808FB00BFE1
:1011A0004DF808EDFFF7C4FF34BF012000205DF8C3
:1011B00008FB00BF4FEA410C7FEA6C5C02D150EAA9
:1011C000013C0AD14FEA430C7FEA6C5C02D152EA3F
:1011D000033C02D14FF0000070474FF00100704710
:1011E0004FEA410212F5001215D211D56FF478734F
:1011F000B3EB625212D94FEAC12343F0004343EAF2
:10120000505311F0004F23FA02F018BF40427047CC
:101210004FF00000704750EA013005D111F0004056
:1012200008BF6FF0004070474FF00000704700BFEC
:101230004A0011D212F5001211D20DD56FF4787355
:10124000B3EB62520ED44FEAC12343F0004343EAAA
:10125000505323FA02F070474FF00000704750EAF5
:10126000013002D14FF0FF3070474FF0000070475F
:101270000348044B834202D0034B03B11847704725
:101280009407002094070020000000000548064B4A
:101290001B1AD90F01EBA301491002D0034B03B174
:1012A00018477047940700209407002000000000B2
:1012B00010B5064C237843B9FFF7DAFF044B13B19E
:1012C0000448AFF300800123237010BD9407002071
:1012D00000000000C8B3000808B5054B1BB1054964
:1012E0000548AFF30080BDE80840FFF7CFBF00BF5F
:1012F0000000000098070020C8B3000838B501229C
:10130000002403E0002303700122013003785BB165
:10131000202BF7D0002AF8D0072C1BD80E4B43F80F
:10132000240001340022F0E73CB9012038BD6B688D
:10133000094920469847C0B2F8E7084D296839B1F5
:10134000054B1868FFF75AFD0028F0D00C35F5E77B
:101350000120EBE70220E9E7B007002000000020B1
:1013600038B50E4C0E49204600F08FFE0D49204640
:1013700000F08BFE0C4C0CE0084D284600F085FE7A
:10138000A168284600F081FE0849284600F07DFE4D
:101390000C3421680029EFD1002038BDD40700208B
:1013A000E0B30008F8B30008000000200CB7000804
:1013B00070B51CE0234B1B78002B34D0224800264C
:1013C000C654204C01332370FFF798FF45B22670B6
:1013D0001E4C1F49204600F058FE1E4B53F82510A6
:1013E000204600F052FE1C49204600F04EFE1748F1
:1013F00000F009FE20B3154D284600F052FE0446C9
:101400000146284600F007FE0D2CD3D00A2CD1D07F
:10141000082C0DD07F2C0BD00A4A13780A49CC54E3
:1014200001331370E3E70A49084800F02EFEDEE7B7
:10143000044B1B78002BDAD0013B024A1370D6E72D
:1014400070BD00BFFC07002000080020D40700206A
:1014500010B400085CB9000818B40008002816DDB4
:10146000012816DC00B589B00B4BD3F89000FFF7CC
:1014700067F802460B460949684603F0D5FC694601
:10148000074800F002FE002009B05DF804FB0320CD
:1014900070470220704700BF240900201CB40008D8
:1014A000D4070020002816DD012816DC00B589B01D
:1014B0000B4BD3F88C00FFF743F802460B46094963
:1014C000684603F0B1FC6946074800F0DEFD0020E5
:1014D00009B05DF804FB032070470220704700BF8D
:1014E000240900202CB40008D407002000282FDD98
:1014F00001282FDC00B589B0174B1B78DBB2022B1B
:1015000009D0154B1B78DBB2032B04D0124B1B7890
:10151000DBB2042B16D1104BD3F88C00D3F890100B
:10152000FEF7F6FDFFF70CF802460B460B4968463E
:1015300003F07AFC69460A4800F0A7FD002009B0D4
:101540005DF804FB0749064800F09FFD0020F6E720
:101550000320704702207047240900203CB4000893
:10156000D407002054B4000800283FDD01283FDCE8
:101570002DE9F0438BB01F4C1F49204600F085FD3C
:101580001E4D286CD5F84490FEF7DAFF06460F464C
:10159000DFF86C804846FEF7D3FFCDE90001324604
:1015A0003B46414602A803F03FFC02A9204600F05A
:1015B0006CFD1449204600F068FDE8692D6AFEF7CD
:1015C000BFFF06460F462846FEF7BAFFCDE90001E9
:1015D00032463B46414602A803F026FC02A92046BB
:1015E00000F053FD00200BB0BDE8F08303207047EE
:1015F00002207047D407002064B4000824090020AA
:1016000088B40008A0B40008012810DD022810DC0E
:1016100010B5486802F076F8FFF7FCF90446074970
:10162000FFF7C2FB38B9064BC3F8904010BD03204A
:101630007047022070470420F8E700BF0000C04058
:1016400024090020022812DD38B50C46032810DCDE
:10165000486802F057F8FFF7DDF9074D6864A068A5
:1016600002F050F8FFF7D6F92864002038BD0320B7
:1016700070470220FAE700BF24090020022812DD8B
:1016800038B50C46032810DC486802F03BF8FFF739
:10169000C1F9074D2862A06802F034F8FFF7BAF9E3
:1016A000E861002038BD032070470220FAE700BF40
:1016B0002409002010B5074C25220749204600F0D8
:1016C0007DFC0649204600F0E0FC054B00221A7024
:1016D00010BD00BFD407002000380140C4B400088A
:1016E000FC07002008B50249081F01F0BBFE08BD39
:1016F000640000200000000010B50F4B5C692068FA
:10170000FEF71EFF08A3D3E90023FFF79BF808A309
:10171000D3E90023FEF7B6FD0022084BFEF768FF71
:10172000FFF778F9206010BDB81E85EB51B808406E
:101730006666666666660A400409002000002A4064
:10174000024B4FF480525A61704700BF000C0140B9
:10175000024B4FF480521A61704700BF000C0140E9
:10176000044B054A9A6100221A775B6900221A60CD
:10177000704700BF040900200087930338B5684B09
:101780001B681B78062B0BD8DFE803F0040B1D60E9
:101790008B98B100FFF7D4FF614B1B6806221A70CB
:1017A00038BD5F4C207F01F0F9FC237F3C2B04D037
:1017B0005B4A137F01331377F2E700222277236815
:1017C00002221A70F4E7564B1B7F0A2B1ED0544C92
:1017D000237F013323776569022001F037F9286000
:1017E000FFF78AFF63694F491868FFF7DDFA0028A1
:1017F000D6D023694FF07C511868FFF7CBFAF0B1CF
:1018000022680321117000222277C9E7012001F02C
:101810001DF9434C25694449FEF77AFC4349FFF71B
:101820004FF92860A16801F053FDA368986801F0A2
:101830008BFCA06101F0E0FC00232377C7E7384B65
:101840001A680521117000221A77A9E7344B1B7F13
:101850000A2B16D0324B1A7F01321A771B694FF0D0
:101860007C511868FFF78CFA002899D0304B47F26A
:1018700030521A802A4B00221A771B6804221A70F1
:101880008EE7274C63696168186801F021FD636881
:10189000986801F0A5FDA06101F0AEFC002323775C
:1018A000D8E7234B1B88002B7FF47AAF1C4CE068F1
:1018B00000F037FB236805221A7071E7184C656940
:1018C000022001F0C3F82860FFF716FF6369194989
:1018D0001868FFF74BFA00283FF462AFE06800F0A9
:1018E000E1FA00232377236806221A7058E70C4C8C
:1018F0006569022001F0AAF82860FFF7FDFE636920
:101900000C491868FFF746FA00283FF449AFE06831
:1019100000F0C8FA00232377236801221A703FE7FA
:101920000409002000006842CDCCCC3D00002040DE
:101930000009002000002C4210B5FFF709FF174CEA
:10194000174B23601A1D626003F12802A26003F1A5
:101950004C02E26003F18C02626103F190022261A9
:1019600000221A700F4A1A62DA610F4959625A64EA
:101970001A640E4A9A6401229A6583F85C200C4A24
:10198000DA64FFF7EDFEE06800F08CFA606801F0C1
:1019900095FCA06801F092FC10BD00BF0409002076
:1019A00024090020CDCCCC3D000068420000C0409E
:1019B000002C014008B50249081F01F053FD08BD85
:1019C00074000020034B1B8813B1013B014A1380B4
:1019D000704700BF000900200F4B1B7913F0010F67
:1019E0000CD10E4B01225A6102225A6104225A6123
:1019F000094A137943F0010313717047074B012221
:101A00001A6102221A6104221A61034A137923F02F
:101A100001031371704700BFB8090020000C01409A
:101A20001A4B1B681B78032B12D0042B1FD0022BE0
:101A30002BD11749CB681A0402F48032DB4303F040
:101A4000010313430B6102234B6104234B61704775
:101A50000F49CB681A0402F40032DB4303F002039F
:101A600013430B6101234B6104234B617047084909
:101A7000CB681A0402F48022DB4303F0040313430F
:101A80000B6102234B6101234B617047B8090020B1
:101A9000000C014010B52F4B1B681B78062B18D883
:101AA000DFE803F004041818182E44002A4B012222
:101AB0005A6102225A6104225A61264A137923F09C
:101AC00001031371254C207801F03AFD207B01F0D1
:101AD00037FD10BD1F4B1B7913F0040FF9D11F4CBC
:101AE000207801F02DFD207B01F012FD194B1A79B1
:101AF00022F002021A71D2B242F004021A71E8E72F
:101B0000144B1B7913F0020FE3D1144C207B01F02E
:101B100017FD207801F0FCFC0E4B1A7942F002020E
:101B20001A71D2B222F004021A71D2E70A4B0122D2
:101B30001A6102221A6104221A61064A137943F0DB
:101B400001031371054C207801F0FAFC207B01F0B1
:101B5000F7FCBEE7B8090020000C0140800000201F
:101B60000B4B01225A6102225A6104225A61094B2D
:101B7000094A1A601A7922F001021A71D2B222F0CF
:101B800002021A71D2B222F004021A71704700BF29
:101B9000000C0140B80900202409002010B50649B6
:101BA0000C1F204601F08AFC04F1100104F10C0026
:101BB00001F084FC10BD00BF8400002008B502497C
:101BC000081F01F04FFC08BD9C000020036843F48F
:101BD00080630360036843F480730360074B4FF432
:101BE0007A721A60036813F0010F05D0034B1B686B
:101BF000002BF7D10020704701207047C00900205A
:101C0000036843F400730360704700000C4B1961D4
:101C10000C4B4FF47A721A60436913F0020F05D12E
:101C2000084B1B68002BF7D10020704782B0436936
:101C30000193019B83690193019B012002B07047CE
:101C400000540040C009002010B4194B4FF47A74BE
:101C50001C60436913F0800F0BD1154B1B68002BE0
:101C6000F7D1002010BC704712F8014B114B1C61DA
:101C7000013969B10E4B4FF47A741C60436913F05B
:101C8000800FF1D10A4B1B68002BF7D10020E9E748
:101C9000074B4FF47A721A60436913F0040F05D1B1
:101CA000034B1B68002BF7D10020DBE70120D9E7AD
:101CB000C009002000540040074B4FF47A721A60AC
:101CC000436913F0400F05D1034B1B68002BF7D17C
:101CD0000020704701207047C009002010B504465D
:101CE0000068FFF773FF2073237B03F0FF0003B945
:101CF00010BDE189C9B22068FFF788FF2073237BFC
:101D000003F0FF00002BF3D0A16862682068FFF7A2
:101D10009BFF2073237B03F0FF00002BE8D020689B
:101D2000FFF76EFF01202073E2E738B504468568AF
:101D30000068FFF74BFF2073237B03F0FF0003B91C
:101D400038BDE189C9B22068FFF760FFA368012BA5
:101D500029D0022D16D92068FFF7AEFF2073237B10
:101D600003F0FF00002BEBD022686168A3685B1BC7
:101D70001269D2B2CA542268136843F480631360B4
:101D8000013DE6E72068FFF797FF2073237B03F010
:101D9000FF00002BD4D022686168A3685B1B126926
:101DA000D2B2CA54013D2268136823F480631360E1
:101DB0002068FFF725FF2068FFF77EFF2073237B55
:101DC00003F0FF00002BBBD022686168A3685B1B97
:101DD0001269D2B2CA5401202073B1E7024B1A68CB
:101DE0001A68013A1A607047C00900204FF0E022DB
:101DF000136943F001031361704700000A4B1B682D
:101E00000A4AA2FB03239B09013BB3F1807F0AD25C
:101E10004FF0E0225361064BF02183F8231000239A
:101E20009361072313617047A8000020D34D62100F
:101E300000ED00E010B5402910D007D804290FD0DC
:101E400010290FD001290FD1002110E0B1F5807FBA
:101E50000CD0B1F5806F1ED1052108E0032106E00A
:101E6000012104E0022102E0062100E004211830F3
:101E70000A4B13F801C050F80C30094C14F801E07B
:101E8000732101FA0EF123EA010302FA0EF2134361
:101E900040F80C3010BD0621E9E700BF7CB900080E
:101EA00074B9000838B50446037CDBB1037CDBB2AF
:101EB000012B17D0237CDBB2012B1FD0E1686022FD
:101EC0002068FFF7B7FF23681A6A15431D6222686E
:101ED000536C43F4004353642268136843F00103D6
:101EE000136038BDE568012DE4D0E568102DE1D020
:101EF000E568B5F5807FDDD0E568DBE7E368012BB9
:101F000009D0E368102B09D0E368B3F5807FD5D101
:101F100045F48065D2E745F00405CFE745F040057C
:101F2000CCE7027CBAB1027CD2B2012A13D0027C87
:101F3000D2B2012A1BD001680A6A22EA03030B62AB
:101F40000268536C23F4004353640268136823F05F
:101F5000010313607047C368012BE8D0C368102BDE
:101F6000E5D0C368B3F5807FE1D0C368DFE7C2681E
:101F7000012A09D0C268102A09D0C268B2F5807F50
:101F8000D9D143F48063D6E743F00403D3E743F0A9
:101F90004003D0E70168437C4A6C22F0FF02134300
:101FA0004B6403899BB20268936283889BB2026888
:101FB000D362C3889BB202685363704738B5054645
:101FC0000C46016280F82420103001F0C3F9284645
:101FD00001F0C0F904F1140353E8003F43F001039A
:101FE00004F1140141E80032002AF3D104F10C039A
:101FF00053E8003F43F0200304F10C0141E80032B4
:10200000002AF3D138BD08B501F0B4F908B90120B0
:1020100008BD0020FCE7F8B506460F464FF47A7479
:1020200006F11005284601F0AAF910B164B3013C8D
:10203000F6E7326A02F10C0353E8003F23F0200375
:1020400002F10C0040E800310029F3D1394628465E
:1020500001F09BF9326A02F10C0353E8003F43F0B0
:10206000200302F10C0040E800310029F3D1326A6C
:1020700002F10C0353E8003F43F0800302F10C002F
:1020800040E800310029F3D1F8BD38B505460C46CB
:1020900003E001342846FFF7BEFF21780029F8D17C
:1020A00038BD10B5044601F065F908B1002010BD37
:1020B000226A02F10C0353E8003F23F0200302F1EF
:1020C0000C0040E800310029F3D1204601F073F9FB
:1020D000226A02F10C0353E8003F43F0200302F1AF
:1020E0000C0444E800310029F3D1E0E7034B1B68FE
:1020F0001BB1024A1368013B13607047C4090020FA
:1021000030B585B00446036A1A6812F0200F03D078
:10211000DA6812F0200F09D11A6812F0800F03D08C
:10212000DB6813F0800F25D105B030BD5968C9B206
:102130001A6812F0080F07D11A6812F0020F03D1C3
:102140001A6812F0040F12D01A680392039A5A68A0
:102150000392039A1A680292029A5A680292029AA9
:102160001A680192019A5B680193019BDCE701F018
:102170000CF9D9E704F11005284601F0FBF868B125
:10218000226A02F10C0353E8003F23F0800302F1BE
:102190000C0040E800310029F3D1C5E7284601F0E2
:1021A0000AF9236A5860BFE700B500F00700C0F1E4
:1021B000070CBCF1040F28BF4FF0040C031D062BC5
:1021C0000FD9C31E4FF0FF3E0EFA0CF021EA0001BA
:1021D00099400EFA03FE22EA0E0241EA02005DF87F
:1021E00004FB0023EEE7000010B4402910D007D80C
:1021F00004290FD010290FD001290FD1002210E09F
:10220000B1F5807F0CD0B1F5806F19D1052208E0BF
:10221000032206E0012204E0022202E0062200E09E
:1022200004221830074B995C4358074C14F802C03D
:10223000042202FA0CF223EA0203435010BC704756
:102240000622EEE78CB9000884B90008F0B589B021
:102250000024039404940594069407941B4B9A69F4
:1022600042F020029A619A6902F020020292029AD8
:102270009A6942F004029A619A6902F0040201929A
:10228000019A9A6942F008029A619B6903F0080377
:102290000093009B0E48422343610E4D43F2070317
:1022A0006B6144F2422303930127049702260596AB
:1022B00003A900F033FC084B03930497059606949A
:1022C00003A9284600F02AFC09B0F0BD0010024026
:1022D00000080140000C01403707300430B58FB0D2
:1022E00000240794089409940A940B940C940D9478
:1022F00002940394049405940694294B9A6942F439
:1023000080429A619A6902F480420192019A9A6924
:1023100042F004029A619B6903F004030093009B5E
:10232000204B029309230393032304931E4D02A918
:10233000284600F0F3FB1D4B02930423039302A9EC
:10234000284600F0EBFB1A4BD86822460221C0F366
:102350000220FFF729FF0001C0B2164B83F82503C6
:1023600020225A604FF4E1330793089409940A94A9
:102370000C230B930C940D940F4C07A9204600F0EE
:102380006DFE236923F490432361636923F02A03DC
:102390006361E36843F40053E3600FB030BD00BFF6
:1023A000001002400200020400080140040004047E
:1023B00000ED00E000E100E00038014030B58FB0F2
:1023C00000240794089409940A940B940C940D9497
:1023D000029403940494059406942A4BDA6942F417
:1023E0000032DA61DA6902F400320192019A9A69E4
:1023F00042F004029A619B6903F004030093009B7E
:1024000040F20443029309230393032304931E4DD4
:1024100002A9284600F082FB40F608030293042339
:10242000039302A9284600F079FB184BD86822468E
:102430000221C0F30220FFF7B7FE0001C0B2144B27
:1024400083F8260340225A604FF4E133079308943F
:1024500009940A940C230B930C940D940D4C07A92A
:10246000204600F0FBFD236923F490432361636958
:1024700023F02A036361E36843F40053E3600FB081
:1024800030BD00BF001002400008014000ED00E038
:1024900000E100E00044004010B586B00024019443
:1024A00002940394049405941C4BDA6942F00202EE
:1024B000DA61DB6903F002030093009B184BD868D4
:1024C00022460121C0F30220FFF76EFE0001C0B2D8
:1024D000144B83F81D034FF000521A603B23ADF8F4
:1024E000043002941D23039304940F4C01A9204649
:1024F00000F01EFD236823F080032360A36823F40B
:10250000804323F00703A360636823F070036360D4
:10251000A36823F08003A36006B010BD0010024042
:1025200000ED00E000E100E00004004070B59AB06A
:102530000024159416941794189419942022214677
:102540000DA802F0DBFC0794089409940A940B94FC
:102550000C9402940394049405940694364EB36943
:1025600043F40063B361B36903F400630193019B17
:102570004FF6FF731793314D15A9284600F0D8FC8C
:102580002B6823F080032B60AB6823F4804323F097
:102590000703AB602A4AD2F8183C43F00803C2F89C
:1025A000183C60230D930E940F9410941194129480
:1025B000139414940DAA0121284600F0F1FC012186
:1025C0002846FFF711FE6B6823F070036B60AB6861
:1025D00023F08003AB6007940894099454238DF88A
:1025E0002830ADF82A404FF400530B930C9407A900
:1025F000284600F0F3FCB36943F00403B361B36908
:1026000003F004030093009B0E4B029309230393F2
:1026100002230493059402A90B4800F07FFA0B4AA9
:10262000536823F0E06323F0C00343F0E06343F01A
:10263000400353601AB070BD00100240002C0140EE
:102640000020014081800104000801400000014099
:1026500030B58FB00024089409940A940B940C941C
:102660000D9403940494059406940794214DAB694A
:1026700043F00803AB61AB6903F008030293029BCC
:102680004CF2C0030393092304930323059304230B
:10269000069303A9184800F041FAEB6943F40013CC
:1026A000EB61EB6903F400130193019BA5F5DE35A3
:1026B000EB6823F00103EB602B6823F040032B60F1
:1026C0002B6823F080032B6008940C4B09930A9429
:1026D0000B944FF480630C934FF480430D9308A93F
:1026E000284600F0C3FAEB6823F0FE03EB600FB05E
:1026F00030BD00BF00100240000C0140801A0600EF
:1027000010B5254A136823F0070343F00203136052
:10271000214B1B6803F00703022BF9D11F4A1368F2
:1027200043F4803313601D4B1B6813F4003FFAD051
:102730001A4A536823F47C1343F45C135360136800
:1027400043F080731360154B1B6813F0007FFAD0C1
:10275000124B5A6822F0F0025A605A6822F4E06282
:1027600042F480625A605A6822F460525A605A6891
:1027700022F0030242F002025A60084B5B6803F049
:102780000C03082BF9D1064C204600F0AFFC204684
:1027900000F0D2FC10BD00BF00200240001002403B
:1027A0000087930300B583B0284B9A6942F0010279
:1027B0009A619A6902F001020192019ADA6942F083
:1027C0008052DA61DB6903F080530093009B204C58
:1027D000E26822F4E0621204120C1E4B1343E36021
:1027E000E06800220F21C0F30220FFF7DDFC0301A7
:1027F000DBB284F82330184A536823F0E06343F0D7
:1028000000735360FFF77CFFFFF720FDFFF766FDC5
:10281000FFF78CFEFFF71CFFFFF7D0FDFFF73CFE34
:10282000FEF748FFFFF788F8FFF79AF900F0F4FD8C
:10283000FFF7B4F9FEF756FFFFF7BCF8FFF7BEF954
:1028400000F010FF00F012FFFCE700BF0010024094
:1028500000ED00E00003FA0500000140FEE7FEE79E
:10286000FEE7FEE7FEE770477047704708B5FFF7E1
:102870003DFCFFF7B3FAFFF7A5F800F073FE08BDC3
:102880007047000008B50248FFF73AFC08BD00BFDA
:102890008409002070470120704708B502F030FC21
:1028A000162303604FF0FF3008BD08B54FF0FF312D
:1028B000FFF7F3FFFEE770B50C461646002506E06D
:1028C000AFF30080214601F8010B01350C46B542FB
:1028D000F6DB304670BD70B50C461646002504E0A8
:1028E00014F8010BAFF300800135B542F8DB304638
:1028F00070BD4FF0FF3070474FF400534B60002025
:1029000070470120704700207047000010B5034653
:102910000C4A0D490D48006840B10C48006803445A
:10292000521A934206D8094A136010BD0748084C52
:102930000460F2E702F0E4FB0C2303604FF0FF3089
:10294000F3E700BF0050002000040000C809002089
:10295000580D002070470000FFF7FCFF0B480C49A2
:102960000C4A002302E0D458C4500433C4188C42EB
:10297000F9D3094A094C002301E013600432A24252
:10298000FBD302F0C3FBFFF70DFF704700000020F0
:1029900094070020E0C5000894070020540D002093
:1029A000FEE7000038B50446264B5B6801221A702A
:1029B000032807D8DFE800F00213181D214B5B68DD
:1029C000C1225A701F4D6B6883221A700323AB60BB
:1029D0002846FFF783F92B7B83B9002038BD194BBC
:1029E0005B68D1225A70EDE7164B5B68E1225A70A2
:1029F000E8E7144B5B68F1225A70E3E76B6800224A
:102A00001A700123AB602846FFF768F92B7B0BB9DE
:102A10000020E3E7142000F079FB0223AB60284696
:102A2000FFF783F96B681B786A68527842EA0322E1
:102A3000054B23F8342033F8342033F8340080B2C7
:102A4000CCE700BFAC000020D009002038B5054617
:102A5000FFF7A8FF084C208880B2FEF7E5F8074989
:102A6000FDF756FB4FF05E51FDF752FB606004EB43
:102A7000C504606838BD00BFD00900206F128340D4
:102A800010B54FEA116E50F80E3091FAA1FCBCFA65
:102A90008CFC4FEA8C0C0F2404FA0CFC23EA0C0388
:102AA00091FAA1F1B1FA81F189008A40134340F80B
:102AB0000E3010BD10B54FEA116E50F80E3091FA7D
:102AC000A1FCBCFA8CFC4FEA8C0C032404FA0CFC2D
:102AD00023EA0C0391FAA1F1B1FA81F189008A404D
:102AE000134340F80E3010BD10B54FEA116E50F888
:102AF0000E3091FAA1FCBCFA8CFC4FEA8C0C042439
:102B000004FA0CFC23EA0C0391FAA1F1B1FA81F169
:102B100089008A40134340F80E3010BD2DE9F04182
:102B200080460E460F68C7F30F2797FAA7F4B4FA4A
:102B300084F414E0A4F108034FF001159D4045F022
:102B400080657368082B17D0726829464046FFF7E6
:102B500097FF7368012B1ED0092B1CD0013437FA64
:102B600004F323D00123A3403B42F7D0072CE1D844
:102B700040F20115A540E4E73269D8F80C102B0AA1
:102B800021EA152193FAA3F3B3FA83F39A400A4397
:102B9000C8F80C20D8E7B26829464046FFF78AFFFC
:102BA000F26829464046FFF79FFFD7E70020BDE8BF
:102BB000F081000030B52A4CA4FB014E4FEA9E4C38
:102BC000446824F03F0444EA9E444460046A24F0CC
:102BD0003F04244DAA421BD80CF1010C44EA0C041A
:102BE0000462204CA24231D9F3B902EB4202B1FB9C
:102BF000F2F2C2F30B0119B342F400410B43C26974
:102C000022F44F4C2CF0FF0C4CEA0303C36130BD9F
:102C10004FF4967505FB0CFC134DA5FB0C5C4FEABD
:102C20009C1C0CF1010CD9E702EB820202EB820240
:102C3000B1FBF2F2C2F30B0129B142F40041DDE72E
:102C400048F20101DAE748F20101D7E75200B1FB8F
:102C5000F2F340F6FC721342D1D10423CFE700BF58
:102C600083DE1B43A0860100D34D621030B585B0D2
:102C700004460D46036823F001030360684600F034
:102C800075F8AB686A6802992046FFF793FFEA6817
:102C90006969A36823F4034323F0FF030A43134342
:102CA000A3602B68226822F01A0213432360236872
:102CB00043F0010323602B69226822F480621343EE
:102CC0002360002005B030BD034B5B68C3F30313E2
:102CD000024AD35CD8407047001002409CB90008FB
:102CE000034B5B68C3F30223024AD35CD8407047AE
:102CF0000010024094B90008034B5B68C3F3C22381
:102D0000024AD35CD84070470010024094B90008D2
:102D10000B4B5B6803F4803343B90A48084B5B688C
:102D2000C3F38343023303FB00F07047044B5B683B
:102D3000C3F3404301330448B0FBF3F0EEE700BFB8
:102D40000010024000093D0000127A0008B5054B52
:102D50005B6803F00C03082B01D0034808BDFFF7A4
:102D6000D7FFFBE70010024000127A0010B50446BE
:102D7000FFF7ECFF2060FFF7A7FF6060FFF7B0FFF1
:102D8000A0606068FFF7B8FFE06010BD30B4036A70
:102D900023F001030362036A4468826922F073022C
:102DA0000D682A4323F002030D692B4323F001032E
:102DB0004D682B430F4DA84207D044608261CA681A
:102DC00042630362002030BC704723F008034D6962
:102DD00043EA850323F004038D6843EA850324F462
:102DE00080748D692C4324F40074CD6944EA450451
:102DF000E3E700BF002C014030B4036A23F0100366
:102E00000362036A4468826922F4E6420D6842EA7A
:102E1000052223F020030D6943EA051323F0100374
:102E20004D6843EA0513104DA84207D04460826103
:102E3000CA6882630362002030BC704723F08003BD
:102E40004D6943EA851323F040038D6843EA8513F7
:102E500024F480648D6944EA850424F40064CD6917
:102E600044EAC504E2E700BF002C014030B4036A25
:102E700023F480730362036A4468C26922F0730218
:102E80000D682A4323F400730D6943EA052323F4F4
:102E900080734D6843EA05230F4DA84207D0446074
:102EA000C261CA68C2630362002030BC704723F469
:102EB00000634D6943EA852323F480638D6843EA08
:102EC000852324F480548D6944EA051424F40054C5
:102ED000CD6944EA4514E2E7002C014030B4036AAE
:102EE00023F480530362036A4468C26922F4E64211
:102EF0000D6842EA052223F400530D6943EA0533C5
:102F000023F480534D6843EA0533084DA84207D0A7
:102F10004460C261CA6802640362002030BC70472A
:102F200024F480448D6944EA8514F1E7002C0140C3
:102F300003681A4A90420AD0B0F1804F07D0A2F538
:102F40009432904203D002F58062904203D123F084
:102F500070034A681343114A90420AD0B0F1804F7F
:102F600007D0A2F59432904203D002F580629042DD
:102F700003D123F44073CA68134303608B68C362B0
:102F80000B888362054B984205D0436943F00103E7
:102F90004361002070470B690363F6E7002C014092
:102FA00008B50B461146B3F5807F14D008D8012B25
:102FB0000ED0102B02D1FFF71FFF0BE0012009E01C
:102FC000B3F5805F02D1FFF789FF03E0012001E044
:102FD000FFF7DCFE08BDFFF749FFFBE70B7B8A68C4
:102FE000134323F480634A68134323F400630A689D
:102FF000134323F48053CA89134323F400530A690B
:10300000134323F480434A69134343640020704709
:1030100010B401EB810101EB81019200B1FBF2F1EF
:103020000D4CA4FB01235B091A0192B24FF0640C12
:103030000CFB13131B013233A4FB0343C3F34F13E5
:1030400003F0F0010A4492B203F00F0313449BB261
:10305000836010BC704700BF1F85EB51C36813F439
:10306000005F01D00120704730B585B004460D46A1
:10307000C36823F4B05323F00C034A68C9680A43B9
:1030800029690A431343C360AB68026922F44052C2
:10309000134303616B69426922F440721343436135
:1030A0006846FFF763FE0E4B9C4208D00D4B9C42D6
:1030B0000BD00D4B9C420AD0012005B030BD0399C6
:1030C00061B12A682AB90120F7E70299F8E7029965
:1030D000F6E72046FFF79CFF0020EEE70120ECE733
:1030E000003801400044004000480040064BA3FB6C
:1030F00000239B09013B4FF0E022536100239361C1
:1031000005231361704700BFD34D621082B04FF0AA
:10311000E0231B690193019BB0F1FF3F00D0013018
:1031200038B14FF0E0231B6913F4803FF8D0013829
:10313000F6E702B070470000014B1860704700BF0F
:10314000A80000200000000008B5FDF7F9F908A369
:10315000D3E90023FDF74CFA07A3D3E90023FDF7D9
:1031600091F8FDF757FCFDF729FE08BDAFF300808D
:10317000BC1ACE6CBF0BC6BFDD9D1095A1E45C40B0
:10318000002800DB70474042FCE70000024B0C22A5
:1031900083F85D20704700BF2409002008B514287B
:1031A00038BF1420A0F11401C9B2104A02EBC102C9
:1031B0009388013B9BB20E48A0F85430D3885A1E26
:1031C00092B2A0F850205B08A0F85230084BDB6C9C
:1031D0005A6ADB6A9A42F9D1044B53F83100FFF77F
:1031E000D5FF0448FEF7D6FE08BD00BFACB9000805
:1031F00024090020700900202DE9F04106462A4BE1
:1032000098421ED92949B1F84C35013B9BB2284A56
:10321000A2F85430B1F84E35591E89B2A2F85010B8
:103220005B08A2F85230224BDB6C5A6ADB6A9A4286
:10323000F9D13046FFF7AAFF1E48FEF7ABFEBDE806
:10324000F0811D4B98421AD8194B0022A3F8542044
:10325000A3F85020A3F85220E5E7013C07EBC40295
:103260009388013B9BB21249A1F85430D3885A1E6F
:1032700092B2A1F850205B08A1F85230D3E70024A5
:10328000A82CD0D8094F57F83400301AFFF778FF30
:10329000054604F1010857F83800301AFFF770FFAF
:1032A0008542DADD4446EBE788070200ACBA000845
:1032B0002409002070090020DF280100002303609A
:1032C00043608360C3600361436103627047000031
:1032D0002DE9F8430C46096AFDF7F0FB054620612D
:1032E000A76966693146FDF7E9FB01463846FCF7F8
:1032F0000FFF07462060E069FDF722F90022134B1B
:10330000FDF776F90022124BFDF772F980468946E7
:1033100031462846FDF7D4FBFDF712F902460B466D
:1033200040464946FDF764F9FDF774FB06466060C8
:10333000E1683846FDF7C4FB01463046FDF7C0FBA7
:10334000A0606561E060BDE8F88300BF0000E03F79
:103350000000244010B50446802000F0D7F920601A
:1033600000236360A360E36010BD002343608360BB
:10337000C3607047C068B0FA80F040097047C06809
:10338000802814BF00200120704738B504460D4640
:10339000FFF7F5FF58B922686368D55463680133B5
:1033A00003F07F036360E3680133E36038BD2046C8
:1033B000FFF7DBFFEFE710B50446FFF7DBFF60B96F
:1033C0002268A368D05CC0B2A368013303F07F0316
:1033D000A360E368013BE36010BDFF20FCE7000051
:1033E00008B5FDF7ADF808A3D3E90023FDF700F910
:1033F00007A3D3E90023FCF745FFFDF70BFBFDF71F
:10340000DDFC08BDAFF30080BC1ACE6CBF0BC6BF9D
:10341000DD9D1095A1E45C4010B500240B4B1C60B1
:103420000B4B1C700B4B1C70242221460A4801F0E8
:1034300065FD0A4B1C605C609C60DC601C615C612B
:10344000074B1C605C60FEF7D9FC10BDF80900203A
:10345000180A0020FC0900201C0A0020000A002095
:10346000F009002008B3024609B3124B1B78012B68
:1034700001D90120704710B40F4C03EB430C04EB4F
:103480008C0CCCF808100020ACF802008968CCF84D
:10349000041003EB43014FF0010C04F821C013703A
:1034A0006344044A137010BC704701207047012028
:1034B000704700BF180A00201C0A0020E8B18446AB
:1034C000E9B1114B1878E0B900B5104B00EB4002A0
:1034D0004FEA820E03EB82029160002103F80E1086
:1034E000518000EB400203EB820359608CF800002E
:1034F000431C054A13705DF804FB0120704701204E
:1035000070470120704700BFFC090020000A00201E
:10351000094B1B7883420DD9084900EB400301EBAE
:10352000830300225A6000EB4003012001F82300CE
:103530001046704701207047FC090020000A002057
:10354000064B1B78834206D900EB40008300002025
:10355000034AD05470470120704700BFFC09002087
:10356000000A002030B4394A136801331360002385
:1035700001E00133DBB2364A12789A4226D903EBD6
:1035800043029100334A0A44926811780129F0D12C
:1035900003EB430C4FEA8C012E4C615C0129E8D10E
:1035A0006446A1002B4C0C44616801316160528873
:1035B0009142DED3274A6446A100114400244C60A6
:1035C000604681000A4401215180D2E7002301E0D6
:1035D0000133DBB2204A12789A4223D903EB43012C
:1035E0008A001E49895C0129F2D11C4911444A68AC
:1035F00001324A608968B1F802C06245E8D3174CCD
:1036000003EB430C4FEA8C02224401255580002530
:1036100055600978022914BF0021012162469000FB
:103620002154D5E7002301E00133DBB2012B0BD895
:103630000B4A52F82320002AF6D0094951F82320DA
:10364000013A41F82320EFE730BC7047F809002029
:10365000180A00201C0A0020FC090020000A002093
:10366000F009002008B5FEF7C1FB08BD10B5002425
:1036700001E00134E4B21F4B1B78A3421AD904EBDA
:10368000440293001C4AD35823F47F43B3F1011F33
:10369000EFD1134604EB44018A001A440021518003
:1036A00004EB44018A0013449B685B68002BE0D064
:1036B0009847DEE7002401E00134E4B20F4B1B78A9
:1036C000A34215D904EB44039A000D4B13445B88C5
:1036D000012BF1D10A4B1A440021518004EB440123
:1036E0008A0013449B685B68002BE5D09847E3E7AA
:1036F00010BD00BF180A00201C0A0020FC09002091
:10370000000A0020002101F093BA00BF024B0146DD
:10371000186800F003B800BF480600202DE9F04FFC
:1037200001F10B05162D064683B024D8102900F2AE
:10373000AD8000F0A7FA102518234FF0020CB84F07
:103740003B445C68A3F10802944200F01D813046BE
:103750006368E268A16823F00303CA6023449160B0
:103760005A68083442F001025A6000F091FA20468B
:1037700003B0BDE8F08F35F0070500F18780A9425E
:1037800000F2848000F07EFAB5F5FC7FC0F06F8116
:103790006B0A7FD0042B00F21E81AB0903F1390CB8
:1037A00003F1380E4FEACC009D4F38444468083886
:1037B000A04207D10DE0002AE16880F2DF80884254
:1037C00007D00C46636823F003035A1B0F2AF2DD6F
:1037D000F446DFF850823C69444500F0BC806368E1
:1037E00023F00309A9EB05030F2B00F34581002B00
:1037F000C7E9048880F22F81B9F5007FD7F804E08B
:1038000080F0C98001234FEAD9014FEA59191944C0
:1038100003FA09F357F831204EEA030E07EBC10310
:10382000083BA260E360C7F804E047F83140D46089
:1038300001204FEAAC039840704532D810EA0E0FD1
:1038400007D12CF0030C400010EA0E0F0CF1040C11
:10385000F9D007EBCC0AD646E146DEF80C300BE097
:1038600059681C4621F003014A1B0F2ADB6800F34C
:10387000BF80002A80F2E2809E45F1D109F1010962
:1038800019F0030F0EF1080EE7D11FE10C2333608E
:1038900000246CE74FF400704FF0400C4FF03F0EE7
:1038A00082E7BC68636823F00309A94503D3A9EB49
:1038B00005030F2B52DC5C4B08201B6803F110083A
:1038C00004EB0903009301F051FC584A8346136846
:1038D000A844013305D008F1FF388044434203EA8D
:1038E00008084146304601F0E3FBB0F1FF3F824655
:1038F0004E4A00F0DC8004EB0903834200F2D580DD
:103900004B4B0BF1FF31186840448446186040F07F
:10391000FB801AEA010F40F0F780D7F808A0C844EE
:1039200048F00102CAF804205446424B196881420B
:1039300038BF1860404B1968814238BF186022F0C8
:103940000308A845A8EB050301D30F2B06DC30467E
:1039500000F09EF99CE7D7F804E069E7621943F0AC
:10396000010345F0010565603046BA6008345360D4
:1039700000F08EF9204603B0BDE8F08FA268304613
:10398000D16023448A60EBE6DC68A3427FF4DFAEBB
:103990000CF1020C1DE7B9F5206F4FEA59227DD3D7
:1039A000142A00F2118102F15C03DB005B32F9188A
:1039B000FB580839994203D1ECE09B68994204D046
:1039C0005A6822F003024A45F7D8D968C4E902319F
:1039D0008C60DC602CE7142B6CD9542B00F2FD803A
:1039E0002B0B03F16F0C03F16E0E4FEACC00DBE6FC
:1039F000D4F808C03046661945F001056560CCF87A
:103A00000C30C3F808C042F00103C7E90466C6E9F8
:103A100002887360625000F03BF90834A7E600BFEB
:103A2000C8000020D0000020700A0020BC00002048
:103A3000400A00206C0A0020680A002021444A68DD
:103A4000304642F001024A6054F8082FD3609A6071
:103A500000F01EF98BE6A144D9F80430304643F05B
:103A60000103C9F8043000F013F908347FE64FEA87
:103A7000D50C05F1080362E6621943F0010145F037
:103A8000010565603046C7E90422C2E90288516039
:103A900044F8093000F0FCF8083468E64FEA99125F
:103AA00002F13903DB00383281E7BC4224D0BC6824
:103AB000626844E703F15C0C03F15B0E4FEACC0053
:103AC00072E65AF80839534540F0D8801CF0030FCD
:103AD0000CF1FF3CF5D17B6823EA00037B604000DA
:103AE00098423FF6DEAE18B9DBE6400009F1040962
:103AF0001842FAD0CC46ACE6614B0BF1FF311868A6
:103B000008EB000CC3F800C01068013070D004EB63
:103B10000902AAEB020262441A601AF00702CDE918
:103B2000002340D0C2F108029244D04408EA0100C8
:103B30005A44121A02EA010B5946304601F0B8FA0B
:103B4000421C019B71D0A0EB0A0000EB0B08186827
:103B500048F001025844BC42C7F808A01860CAF8EF
:103B600004203FF4E1AEB9F10F0F44D94FF0050C3A
:103B70006168A9F10C0222F0070201F00101114372
:103B800061600F2A04EB0201C1E901CC55D8DAF8D3
:103B90000420C9E60120921000FA02F24EEA020E59
:103BA000C7F804E012E70AEB08020A40ABEB020296
:103BB00002EA010B5946304601F07AFA431C019B98
:103BC000C1D1DDF800B0C2E7542A18D84FEA193243
:103BD00002F16F03DB006E32E9E6B3F5AA7F18D875
:103BE000EB0B03F1780C03F1770E4FEACC00DBE529
:103BF000C2F800A091E70123CAF80430A7E6B2F5A5
:103C0000AA7F25D84FEAD93202F17803DB00773258
:103C1000CDE640F25452934225D8AB0C03F17D0C13
:103C200003F17C0E4FEACC00BEE5009A4FF0000B8A
:103C3000083A9044A8EB0A0889E7304604F10801E5
:103C4000009301F041FB009BD7F808A018689EE79D
:103C500040F254539A420DD84FEA994202F17D0343
:103C6000DB007C32A3E64FF47E704FF07F0C4FF008
:103C70007E0E99E54FF47E737E2298E67B682EE7F0
:103C8000400A0020014801F06DBA00BFB40B0020CB
:103C9000014801F069BA00BFB40B00200000000029
:103CA0002DE9F04F9FB088460792002100220024A2
:103CB000CDE90412834641461A9419910F4611F832
:103CC000012B2D2A5ED801A050F822F0A33E000857
:103CD000853D0008853D0008853D0008853D0008BC
:103CE000853D0008853D0008853D0008853D0008AC
:103CF000BB3C0008BB3C0008BB3C0008BB3C0008C8
:103D0000BB3C0008853D0008853D0008853D000856
:103D1000853D0008853D0008853D0008853D00087B
:103D2000853D0008853D0008853D0008853D00086B
:103D3000853D0008853D0008853D0008853D00085B
:103D4000853D0008853D0008853D0008BB3C000816
:103D5000853D0008853D0008853D0008853D00083B
:103D6000853D0008853D0008853D0008853D00082B
:103D7000853D0008853D000825440008853D000874
:103D80003944000800210891302A00F09580002372
:103D900009932F2A144640F2EF844FF00009384669
:103DA0004E464D4613E00130082D1990C8BF09EB6F
:103DB00089090478C6BF02EB4902A2F13009A3F1D8
:103DC00030062F2C224605F1010540F3B48006EBA6
:103DD0008603392C02EB4303E5DD0122AB4901F0F8
:103DE000DDF8002879D1199A1346013219925C78CE
:103DF000002D40F08D85302C40F03B851346184651
:103E0000013319931C78302CF9D0C2F1010210440F
:103E1000A4F13103082B37D8199F012539464FF0FB
:103E2000000A431CA4F1300E0C93002006EB86061A
:103E30000EEB46064B1C19934C78A4F13002092A6C
:103E400000F2E082964619990130002AF2D001284A
:103E5000D8BF05F1010C40F3878400EB050C0CF191
:103E6000FF340A9703E07E00AC4200F07C84082D0A
:103E700006EB860705F10105F5DD102DDCBF09EB2A
:103E800089094FEA4909EFE7652C40F0D8824FF0E5
:103E9000000A0123CDF830A00A93099B034340F0A8
:103EA000BF82079B002600270BB1C3F80080304675
:103EB00039461FB0BDE8F08F7A7802F0DF02582A49
:103EC00000F01284013719973A78302AFAD0002A84
:103ED00000F08182012309935BE70020AA460C9041
:103EE0000A90652C34D0452C32D000231093002D3D
:103EF0007AD1099B034340F06E820A9B002BD0D1FC
:103F0000692C00F0898400F35F84492C00F08484DC
:103F10004E2CC6D15E4919A801F0F8FD0028C0D08A
:103F2000199B1B78282B00F0A5855A4801F05AF9F7
:103F300006460F4651E20122544901F02FF80028AD
:103F4000CBD1199BAA465A1C19925C780C9074E745
:103F5000002DA2D0DDF8648008F10103199398F8D0
:103F600001402B2C00F059822D2C00F04E824FF096
:103F7000000CA4F13001092900F23F82302C199B7A
:103F80000AD1013319931C78302CFAD0A4F13102F4
:103F9000082AAAD8A4F130015A1C19925C782F2C57
:103FA00040F3FE8396460B9308E0013219929EF887
:103FB0000140A3F130012F2C06DD964601EB810371
:103FC000392C04EB4303F0DD0B9BD21A082A40F393
:103FD000E78344F61F631093BCF1000F87D0109B5A
:103FE0005B421093002D84D00C9A109BBAF1000F05
:103FF00008BFAA469B1A102D30460B932C46A8BF2B
:104000001024FCF77BFA02460B46092DCDE9042368
:1040100016DD214B03EBC40353E91223FCF7E8FA46
:104020000246484690468946FCF768FA02460B4627
:1040300040464946FCF726F90F2DCDE904012DDC59
:104040000B9B002B00F020830B9B40F35282162B1E
:1040500040F3AD830B9AC5F1250393421EDBDDE9E6
:1040600004230D4CC5F10F0504EBC501D1E9000196
:10407000FCF7BEFA0B9B5D1B04EBC504D4E90023DF
:10408000FCF7B6FA06460F46A7E100BF40B70008A6
:1040900050B700080CB40008C0C300080B9B2C1BD1
:1040A0001C44002C40F3D18114F00F000AD0DDE94C
:1040B0000423354901EBC001D1E90001FCF798FA6E
:1040C000CDE9040134F00F0340D0B3F59A7F00F33B
:1040D000B883102B4FEA231440F31E85DDE9040159
:1040E00000232A4A0997904699461746E20704D5C5
:1040F000D8E90023FCF77CFA01236410012C09F1B4
:10410000010908F10808F1D13A46099F0BB1CDE940
:104110000401059B02EBC901A3F154730593DDE98A
:104120000423D1E90001FCF763FA194B194A0B404B
:104130009342CDE9040100F28483174A934240F28E
:1041400041844FF0FF33154CCDE9043400230A932A
:104150002B46524639465846009601F071FE14909F
:10416000002800F06E83109A0C9B4FF0000A9B1AF7
:104170000B9ACDF824A0002AA8BF0023109322EAAE
:10418000E2731593E5E000BFC0C3000898C30008C0
:104190000000F07F0000A07C0000907CFFFFEF7F1C
:1041A000D21A1F2AA4EB020400F3328201239340A7
:1041B0001E4600250A9BA0444C44A14598444B460A
:1041C000A8BF23464345A8BF4346002B04DDE41A9D
:1041D000A8EB0308A9EB0309109B002B00F3BE8199
:1041E000002C00F3D4810B9B002B00F30782B8F165
:1041F000000F00F3F781B9F1000F08DD51464A4680
:10420000584601F0FFFF8246002800F0F4813A464C
:1042100058461A9902F08CF80990002800F0EB81BA
:104220000023099AD168D3601191514602F060F8D9
:104230000028C0F2EA83DDF8149000F0768351463E
:10424000099802F011FA00224FF0804304460D460F
:10425000FCF792FF002800F07181119B002B40F0C9
:10426000E381049B002B40F06B82C9F31303002B06
:1042700040F00D82002220462946A94BFCF772FF30
:10428000002840F049832046A64B29460022FCF72F
:10429000AFF903460C46CDE9123401F100430E900C
:1042A0000F93DFF88482A14B09EA08089845DDE9FD
:1042B0000E4500F0C0810A9B1BB3B8F1D46F20D823
:1042C00095A3D3E90023DDE91201FCF755FFA0B166
:1042D000DDE91201FCF7ACFF012838BF0120FCF733
:1042E0000DF9119BCDE91201002B40F0BD8201F1C7
:1042F000004316901793DDE9164505F1D663A3EB4D
:104300000805DDE90C0102F0CFF802460B46204615
:104310002946FCF76DF9DDE90C23FBF7B3FF0C46EA
:10432000CDE904010A9B23B97F4B2340984500F057
:10433000B78158461A9901F027FD3946584601F0D1
:1043400023FD5146584601F01FFD5846099901F0DA
:104350001BFD149C5846616801F0F0FC07460028DC
:1043600000F04981226904F10C01023292000C3004
:10437000FCF722FE1CAB01931BAB00935846DDE912
:1043800004341A46CDE90C34234602F00FF91A9092
:10439000002800F005810121584601F0F9FD824610
:1043A000002800F028811B9B002BC0F21581109A79
:1043B000DDF8548003EB02090A9A1C9C9B1A2344E3
:1043C0005B4A013B9342C4F13604FFF6E9AE012398
:1043D00000251E46EEE600260027079A0AB1199B23
:1043E0001360089B002B3FF462AD07F100431F46AA
:1043F000304639461FB0BDE8F08F0023CDF8648009
:10440000109374E501230A936BE54FF0010C08F15A
:104410000203199398F80240ABE54FF0000CF6E761
:10442000002597E500220892791C19917A78002AD4
:104430003FF437AD0F46A7E401220892F4E7452C7C
:104440003FF425AD01230A9353E53FF47FAE644268
:1044500014F00F020AD0DDE90401364B03EBC2036E
:10446000D3E90023FCF7EEF9CDE9040124113FF470
:104470006DAE1F2C37DCDDE9040114F0100318BF0A
:104480006A230A930023DFF8B080E20704D5D8E955
:104490000023FCF7ADF80123641008F10808F4D1FB
:1044A0000BB1CDE904010A9BA3B1DDE90401C1F31D
:1044B0000A52C2F16B03002B0ADD1F2B40F3398334
:1044C0000020342B049040F37C834FF05C73059301
:1044D0006A230A930022DDE904010023FCF738FE79
:1044E00000283FF435AE222300260027CBF8003009
:1044F00073E71633FFF6D2ADDDE904010C9B109A89
:104500009A1A0C4B03EBC203D3E90023FCF79AF988
:1045100006460F4661E700BF0000C0FFFFFFDF4116
:104520000000F03F0000E03F0000F07F0000E07F6F
:1045300002FCFFFFC0C3000860C20008AC4B20466D
:1045400029460022FCF754F8119BCDE91201002BFB
:1045500065D101F100430E900F93A2E651461A4631
:10456000584601F0F5FD8246002844D001461A9ACB
:10457000584601F03BFD00283DD011901A9958464D
:1045800001F002FC119B002C1A937FF72CAE2246FF
:1045900058461A9901F036FE1A9000287FF423AE8F
:1045A000B946054622230026924FCBF80030294613
:1045B000584601F0E9FB4946584601F0E5FB5146F3
:1045C000584601F0E1FB5846149901F0DDFB5846CE
:1045D000099901F0D9FB00E7159ADDF84090A2EBAC
:1045E0000308E9E639464246584601F00BFE074605
:1045F00000287FF400AEB9461A9DD3E739465846E5
:10460000159A01F0A5FD074600287FF4F0ADF2E70A
:10461000012279491646CB1A02FA03F5CAE5DDE90B
:104620001234CDE90E343CE60023744CCDE90E344F
:10463000CDE9123435E6A9F154730593DDE904455B
:104640002046294601F030FFDDE90E23FBF7D0FFBD
:104650002B462246FBF716FEDFF89891684B01EADD
:1046600009099945CDE9040179D9DDE90C0103F186
:104670005473994202D106460136BCD04FF0FF3345
:10468000604CCDE9043454E6DDE90467A5E6002377
:104690005D4CCDE90E340023584CCDE9123400E6D0
:1046A000DDE912562846314606F058FEFBF772FF48
:1046B0000B46024631462846FBF7E2FD119D049B5E
:1046C000C4F313041D432C438046894626D142A3DC
:1046D000D3E90023FCF746FD00283FF42AAEB94693
:1046E000DDE904671A9D62E70293089B584601932F
:1046F0001AAB0093454A1BAB19A900F033FF10F029
:104700000F0504463FF467AE062D40F0B580002249
:104710007B1C00260027089219935EE630A3D3E99C
:104720000023FCF71FFD0028D9D12FA3D3E90023D4
:1047300040464946FCF734FD00283FF4FAADCEE789
:10474000049B012BA3D1B9F1000FA0D1B9461A9C4B
:104750002223254600260027CBF8003027E701F169
:1047600054740594DEE50A9F0C9B082D03440C93BA
:104770006DDC6546FFF759BB01223846244900F03D
:104780000DFC002800F0BB804FF000094E46484663
:104790004D46CA46CDF83090CDF82890FFF7A3BB20
:1047A00044F61F639942A8BF1946109114E40B9870
:1047B0001849DDE9042301EBC001D1E90001FBF751
:1047C00017FF06460F4608E66E2C3FF4A3ABFFF733
:1047D00068BB00BFAFF300809535A094FFFFCF3FCB
:1047E0009535A094FFFFDF3F35E5AF350000E03F92
:1047F0000000E03F0000F07FE2FBFFFF0000F03F21
:10480000FFFF9F7CFFFFEF7F0000F0BF48C2000862
:1048100040B70008C0C30008A04919A801F076F904
:1048200000283FF43EAB199B9D49013B19A8199301
:1048300001F06CF910B9199B013319930026994FB7
:10484000CBE522230026974FCBF80030C5E5BCF11D
:10485000100FD8BF09EB890965464FF00000D8BF9B
:1048600002EB4909FFF7E6BADDE91234CDE9163467
:1048700041E50020FFF7CCBA1A9A3AB135211CA8BD
:1048800001F020FF58461A9901F07EFA013D1B9B6A
:10489000042D00F2C481DFE805F0032C291E03007B
:1048A0001C9A049203F233421D9B23F4801343EAC3
:1048B00002530593E10502D543F000430593794A7D
:1048C000DDE904671A40002A7FF487AD00F018FC88
:1048D0002223036081E54FF0FF326FF00043CDE902
:1048E0000423E3057FF5D0AE059BE5E76D4B05930B
:1048F000F7E7DDE91C121D9BCDE90412DAE7199AEE
:10490000064613460132199281465C78FFF773BA66
:10491000AA460C90FFF791BA0023634CCDE90E3400
:104920000023624CCDE91234BBE44B461198B446E7
:10493000B946DDE90C67AE465D49C3F313020028B2
:1049400045D08A4200F0FD80ADBB049A1CEA020FFC
:1049500034D030463946049301F0A6FD0A9B002B63
:1049600000F03781049BC3F30A53C3F16B03002BA0
:1049700040F352811C0504F17F53002203F54013DC
:10498000FBF736FE02460B4630463946FBF77AFC0B
:1049900006460F4630463946464B0022FBF728FEB6
:1049A000404B06460B400F46002B7FF49BAE222364
:1049B000CBF8003096E61EEA030FCAD10A9B002B03
:1049C000E8D18FE601F154730593FFF7BFBB002ACE
:1049D00074D1DDE904452246002C40F0A2800A9AF9
:1049E000002A40F0CB8025F00044240D2405A4F5D6
:1049F00080146FEA14536FEA035305934FF0FF33AB
:104A000004931A9DDDE90467D1E5119BDDE90401FA
:104A10000343B946DDE90C67D0D1C1F31303002B82
:104A2000CCD121F00044240D2405B4F1D66F2546E5
:104A3000C4D9099A536913B91369012BBEDD012248
:104A40000999584601F0DEFB5146099001F050FCEF
:104A50000028B3DD0A9B002BC9D0A5F580136FEAAF
:104A600013536FEA035305934FF0FF330493DDE9CB
:104A700004678FE7104919A81CAA01F061F80528FE
:104A80007FF453AA1D9B43F0FF4343F4E0030593D7
:104A90001C9B0493DDE904679FE400BF44B7000852
:104AA00048B700080000F07F0000E0BF0000E03FD2
:104AB000FFFF0F000000503934C20008A5BB049A64
:104AC0001CEA020F3FF47AAF30463946049301F0F6
:104AD000EBFC0A9B002B62D0049BC3F30A53C3F187
:104AE0006B03002B40F38C801C0504F17F530022E4
:104AF00003F54013FBF77CFD02460B463046394672
:104B0000FBF7BEFB0022002306460F46FCF720FB06
:104B100000283FF43FAF1AE64FF00009414AFFF783
:104B2000F8BABEF1000FCBD01EEA030F3FF446AF38
:104B3000CAE74FF0FF3202FA03F3049A1A400492D4
:104B4000C6E40A9A0499B2B1374A1A40B2F1D46F56
:104B500011D84FF0FF30120DC2F16B0200FA02F2D1
:104B6000914240D0BEF1000F7FF425AF11EA0C0F47
:104B70003FF424AFEDE64FF0FF32F1E72A4D1D4040
:104B8000B5F1D66F3FF669AFB5F15C7F3FF602AF86
:104B90002223002600271A9DCBF8003007E50246A5
:104BA0000B4630463946FBF76BFB1A9C002200236C
:104BB00006460F462546FCF7CBFA00283FF4F7AC33
:104BC000C6E54FF0FF33C2F14B0293400B40059313
:104BD0007EE402460B4630463946FBF753FB1A9DEE
:104BE00006460F46E3E4114A93420CD00E4A1A409F
:104BF00002F58013059300230493DDE90467DDE6E5
:104C000002460B467AE70131F0D1222300261A9D95
:104C1000054FCBF80030CAE402460B46B4E6002349
:104C200048E600BF98C300080000F07FFFFFEF7F59
:104C300084460A460249034B08686146FFF730B8CC
:104C400048060020DC040020024A0349034800F023
:104C5000C9B800BFD00400201D8300085006002002
:104C60000C4B416810B59942044601D003F056FB45
:104C7000A168094B994202D0204603F04FFBE1683E
:104C8000064B994204D02046BDE8104003F046BBD5
:104C900010BD00BF740A0020DC0A0020440B002075
:104CA0002DE9F84300250423304C314A3149DFF81F
:104CB000C890DFF8C880324F324E116004F15C00BA
:104CC00029460822C4E90335C4E90055C4E905555D
:104CD000A560656600F012F904F15800C4E90749BF
:104CE000C4E90987E66200F039FA274B2946082211
:104CF00004F1C4006367C4E91A55C4E91E55256769
:104D0000C4F8CC50C4F8805000F0F8F804F16803FF
:104D100004F1C000C4F88430C4E92298C4E92476C0
:104D200000F01CFA194B294604F596700822C4F8C5
:104D3000DC30C4E93455C4E93855C4F8D850C4F857
:104D40003451C4F8E85000F0D9F804F1D003C4E9B4
:104D50003D87C4F8F09004F59470C4F8FC60C4F882
:104D6000EC30BDE8F84300F0F9B900BF740A002048
:104D7000AC0B0020494C00086D4E0008914E000815
:104D8000D14E0008F54E0008090001001200020093
:104D900010B504460A4800F0E5F9636B23B9094BE6
:104DA000094A1B68626323B1BDE81040044800F063
:104DB000DBB9FFF775FFBDE81040014800F0D4B93A
:104DC000BC0B0020AC0B0020614C0008014800F037
:104DD000C9B900BFBC0B0020014800F0C5B900BF35
:104DE000BC0B00202DE9F8434FF0000980460F4628
:104DF0001646D6E90154013D10D4A389012B08D9E8
:104E0000B4F90E30013304D021464046B84749EA90
:104E10000009013D6B1C04F16804EED13668002ED8
:104E2000E7D14846BDE8F8830EB470B504466FF08C
:104E3000004600259DB00B4A21AB0B49106853F882
:104E4000042B059102A9CDE90134049607961B9520
:104E5000069401F0A1FC029B1D701DB0BDE87040DE
:104E600003B07047480600200802FFFF10B50C464B
:104E7000B1F90E1000F006F9002803DB236D03449E
:104E8000236510BDA38923F48053A38110BD00BF07
:104E90002DE9F0410C46B1F90C101F46CB05054633
:104EA00016460BD421F48051A1813B463246284658
:104EB000B4F90E10BDE8F04100F00CB9B4F90E10D1
:104EC0000223002200F0C8F8B4F90C10EAE700BF92
:104ED00010B50C46B1F90E1000F0BEF8B4F90C3064
:104EE000421C0EBF23F4805343F480532065A381FA
:104EF00010BD00BFB1F90E1000F09CB870B5860768
:104F000047D0541E002A3ED00346CAB201E0013CFD
:104F100039D303F8012B9D07F9D1032C2CD9CDB23D
:104F200005EB05250F2C1A4605EB054534D9A4F1F0
:104F3000100C2CF00F0603F1100EB6444FEA1C1CA7
:104F4000C2E90055C2E9025510327245F8D10CF1A0
:104F5000010214F00C0F03EB021204F00F0C13D03B
:104F6000ACF1040323F003030433134442F8045B5D
:104F70009342FBD10CF003042CB1C9B21C4403F8DA
:104F8000011BA342FBD170BD64461346002CF4D133
:104F9000F9E703461446C0E7A446E1E7002A3ED0FD
:104FA000844630B50446084380070B462ED1032AB9
:104FB00007D82BE0043A25D01EF0803F22D1032AE7
:104FC00022D919462068A446A0F1013323EA000E35
:104FD0000B4653F8045B0434A842EBD09CF8000065
:104FE0000C7884421DD1E64668B11EF8010F11F815
:104FF000014FA2EB0E03A04203F1FF3311D11CEBD2
:105000000303F1D1002030BDA44619469CF80000EE
:105010000C78A04205D1012AF4D0E646E4E7104618
:105020007047001B30BD00BF014B93F8280170474B
:10503000DC040020002238B5064D044608462A60EC
:10504000FDF757FC431C00D038BD2B68002BFBD06C
:10505000236038BDB00B002038B50C461146002245
:105060008446074D20462A601A466446FDF74BFCED
:10507000431C00D038BD2B68002BFBD0236038BD0B
:10508000B00B002038B50C46114600228446074D6F
:1050900020462A601A466446FDF70DFC431C00D0EA
:1050A00038BD2B68002BFBD0236038BDB00B00202F
:1050B000002238B5064D044608462A60FDF726FC56
:1050C000431C00D038BD2B68002BFBD0236038BDBB
:1050D000B00B002038B50C46114600228446074D1F
:1050E00020462A601A466446FDF7F5FB431C00D0B3
:1050F00038BD2B68002BFBD0236038BDB00B0020DF
:10510000014B1868704700BF4806002070B50F4B70
:105110000F4DAB42A3EB050607D00024B61055F89F
:10512000043B01349847A642F9D806F04DF9094DE1
:10513000094B5E1BAB424FEAA60606D0002455F889
:10514000043B01349847A642F9D870BDD4C5000885
:10515000D4C50008D4C50008DCC50008704700BFEE
:10516000704700BF704700BF704700BF082802D1DA
:105170004FF48050704708B5FFF7C2FF1622034670
:105180004FF0FF301A6008BD20F0030110F003005B
:10519000C0F1000051F8043B00F1040C4FEACC0CC4
:1051A0006FF000021CBF22FA0CF213434FF0010C07
:1051B0004CEA0C2C4CEA0C4CA3EB0C0222EA030246
:1051C00012EACC1204BF51F8043B0430F4D0C2F10F
:1051D000000102EA0102B2FA82F2C2F11F0200EB00
:1051E000D200704700200149704700BF0000F87FDF
:1051F000024B13B1024800F005B8704700000000F0
:10520000CD850008002301461A46184603F074BAFB
:105210002DE9F843064608208946FFF7A7FF054613
:10522000DFF898803046FEF72DFDD8F808305F682B
:1052300027F00307A7F11104A4EB09042C44B4FBE5
:10524000F5F4013C05FB04F4A54208DC00213046DE
:10525000FFF72EFFD8F808303B44984205D030467F
:10526000FEF716FD0020BDE8F88330466142FFF7E7
:105270001FFF01300FD0124AD8F808303F1B47F00B
:1052800001075F60136830461B1B1360FEF700FDCB
:105290000120BDE8F88300213046FFF709FFD8F868
:1052A0000820831A0F2BDADD43F001035360054B0E
:1052B00003491B68C01A0860D1E700BFC80000207E
:1052C000400A0020BC00002000297CD0F8B50C4624
:1052D0000646FEF7D7FC54F8043C764FA4F10805C7
:1052E00023F001016818D7F808C04268844522F00D
:1052F000030200F08380DB07426000EB020C33D432
:1053000054F8084CDCF804302D1B2144AC6807F13C
:10531000080C644503F0010364D0D5F80CE0C4F830
:105320000CE0CEF80840002B00F0818041F0010332
:105330006B600160B1F5007F22D20122CB084909E0
:105340008A40796801330A437A6057F8331007EBD3
:10535000C302083AC5E9021247F83350CD6030461F
:10536000BDE8F840FEF794BCDCF80430DB072BD531
:1053700041F00103B1F5007F44F8043C0160DCD347
:10538000B1F5206F4FEA512353D28B0903F1390055
:1053900003F13802C300F818FB580838984203D1CB
:1053A00061E09B68984204D05A6822F003028A4266
:1053B000F7D8D868C5E9023085603046DD60BDE8C1
:1053C000F840FEF765BC7047114407F1080C83688C
:1053D00063453FD0C268DA60936041F001036B60BF
:1053E0006950A7E7002B5FD10A44D0E90213CB60D4
:1053F000996042F001036B60AA50B0E70A44D907F4
:1054000007D454F8083CED1A1A44D5E90213CB60CE
:10541000996042F001036B60274BBD601B689342AB
:105420009DD8264B30461968FFF7F2FE97E71144E6
:10543000CDE7142B08D9542B1DD80B0B03F16F00AB
:1054400003F16E02C300A6E703F15C0003F15B0207
:10545000C300A0E741F00103C7E90455C5E902CC48
:105460006B6069507BE70121921001FA02F27968C2
:105470000A437A609EE7B3F5AA7F06D8CB0B03F107
:10548000780003F17702C30085E740F2545293425B
:1054900006D88B0C03F17D0003F17C02C3007AE790
:1054A0004FF47E737E2276E741F001036B6001606A
:1054B00055E700BFC8000020C0000020700A00208F
:1054C0002DE9F0410469B4EB611F05DC00230361A1
:1054D00000234361BDE8F08100F114054E1111F085
:1054E0001F0C05EB840E05EB860321D055F8261022
:1054F00004339E4521FA0CF1CCF120082DD92F461A
:105500001A6802FA08F20A4347F8042B53F8041BFE
:105510009E4521FA0CF1F3D8A31B9B00053B9B0889
:10552000013305EB830445F8231079B104340DE011
:105530009E4588BF00F11002C8D953F8041B9E4550
:1055400042F8041FF9D8A41B05EB8404631B9B10CD
:10555000AC420361BCD0BDE8F08141610029B5D007
:105560002C46E3E72DE9F04F1C4685B00090086813
:10557000934682780B46302A029440F0F381C11C96
:105580000A780C46302A01F10101F9D0A4EB000998
:10559000A9F10209DFF8C08218F80220002A00F001
:1055A000EF80002722783D4618F80220002A00F0FC
:1055B0007781264616F8012F18F80220002AF9D123
:1055C00001223046A5490193FFF7E8FC019B824682
:1055D00000284DD03278002D00F0A581A5EB060AF9
:1055E0004FEA8A0A02F0DF02502A35464DD01E608B
:1055F000002F74D12B1B013B072B394604DD5B10B8
:10560000072B01F10101FADC009800F097FB03463B
:10561000002800F06A8200F11406A542019640F2CB
:10562000CA8100270390B9460DE0202F1AD03946D1
:1056300004372A7818F8022002F00F028A4049EA5B
:105640000209A54254D015F8012D2E2AEDD1A5420C
:10565000EBD3012228468149FFF7A0FC0028F0D0B7
:10566000202FE4D1002146F8049B04278946E0E777
:10567000002D00F068813278A5EB060A02F0DF0207
:10568000502A35464FEA8A0AB1D16A782B2A00F0AF
:1056900048812D2A40F0D5800120AA78AE1C18F848
:1056A00002104A1E182A00F2D5807278103918F8B4
:1056B000022001365AB90CE001EB810102EB4102F4
:1056C000A2F1100116F8012F18F802200AB1192AC8
:1056D000F2DD00B149428A441E60002F8AD0B9F140
:1056E000000F0CBF06250025284605B0BDE8F08F49
:1056F000039B019A46F8049BB61AB6101E614846F1
:10570000039300F0F5FB7601DBF80040361AA64261
:10571000039B76DCC0F209810027DBF808205245A4
:10572000C0F23E81DBF8042052454EDDA2EB0A0AAE
:10573000544500F39580DBF80C10022900F0E1805D
:10574000032900F05381012940F0DF80544540F0E7
:10575000DC80012C0AD01846611E039300F0E2FFA2
:10576000039B002800F0D180DBF80420012102987F
:1057700062250260019A196111600E9A1360B3E705
:105780000122204635490193FFF708FC019B07469B
:10579000002840F087806278651C18F80210002904
:1057A00000F08280302A2C4640F02B8114F8012F23
:1057B000302AFBD018F802204FF00109B2FA82F724
:1057C0007F09002A7FF4F5AE6AE0012587B1DBF896
:1057D0000C20022A6FD0032A71D0012A06D1B90702
:1057E00004D5019A12681743FA076BD445F01005E7
:1057F00028460E9A1360029BC3F800A005B0BDE8CE
:10580000F08F361B1846314600F08CFF039B07468D
:1058100078B10127711E01984A1150F8220001F059
:105820001F0207FA02F2024203D0B94200F3CF800E
:105830000227184631460393B244FFF741FE039B0B
:105840006BE718F8021000204A1E182A05F101061D
:105850007FF62BAF2E46CAE688C2000840B7000884
:105860000AF1FF35002F40F0A480002D40F0A78002
:1058700001220198691150F8211005F01F05AA4076
:105880000A4218465146039318BF47F00207A4EB9B
:105890000A04FFF715FE0225DBF804A0039B95E739
:1058A00026468DE62546227802F0DF02502A00F0D7
:1058B00099801D6013E70F9AC2F101020F920F9AAF
:1058C000002A93D001991E6988460A4600274FEAAC
:1058D000860901EB860003E0904242F8047C45D93A
:1058E000944652F8041BB1F1FF3FF5D00131022D6F
:1058F000CCF800107ED014F01F0440F0AE802125BB
:1059000076E70F9900293FF431AF502519460098EA
:1059100000F03AFA002328460E9A136005B0BDE85D
:10592000F08F0020B9E6AA465CE6A61B194632466F
:10593000009800F067FC00F1140203460027AAEB70
:10594000060A0192E9E67278751C18F802102E46D4
:1059500000293FF447AE16F8012F18F8021000296D
:10596000F9D13BE64FF00009841C13E69A68964291
:105970004ADA0121022D06EB010003EB86061861CD
:10598000DDF80480716135D0002874DC00221A61D2
:1059900000225A61DBF808200AF1010A5245AEDA0A
:1059A0001946009800F0F0F900230E9AA325136021
:1059B0009AE601275CE74FF00009019E99E6184638
:1059C0002946039300F0AEFE039B074650E71846B6
:1059D000B11E039300F0A6FE039B00283FF428AFFE
:1059E000032726E74FF0000A01274EE60F9900290A
:1059F0008BD0BBE6DBF80020013AA24262D0222520
:105A0000F6E64FF00109D4E5596800980131019399
:105A100000F094F9019B074600286CD01A6903F145
:105A20000C01023292000C300193FBF7C5FA019B86
:105A30000098194600F0A8F901213B69022D03EBFB
:105A4000010007EB8303386107F1140859613B46F5
:105A5000D0D08642BFF64FAF96E7C14459F8040C48
:105A6000019300F045FAC4F12004A042019BBFF667
:105A700046AF186988E75A6908EB800003F11804FB
:105A8000A0424FEA520229D94546216842EAC17232
:105A900045F8042B54F8042BA0424FEA5202F4D8E4
:105AA000C11A19398908013148F8212008EB810110
:105AB00002B10431A1EB0802921041451A617FF452
:105AC00069AF65E70122611158F8211004F01F0445
:105AD000A2400A4214BF2125222589E6C8F80020E9
